:020000040800F2
:1000000070230020A5010008C725000885220008EC
:10001000C5250008B90200081533000800000000DB
:100020000000000000000000000000000D29000892
:100030000303000800000000C92500080F2900087C
:10004000BF010008BF010008BF010008BF01000890
:10005000BF010008BF010008BF010008BF01000880
:10006000BF010008BF010008BF010008BF01000870
:10007000BD020008C9020008BF010008BF01000856
:10008000BF010008BF010008BF010008BF01000850
:10009000BF010008BF010008BF01000829030008D4
:1000A000BF010008BF010008BF010008BF01000830
:1000B000BF0100080000000000000000BF010008B0
:1000C000BF010008BF010008BF010008BF01000810
:1000D000BF01000881320008FD3200080933000822
:1000E000BF010008BF010008000000000000000080
:1000F0000000000000000000000000000000000000
:1001000000000000BF01000800000000BF0100085F
:10011000000000000000000091290008BF01000855
:10012000BF010008BF010008BF010008BF010008AF
:10013000BF010008000000000000000000000000F7
:10014000BF010008BF010008BF0100080000000057
:10015000BF010008BF010008BF010008BF0100087F
:10016000BF010008BF010008BF0100080000000037
:10017000BF010008BF0100080000000000000000EF
:10018000BF010008BF010008BF010008DFF810D060
:1001900000F080F80048004755330008AFF30080B6
:1001A000702300200648804706480047FEE7FEE728
:1001B000FEE7FEE7FEE7FEE7FEE7FEE7FEE7FEE717
:1001C000812900088D0100082DE9F05F0546002017
:1001D00092469B4688460646814640241BE02846B8
:1001E00041464746224600F044F853465A46C01A54
:1001F000914110D311461846224600F02BF82D1AD3
:1002000067EB01084F4622460120002100F022F84A
:1002100017EB00094E41201EA4F10104DFDC484623
:1002200031462A46434600F000B830BCBDE8C09FC6
:10023000D2B201E000F8012B491EFBD27047002228
:10024000F6E710B513460A4604461946FFF7F0FFD5
:10025000204610BD202A04DB203A00FA02F10020DB
:1002600070479140C2F1200320FA03F319439040F4
:100270007047202A04DB203A21FA02F0002170475F
:1002800021FA02F3D040C2F12002914008431946FE
:1002900070470000064C074D06E0E06840F001039F
:1002A00094E8070098471034AC42F6D3FFF772FF8A
:1002B000CC330008EC330008FEE70000014800F0F2
:1002C000C7B80000B80A0020014800F0C1B800001B
:1002D000700A002030B590F8444004F01C05012459
:1002E000AC40056C6C60046863608368102B036825
:1002F00003D099600068C26030BD9A600068C16038
:1003000030BD704706484178C1EBC102C2EBC11154
:1003100000EB4101F0220348091D01F0AEBC0000D2
:10032000700B0020E809002070B500F087FA1D4B23
:1003300040F2DE3520221968441A1B49AC4205D22E
:100340000A60086840F02000086070BD1860086806
:100350008006FAD50A60086840F0200008600A604C
:1003600002F06EFA11488178491CC9B281703C29AB
:1003700012D3002181704278521CD2B242703C2AC2
:100380000AD341700278521CD2B20270182A03D3E9
:100390000170C178491CC170BDE87040034802F08B
:1003A0007FBA000000000020140401400800002073
:1003B00072B6FEE710B540B190F825100022022970
:1003C00005D00421C16380F82420012010BD0168FC
:1003D0000B6823F001030B6001680B6823F00E0328
:1003E0000B6090F84410046C01F01C03012101FA29
:1003F00003F3636080F8251080F82420002010BDEE
:1004000010B590F825100024022903D00421C163FF
:1004100001241AE001680A6822F001020A600168FA
:100420000A6822F00E020A6090F84410036C01F092
:100430001C02012101FA02F25A6080F82510002105
:1004400080F82410816B01B18847204610BD000060
:10045000F0B4016C0D6801680C6890F8442002F05B
:100460001C06042202FA06F32B4211D063070FD5B3
:100470000B689B0603D40B6823F004030B6090F811
:10048000441001F01C018A40016C4A60016B26E0B7
:10049000022202FA06F72F424FF0000C4FF0010340
:1004A00021D0A7071FD50C68A40605D40C6824F03A
:1004B0000A040C6080F82530184B0168994290F8C6
:1004C000441001F01C0102FA01F202D914490A6039
:1004D00002E0124980394A6080F824C0C16A0029CC
:1004E0001AD0F0BC08470822B2402A4214D0220792
:1004F00012D50A6822F00E020A6090F84410026CCD
:1005000001F01C0103FA01F15160C36380F825304A
:1005100080F824C0416BE2E7F0BC704780000240E5
:100520000404024010B568B12C4C026814232C4915
:10053000A24209D22B4C1444B4FBF3F39B00C0E954
:1005400010130BE0012010BD244C64421444B4FB92
:10055000F3F39B004364214B083B0364022380F8C0
:100560002530136847F6F074A3431360D0E90223E3
:100570001A43D0E9043423431A4383691A43C369F5
:100580001A43036A1A4303681C6822431A6082688C
:10059000B2F5804F19D0036C0F228B4202D151F873
:1005A000A83F02E00D49A0310B6890F8444004F0E8
:1005B0001C04A24093430B6090F84430426803F05F
:1005C0001C039A400B681A430A600021C163012290
:1005D00080F8252080F82410084610BD0804024049
:1005E00000000240F8FFFDBF70B5044690F82400FB
:1005F000002501280ED0012084F8240094F82560FD
:100600000020012E08D08021E16384F82400012518
:10061000284670BD022070BD022684F82560E06384
:100620002068066826F0010606602046FFF752FEA5
:10063000206B00282068016802D041F00E0106E01E
:1006400021F0040101602068016841F00A010160A5
:100650002068016841F001010160D9E72DE9F04F00
:10066000DFF8AC9100230325A9F1040B85B04FF00E
:10067000010C0F2709F1040AABF1040EBFE000BF23
:100680000CFA03F6324075D00C7904F00304012C07
:1006900001D0022C1BD1846800945C0005FA04F898
:1006A0000494009C24EA08040094D1F80C80049C73
:1006B00008FA04F8009C48EA0408C0F80880446876
:1006C000B4430E79C6F300169E40264346600C796B
:1006D000E443A4070AD0C4684FEA430805FA08F6C1
:1006E000B4438E6806FA08F62643C6600C7904F017
:1006F0000304022C10D1DC0800EB84040294246A69
:100700005E074FEAD66807FA08F6B4430E6906FAA0
:1007100008F62643029C266204684FEA430805FA5D
:1007200008F6B4430E7906F0030606FA08F62643E7
:1007300006604C6814F4403F60D0364C266E46F09C
:1007400001062666246E23F0030604F001040094DB
:10075000314C34440294A4689E074FEA167807FA95
:1007600008F6B443B0F1904F05D02C4EB04204D1FE
:10077000012612E042E000260FE0294EB04201D1EE
:1007800002260AE0274EB04201D1032605E0264E9C
:10079000B04201D1042600E0072606FA08F62643F7
:1007A000029CA660D9F800604C46D1F804809643BC
:1007B0005FEAC82800D516432660DAF8004056469E
:1007C000D1F8048094435FEA882800D5144334604C
:1007D000DBF800405E46D1F8048094435FEA883835
:1007E00000D514433460DEF800407646D1F804802A
:1007F00094435FEAC83800D5144334605B1C0A6830
:1008000032FA03F47FF43CAF05B000F00FB80000FB
:1008100008040140001002400000014000040048AC
:1008200000080048000C00480010004830BCBDE83B
:10083000C08F0AB18161704781627047014880684A
:10084000704700001400002090F84120202A24D195
:1008500090F84020012A20D0012280F84020242254
:1008600080F841200268136823F0010313600268D6
:10087000136823F480531360026813680B431360FA
:1008800001680A6842F001020A60202180F84110E4
:10089000002180F84010084670470220704790F809
:1008A0004120202A22D190F84020012A1ED0012286
:1008B00080F84020242280F841200268136823F049
:1008C000010313600268136823F4706343EA012193
:1008D000116001680A6842F001020A60202180F874
:1008E0004110002180F840100846704702207047F0
:1008F00070B5040004D094F84100002510B106E062
:10090000012070BD84F84050204600F04FF82420AC
:1009100084F841002068016821F0010101606068ED
:10092000216820F0706008612068816821F400412E
:100930008160E0680128A06830D040F4044021685C
:100940008860E0680228206841682AD021F40061AC
:10095000416020684168144A114341602068C168C1
:1009600021F40041C160D4E904010843A16940EACF
:1009700001202168C860D4E90701084321680860A4
:100980002068016841F0010101606564202084F85D
:100990004100256384F84250002070BD40F40040BF
:1009A000CDE741F40061D3E7008000022DE9F04F6C
:1009B0009DB00446142117A8FFF741FC5C2168464E
:1009C000FFF73DFC374920688026374C1227DFF8B7
:1009D000DCB000254FF003094FF0040A884222D111
:1009E000684600960D9500F035F908B1FFF7E0FC78
:1009F000E06C40F00200E064E06C19AA00F0020034
:100A00001C904FF44060CDE9170782E8200617A933
:100A10005846FFF723FEA06D40F48000A065A06D4E
:100A200000F4800039E02249884237D180150090D7
:100A30000E95684600F00EF908B1FFF7B9FCE06CBE
:100A400040F00100E064E06C00F001001C90E06CFC
:100A500040F00200E064E06CCDE9176700F00200AE
:100A6000CDE91BA0CDE91959B8464E46574617A9FE
:100A70004FF09040FFF7F2FD1020CDE9170819AABA
:100A800017A982E8E0005846FFF7E8FDA06D40F4A2
:100A90000000A065A06D00F400001C901DB000F0E7
:100AA00009B800000058004000100240000400484F
:100AB000005C004030BCBDE8C08F00000248816887
:100AC00002781144816070471400002010B50024A2
:100AD000032000F071F80F2000F008F808B101249D
:100AE00001E000F025F8204610BD000070B50E4E64
:100AF00005460024307898B14FF47A71B1FBF0F0DC
:100B00000A490968B1FBF0F000F062FF40B9102D0E
:100B100006D200222946501E00F02EF8756000E033
:100B20000124204670BD0000140000202000002099
:100B3000094808B5016E41F001010166016E01F03E
:100B400001010091816D41F080518165806D00F05F
:100B50008050009008BD000000100240002809DB12
:100B600000F01F02012191404009800000F1E020C7
:100B7000C0F8001170470000F0B40E4B1B680C4623
:100B8000C3F30223C3F10705042D00D90425191D61
:100B9000072901D2002300E0DB1E012606FA05F139
:100BA000491E214099409E40761E16403143F0BCBC
:100BB00002F0B1BB0CED00E0064900F00702086846
:100BC0004FF6FF03184040EA0220034A1043086032
:100BD000704700000CED00E00000FA051649B0F582
:100BE000007F0868C0F3412009D0022805D00868BA
:100BF00020F4C06040F48060086000207047012845
:100C0000FBD0086820F4C06040F4007008600B4816
:100C10003222006850430A4AB0FBF2F0401C00E068
:100C2000401E4A69520501D50028F9D1486940059E
:100C3000E3D5032070470000007000402000002032
:100C400040420F000248006800F4C0607047000096
:100C5000007000402DE9F84F044600270088A84D99
:100C60003E46000515D5606C60B1B0F5000F04D0AC
:100C7000B0F5400F2BD001270AE0E86840F480303F
:100C8000E86024E00021201D01F0A0FC07001ED038
:100C90003E46206880033AD5A86D4FF00008C0009A
:100CA00009D4A86D40F08050A865A86D4FF00108E8
:100CB00000F080500090DFF84CA2DAF8001041F408
:100CC0008071CAF80010FFF7B9FD814610E0D5F831
:100CD0008800616C20F440000843C5F88800D8E71C
:100CE000FFF7ACFDA0EB0900022801D9032705E0BE
:100CF000DAF80000C005F3D5002F7DD04FEA0706D3
:100D0000B8F1000F03D0A86D20F08050A8652078BE
:100D1000C00707D0D5F88800216A20F003000843F7
:100D2000C5F888002078800707D5D5F88800616A63
:100D300020F00C000843C5F888002078400707D54C
:100D4000D5F88800A16A20F030000843C5F8880073
:100D50002078800607D5D5F88800E16A20F4406045
:100D60000843C5F888002088800507D5D5F8880095
:100D7000E16B20F440200843C5F888002088400536
:100D800007D5D5F88800216C20F440100843C5F839
:100D900088002078400607D5D5F88800216B20F41C
:100DA00040500843C5F888002078000607D5D5F8DC
:100DB0008800616B20F440400843C5F88800208813
:100DC000C00507D5D5F88800A16B20F44030084352
:100DD000C5F8880020684FF0006700034FF0806876
:100DE00050D5D5F88800A16C20F040600843C5F8C4
:100DF0008800A06CB84200E005E03BD1E86840F410
:100E00008010E8603EE0D5F8900010F4407014D0F7
:100E1000A16D814211D0D5F89000D5F8901020F442
:100E2000407041F48031C5F89010D5F8901021F44D
:100E30008031C5F89010C5F89000C00711D0FFF7B9
:100E4000FDFC074641F2883907E000BFFFF7F6FCDA
:100E5000C11B494501D9032652E7D5F89000800708
:100E6000F4D5D5F89000A16D20F440700843C5F882
:100E7000900045E7404505D10121201D01F0A6FB6A
:100E800000B106462068400317D5D5F88800E16C0C
:100E900020F040600843C5F88800E06CB84204D1F7
:100EA000E86840F48010E86007E0404505D1012182
:100EB000201D01F08BFB00B106462088400411D5AF
:100EC000D5F88800216D20F040500843C5F888000F
:100ED000206DB0F1805F05D10221201D01F076FB6D
:100EE00000B106462088000406D555F8880F616DCC
:100EF00020F0804008432860304600F005B800002C
:100F0000001002400070004018BCBDE8E08F0000F7
:100F10002DE9F0470F4605006BD0494E306800F0D0
:100F20000700B84209D2306820F00700384330602B
:100F3000306800F00700B8425BD12878414C800748
:100F40000AD5A868A16801F0F001884204D9A16817
:100F500021F0F0010143A1602878C0072CD0686817
:100F6000032811D0022812D0216898B14905002920
:100F70003FDAA16821F003010143A160FFF75EFCA5
:100F8000804641F2883910E021688901EFE7216845
:100F90008903ECE78907EAE7FFF750FCA0EB0801BB
:100FA000494502D90320BDE8F087A068696800F0D0
:100FB0000C00B0EB810FEFD1287880070AD5A86824
:100FC000A16801F0F001884204D2A16821F0F0018B
:100FD0000143A160306800F00700B8420BD93068C7
:100FE00020F0070038433060306800F00700B84256
:100FF00001D00120D7E72878400705D5A068E96827
:1010000020F4E0600843A0602878000706D5A068B7
:10101000296920F4605040EAC100A06000F03EF869
:10102000A168094AC1F30311515C01F01F01C840D6
:101030000649086006480068BDE8F047FFF756BD5E
:1010400000200240001002408433000820000020ED
:10105000180000200548064900688968054AC1F360
:101060000221515C01F01F01C840704720000020A0
:1010700000100240C433000805480649006889682A
:10108000054AC1F3C221515C01F01F01C8407047FD
:101090002000002000100240C433000870B525492C
:1010A000002318468A68CC6812F00C0204F003068C
:1010B000214C4FEA640509D00C2A05D0042A32D00D
:1010C000082A00D1284670BD012E10D10B681B07DD
:1010D00004D4D1F89430C3F3032302E00B68C3F3C4
:1010E0000313164E56F82330DAB10C2AEBD1C86838
:1010F00000F00300022818D0032818D01846CA6848
:10110000CB68C2F30212C3F306234343521CB3FB62
:10111000F2F2C868C0F34160401C4000B2FBF0F03E
:1011200070BD184670BD204670BD2046E7E72846D2
:10113000E5E70000001002400024F40094330008AA
:101140002DE9F84304006FD0FA4DA86800F00C06B2
:10115000E86800F003072078C00664D576B10C2E4D
:1011600001D1012F0AD0A069002828687AD040F068
:1011700001002860FFF762FB80465DE02868800779
:1011800002D5A0690028DED0216A2868000703D5AF
:10119000286800F0F00004E0D5F89400F02202EA9C
:1011A0001010814216D9084601F0A6FA00283BD15A
:1011B000286840F0080028602868216A20F0F000C4
:1011C000084328606868E16920F47F4040EA012014
:1011D000686016E0286840F0080028602868216AE6
:1011E00020F0F000084328606868E16920F47F403F
:1011F00040EA0120686026B9206A01F07DFA0028E3
:10120000D5D1FFF74BFFA968CB4AC1F30311515C5D
:1012100001F01F01C840C9490860C9480068FFF7CC
:1012200065FC00287ED12EE0CAE000BFFFF706FB78
:10123000A0EB0800022876D828688007F6D5286831
:1012400040F0080028602868216A20F0F000084378
:1012500028606868E16920F47F4040EA0120686006
:1012600011E0FFE720F001002860FFF7E7FA804671
:1012700006E000BFFFF7E2FAA0EB08000228DAD888
:1012800028688007F6D42078C00740D0082E18D0F0
:101290000C2E01D1032F14D06068B0F5803F17D019
:1012A000B0F5A02F286817D020F480302860286877
:1012B00020F4802028606068E0B1FFF7BFFA804624
:1012C00014E02868800322D56068002878D01EE0EA
:1012D000286840F48030EDE740F480202860F7E78C
:1012E000FFF7ACFAA0EB08006428A4D828688003B4
:1012F000F6D50CE0FFF7A2FA804605E0FFF79EFA6C
:10130000A0EB0800642896D828688003F6D42078DB
:1013100080073BD5042E11D00C2E01D1022F0DD009
:10132000E06801E0AAE1FFE0002828681ED040F450
:1013300080702860FFF782FA07460CE028684005B5
:101340000CD5E0680028C1D008E000BFFFF776FAAE
:10135000C01B022893D828684005F7D56868217C0F
:1013600020F0F85040EA016068600FE020F48070DF
:101370002860FFF763FA074605E000BFFFF75EFA53
:10138000C01B0228B1D828684005F7D42078000790
:1013900029D560690028D5F8940012D040F00100EA
:1013A000C5F89400FFF74AFA074604E0FFF746FA4B
:1013B000C01B022899D8D5F894008007F6D512E012
:1013C0002BE120F00100C5F89400FFF737FA07463B
:1013D00005E000BFFFF732FAC01B022885D8D5F818
:1013E00094008007F6D42078400766D5A86D0027C2
:1013F000C00008D4A86D40F08050A865A86D0127F2
:1014000000F0805000904F480168C90512D401686F
:10141000814641F480710160FFF710FA804605E0D3
:10142000FFF70CFAA0EB080002287DD8D9F80000DD
:10143000C005F5D5A068012816D00528D5F890007C
:1014400017D020F00100C5F89000D5F8900020F0EA
:10145000040000BFC5F89000A06841F28839C0B10F
:10146000FFF7ECF980460FE0D5F8900040F001005E
:10147000F0E740F00400C5F89000F5E7FFF7DEF96B
:10148000A0EB080149454FD8D5F890008007F5D565
:101490000EE0FFF7D3F9804606E000BFFFF7CEF974
:1014A000A0EB080149453FD8D5F890008007F5D456
:1014B0001FB1A86D20F08050A8652078800628D53F
:1014C000606A0028D5F8980012D040F00100C5F8F5
:1014D0009800FFF7B3F9074605E000BFFFF7AEF944
:1014E000C01B022820D8D5F898008007F6D510E058
:1014F00020F00100C5F89800FFF7A0F9074604E0C6
:10150000FFF79CF9C01B02280ED8D5F89800800779
:10151000F6D4A06AF0B3022816D00C2E7DD028682D
:1015200020F08070286000E0A7E0FFF787F904460C
:10153000A6E00000001002408433000820000020D4
:101540001800002000700040E868E26A00F0030123
:10155000914228D1216B00F07002090110399142AB
:1015600021D1626B00F4FE41B1EB022F1BD194F844
:10157000382000F07841B1EBC26F14D1A18F00F494
:10158000C00249084905A1F5001191420BD194F818
:10159000401000E06AE04908490600F0C060A1F18F
:1015A000007181424BD00C2E73D02868400170D45A
:1015B000286820F080702860FFF740F9064604E0B4
:1015C000FFF73CF9801B022857D828688001F7D420
:1015D000F4E90B016FF00F0202EB01110843218ABD
:1015E0005204490802EB4151A26841EA0221084332
:1015F000217D4FF07E42490802EB41610843217B87
:1016000040EAC160E968244A11400843E86028685C
:1016100040F080702860E86800E03AE040F08070B8
:10162000E860FFF70BF9044605E000BFFFF706F995
:10163000001B022821D828688001F7D527E02868F8
:10164000800124D4286840F080702860E86840F069
:101650008070E860FFF7F2F8044604E0FFF7EEF868
:10166000001B022809D828688001F7D50FE000BFC9
:10167000FFF7E4F8001B022802D90320BDE8F88335
:1016800028688001F4D4E86804490840E860002034
:10169000F4E70120F2E700008C809D01FCFFEEFEE4
:1016A00010B500680B4641680D480140080CD87021
:1016B000C1F304245C7001F03F049C70C1F342311B
:1016C000197052B901F056F8D870587801F052F8F4
:1016D0005870987801F04EF89870002010BD000006
:1016E0003FFFFF0010B50B460168896A5960016829
:1016F0000969C1F30E019960006801680D48014055
:10170000C1F305401870C1F306245C7001F07F043A
:101710009C70890DD97052B901F02CF81870587866
:1017200001F028F85870987801F024F8987000209B
:1017300010BD00007F7F7F0010B504004FF0010056
:1017400048D094F8210028B9002084F820002046D1
:1017500000F04AF8022084F821002068C168C943DB
:10176000C90638D5CA214162216853204862204603
:1017700001F016F8B0B9206881681A4A11408160FA
:10178000216888686268A369104322691A4310437C
:1017900088602168E068086120680169228941EA5F
:1017A00002410161204601F01FF800280DD1216897
:1017B000CA6C22F00302CA646269E16941EA02016B
:1017C0002268D36C41EA0301D16422684FF0FF0123
:1017D000516202D010BD4FF000004FF0010184F8BB
:1017E000211010BDBFFF8FFF10B598B004465C21DB
:1017F0006846FEF724FD0B492068884210D14FF45B
:1018000000300090001216906846FFF723FA08B1E6
:10181000FEF7CEFD044850F8901F41F400410160EE
:1018200018B010BD002800400010024070B50446FA
:1018300090F820000B4601281BD0012684F8206078
:10184000022084F82100B2B19878D97840EA0145A5
:1018500058781978000240EA413005432168CA20CF
:101860004862216853204862204600F099FFD0B1B9
:1018700020E0022070BD5878C10603D500F0EF00CB
:101880000A305870D87800F07EFF0504587800F0D0
:101890007AFF45EA0025987800F075FF054318782F
:1018A00045EA4035DAE708480540206845602046AB
:1018B00000F09AFF2268FF21516208B984F8216084
:1018C000002184F8201070BD3FFFFF002DE9F0419A
:1018D000044690F8200090460D46012811D00127BB
:1018E00084F82070022084F821002168CA20486210
:1018F000216853204862204600F052FF002618B1AC
:1019000029E00220BDE8F0812068B8F1000F80686E
:101910004FEA406024D0002800DBEE70A8782978D8
:10192000EA7840EA01406978090241EA82510843B5
:1019300018490840216808602068816821F48021E6
:101940008160D5E90301084321688A6810438860F3
:10195000204600F049FF2268FF215162A0B115E046
:10196000002800DBEE70287800F00DFF0304687893
:1019700000F009FF43EA0023A87800F004FF0343C6
:10198000E87843EA8050D3E784F8217084F8206037
:10199000B8E700007F7F7F0070B504460B482168E0
:1019A000C860FEF74BFF05464FF47A7607E000BFAC
:1019B000FEF744FF401BB04201D9032070BD2068F0
:1019C000C0688006F4D5002070BD00005FFF0300F2
:1019D00010B5401EB0F1807F01D3012010BD4FF043
:1019E000E02460610F21601701F095FC0020A061E8
:1019F00007202061002010BD70477047704700002D
:101A0000F0B590F83C20012A29D0012480F83C4010
:101A1000022280F83D2003685A689D68114EB34247
:101A200003D122F470074A683A4322F070070A682B
:101A30003A435A600268B24205D0B2F1804F02D0F8
:101A4000094B9A4204D1896825F0800319439160BB
:101A500080F83D40002180F83C100846F0BD02208F
:101A6000F0BD0000002C01400040014010B5040012
:101A700003D094F83D0010B107E0012010BD002014
:101A800084F83C00204600F023F8022084F83D0052
:101A9000211D206800F082FF012084F8480084F8AE
:101AA0003E0084F83F0084F8400084F8410084F848
:101AB000420084F8430084F8440084F8450084F828
:101AC000460084F8470084F83D00002010BD000067
:101AD00008B500680B49884212D10B48816D41F06E
:101AE00010018165806D002200F010000090114609
:101AF0003620FFF741F8BDE808403620FFF72EB842
:101B000008BD0000001000400010024070472DE9A1
:101B1000F04104460068C66805694FF00007A90750
:101B200013D5B10711D5F91E016101202077206876
:101B300080698007204602D0FFF7E8FF04E000F04C
:101B40008BF8204600F089F82777680716D57007CC
:101B500014D521686FF00400086102202077206806
:101B6000806910F4407F204602D0FFF7CFFF04E0E9
:101B700000F072F8204600F070F82777280715D596
:101B8000300713D521686FF0080008610420207722
:101B90002068C0698007204602D0FFF7B7FF04E045
:101BA00000F05AF8204600F058F82777E80616D5D6
:101BB000F00614D521686FF0100008610820207726
:101BC0002068C06910F4407F204602D0FFF79EFFD6
:101BD00004E000F041F8204600F03FF82777E807DE
:101BE00008D0F00706D021686FF001000861204698
:101BF00000F034F8280601D4A80408D5300606D52C
:101C000021686FF4025008612046FFF7F6FEE805F0
:101C100008D5300606D521686FF48070086120462B
:101C2000FFF7EAFE680608D5700606D521686FF052
:101C300040000861204600F01FF8A8060AD5B0064B
:101C400008D521686FF0200008612046BDE8F0410A
:101C5000FFF7D4BEBDE8F0817047704700680449C3
:101C6000884203D103480168491C016070470000A5
:101C70000010004010000020704710B50446D0F856
:101C80008000202801D0022010BD61B15AB101208E
:101C9000206600206066204601F0FCF90028F3D1A0
:101CA000216E012901D0012010BD2268102111628E
:101CB000226852E8001F41F0100142E80013002B97
:101CC000F6D110BD0E4A00681268904216D10D4838
:101CD0004278C2EBC203C3EBC21200EB4202A2F88D
:101CE000F4104178491CC9B24170142901D1002176
:101CF00041700178491C0170FEF704BB7047000079
:101D0000E8090020700B0020704770472DE9F04172
:101D100002680446D0691168936840F60F052842AE
:101D20004FF000054FF0020605D187067ED58F06DD
:101D30007CD5A16E33E1DFF894C203F0010701EA1C
:101D40000C0C57EA0C0C71D05FEAC07C0CD05FEA37
:101D5000C15C09D54FF0010CC2F820C0D4F8842032
:101D600042F00102C4F88420820709D5DA0707D0BF
:101D700022681662D4F8842042F00402C4F8842059
:101D800042070AD5DA0708D0236804221A62D4F879
:101D9000842042F00202C4F8842002070CD501F02E
:101DA00020023A4308D0236808221A62D4F884201B
:101DB00042F00802C4F8842002050BD54A0109D577
:101DC00023684FF400621A62D4F8842042F02002A3
:101DD000C4F88420D4F88420002A36D0800605D5A3
:101DE000880603D5A16E09B120468847D4F884003F
:101DF00021688968490602D410F0280F27D02046B0
:101E000000F04DFF2068806840061BD52068083030
:101E100050E8001F21F0400140E80012002AF5D1EF
:101E2000606F78B16A498163606F00E015E0FEF78A
:101E3000E7FA002809D0606F816B00E02046BDE81A
:101E4000F04108472046FFF760FFBDE8F0812046DB
:101E5000FFF75BFFC4F88450F7E7D4F860C0202791
:101E6000BCF1010F7ED15FEAC06C7BD55FEAC16C2B
:101E700078D5102010622068806840064FD5616FC9
:101E80000A6850680004000C3DD0B4F85830834212
:101E900039D9A4F85A000868006880062BD4206855
:101EA00050E8001F21F4807140E80012002AF6D1AA
:101EB0002068083050E8001F21F0010140E80012BE
:101EC000002AF5D12068083050E8001F21F04001B9
:101ED00040E80012002AF5D1C4F880702566206819
:101EE00050E8001F21F0100140E80012002AF6D14E
:101EF000606FFEF75FFA6666B4F85800B4F85A10DF
:101F0000401A81B207E0B4F8581081429DD11068A0
:101F100080069AD566662046FFF7D4FE95E7B4F8AA
:101F20005800B4F85A10401A81B2B4F85A00002888
:101F30008BD0002989D0226852E8000F20F49070DD
:101F400042E80003002BF6D12068083050E8002F4B
:101F500022F0010240E80023002BF5D1C4F8807084
:101F6000256600E00AE0A566226852E8000F20F02E
:101F7000100042E80003002BF6D1CBE7C60209D5DA
:101F80005B0207D54FF4801010622046BDE8F04197
:101F9000FFF7BABE020606D50A0604D5E16E00298F
:101FA0007FF44CAF51E74006B8D54806B6D5204679
:101FB000026852E8001F21F0400142E80013002BA4
:101FC000F6D1C767C56600F05CF93EE72001000462
:101FD000812B000810B5040002D0E06F10B107E0BB
:101FE000012010BD002084F87800204600F026F87B
:101FF0002420E0672068016821F001010160606A27
:1020000010B1204600F004FD204600F043FF0128F7
:10201000E7D02068416821F49041416020688168E0
:1020200021F02A0181602068016841F0010101600E
:102030002046BDE8104000F04FBD00002DE9F04300
:102040009DB00646142117A8FEF7F9F85C216846F2
:10205000FEF7F5F861493068614C032702254FF01F
:1020600007094FF00008884229D101200090CDF8DF
:1020700020806846FEF7EEFD08B1FEF799F9206E64
:1020800040F480402066206E00F480401C90E06C9C
:1020900040F00200E064E06C17A900F002001C9020
:1020A000C02081E82101CDE91A794E48FEF7D6FA21
:1020B000002211462520FEF75FFD25202BE04A492E
:1020C00088422DD16846CDF824800095FEF7C2FDE8
:1020D00008B1FEF76DF9A06D40F40030A065A06D69
:1020E00000F400301C90E06C40F00100E064E06C13
:1020F00017A900F001001C900C2081E82101CDE916
:102100001A794FF09040FEF7A9FA00220321262009
:10211000FEF732FD2620FEF721FD1DB0BDE8F0835D
:1021200032498842F9D10420CDF8288000906846D1
:10213000FEF790FD08B1FEF73BF9A06D40F480205A
:10214000A065A06D00F480201C90E06C40F00400BD
:10215000E064E06C19AA00F004001C903020CDE986
:102160001705444682E8900217A92148FEF776FA3F
:10217000214F20484FF080093860C7E90154C7E972
:1021800003497C614FF48058BC61C7E90748384671
:10219000FEF7C8F908B1FEF70BF97767BE62164F74
:1021A000144848371438E7E802051020A7E8110260
:1021B000114847F814494830BC61C7E90748FEF7A1
:1021C000B1F908B1FEF7F4F83767002202212720A1
:1021D000BE62FEF7D1FC27209DE7000000380140D9
:1021E0000010024000040048004400400048004045
:1021F0000008004830000240700A002030B4D0F8D7
:102200008030202B02D0022030BC7047A9B1A2B18F
:10221000002303660A4C0368A3420BD05B681B02D1
:1022200008D5046854E8003F43F0806344E8003573
:10223000002DF6D130BC00F07DBF0120E4E70000A6
:10224000008000400A4A016891420FD1094A117882
:102250001F290BD2406D037807484354491CC9B26B
:102260001170014401220548FFF7C8BF7047000004
:1022700000440040240000204C1F00206009002082
:1022800070477047FEE700000D4808B5816C41F0CB
:1022900001018164806C002200F001000090114671
:1022A0000C20FEF769FC0C20FEF758FC00221146BA
:1022B0000D20FEF761FCBDE808400D20FEF74EBC86
:1022C000001002402DE9F04186B014216846FDF768
:1022D000B6FF3D48C16C41F08001C164C16C01F0A2
:1022E00080010591C16C41F00101C164C16C01F034
:1022F00001010591C16C41F00201C164C06C4FF055
:10230000904800F002000590002201214046FEF7AF
:1023100090FA012500240095CDE901546946404614
:102320000394FEF79BF92802CDE90004274F694684
:1023300038460294FEF792F968024FF48816CDE908
:102340000006694602943846FEF788F90022032108
:102350003846FEF76EFA03200090CDE90154694635
:1023600038460394FEF77AF90420CDE90004694663
:1023700038460294FEF772F92020CDE9000669463E
:1023800002943846FEF76AF9002201214046FEF722
:1023900050FA0095CDE90154694640460394FEF792
:1023A0005DF9E803CDE90004694640460294FEF772
:1023B00055F9002203211720FEF7DEFB1720FEF758
:1023C000CDFB06B0BDE8F0810010024000040048DB
:1023D000134810B5114901601249416000210122E2
:1023E000C0E90212016141618161C1610162FEF7D0
:1023F0007FFA08B1FDF7DCFF00210948FEF724FA57
:1024000008B1FDF7D5FF00210548FEF748FA00287E
:1024100003D0BDE81040FDF7CBBF10BD0058004011
:1024200030000020E49CD110134810B51149016020
:102430001249416000210122C0E90212016141619B
:102440008161C1610162FEF753FA08B1FDF7B0FF87
:1024500000210948FEF7F8F908B1FDF7A9FF0021AE
:102460000548FEF71CFA002803D0BDE81040FDF730
:102470009FBF10BD005C004084000020E49CD11090
:102480000C4810B50A49016000217F22C0E9011201
:10249000FF22C0E9032141618161C161FFF74CF96D
:1024A00008B1FDF785FFBDE8104000F0C9B9000094
:1024B00000280040000B00203EB500240F48009487
:1024C00001940D49029401604F21C0E9011440F2CA
:1024D000E7318461C160FFF7C9FA08B1FDF768FF11
:1024E0000094694605480294FFF78AFA002801D053
:1024F000FDF75EFF3EBD000000100040240B0020F1
:1025000010B5114C0F480C2120604FF4E130606091
:102510000020A060E060C4E90401A061E0612062E5
:1025200060622046FFF756FD08B1FDF741FF2068C5
:10253000016841F0200101602068016841F010014C
:10254000016010BD00380140D80800200D4810B5CA
:102550000B4901604FF4E1314160002181600C22A0
:10256000C160C0E904128161C16101624162FFF78B
:1025700031FD002803D0BDE81040FDF719BF10BDA4
:1025800000440040600900200D4810B50B4901606F
:102590004FF416514160002181600C22C160C0E9F6
:1025A00004128161C16101624162FFF713FD0028DD
:1025B00003D0BDE81040FDF7FBBE10BD0048004051
:1025C000E8090020FEE7FEE7704700002DE9F04132
:1025D000444C05468846E0680026810728680DD0EF
:1025E000E16801F00301814216D1A8B1E068696891
:1025F000C0F30210401C88420ED120E0012804D014
:10260000022805D0032807D108E02168890701E0E6
:1026100021684905002907DB01265FE0216889035D
:1026200002D421684903F5E7E1686A686FF00F0397
:1026300021F0730103EB021211430143E1602068B2
:1026400020F080602060FEF7F9F8074605E000BF43
:10265000FEF7F4F8C01B022837D820680001F7D431
:10266000B8F1000F18D0B8F1010F1DD0287D4FF040
:102670007E41400801EB4060A96840EA01202169E1
:10268000194A114008432061206840F080602060B2
:10269000FEF7D4F807461AE0A868297B000240EA52
:1026A000C1602169114AECE7288A1149400801EB11
:1026B0004050A96840EA012021690E4AE1E700BFC5
:1026C000FEF7BCF8C01B022801D9032606E02068EB
:1026D0000001F5D52069A969084320613046BDE8AD
:1026E000F081000000100240FF80FFF9FF80FF072B
:1026F0000000E0FFFF809FFFF8B51C4D0646002458
:10270000A86DC00002D5FEF79DFA0DE0A86D40F05F
:102710008050A865A86D00F080500090FEF792FAF6
:10272000A96D21F08051A965B0F5007F04D0802EFD
:1027300007D94FF003040AE0802E08D9A02E01D853
:1027400004E001D1022402E0702E00D101240848E7
:10275000016821F0070121430160006800F00700D3
:10276000A04201D00120F8BD0020F8BD00100240B9
:1027700000200240010901EB810100F00F0000EB95
:102780004100C0B270470022014602E00A39C9B2D6
:10279000521C0A29FAD2100741EA10607047000063
:1027A0002DE9F041044600680025C168490617D4A8
:1027B000691EC160FEF742F806464FF47A78032797
:1027C00008E000BFFEF73AF8801B404502D9032518
:1027D00084F821702068C068400601D4032DF1D12F
:1027E0002846BDE8F08100002DE9F0410646134877
:1027F0000025016821F080010160041F20684FF06E
:102800000307800607D43046FFF7C6F890B186F874
:10281000217003250EE0206820F020002060304663
:10282000FFF7BAF810B186F821700325206840F050
:10283000200020602846BDE8F08100000C28004000
:1028400000B587B014216846FDF7F9FC0020024668
:10285000059069461048FEF745FF28B9002205A9F2
:102860000D48FEF71DFF10B1002007B000BD0B485A
:102870009DF8001001709DF8011041709DF8021044
:1028800081709DF81610C1709DF8151001719DF8AA
:10289000171041710120E8E7000B0020080000201C
:1028A00010B586B0040028D014216846FDF7C7FC97
:1028B0000020059021788DF8001061788DF80110C6
:1028C000A1788DF8021003900246049069460E48E4
:1028D000FEF7FCFF88B901208DF8140020798DF8EF
:1028E0001500E0788DF8160060798DF81700002249
:1028F00005A90548FEF79AFF10B1002006B010BDEB
:10290000FFF79EFF0120F9E7000B00207047FEF75C
:10291000D5B810B596B044216846FDF790FC142157
:1029200011A8FDF78CFC4FF40070FEF757F908B1C1
:1029300072B6FEE701210804CDE90010022003244D
:102940000A90CDE90B4114210D910721CDE90E101C
:1029500010906846FEF7F4FB08B172B6FEE70F2050
:10296000CDE911040020139014901590042111A8B2
:10297000FEF7CEFA002801D072B6FEE716B010BD01
:102980000248016841F470010160704788ED00E081
:102990000148FFF7BCB80000240B002070B50268A6
:1029A000184B4FF08046984201D0B04203D122F03C
:1029B00070044A682243144C144D984205D0B0422A
:1029C00003D0A04201D0A84203D122F44076CA68C5
:1029D00032434E6922F0800232438E68C6620E682E
:1029E0008662984203D0A04201D0A84201D1096971
:1029F0000163016841F0040101600121416102604D
:102A000070BD0000002C0140004001400044014026
:102A100090F82410090706D501684A68436B22F430
:102A200000421A434A6090F82410C90706D0016892
:102A30004A68836A22F400321A434A6090F82410EC
:102A4000890706D501684A68C36A22F480321A43AE
:102A50004A6090F82410490706D501684A68036B5C
:102A600022F480221A434A6090F82410C90606D541
:102A700001688A68836B22F480521A438A6090F856
:102A80002410890606D501688A68C36B22F40052B7
:102A90001A438A6090F82410490611D501684A68E3
:102AA000036C22F480121A434A60016CB1F5801F56
:102AB00006D101684A68436C22F4C0021A434A6096
:102AC00090F82410090606D501684A68806C22F443
:102AD000002202434A6070472DE9F843002604466D
:102AE000C0F88460FDF7AAFE8046206800684FF0B9
:102AF000200500076FF07E4712D5434600222904C7
:102B00002046009700F072FB50B1216851E8000F99
:102B100020F0800041E80002002AF6D1E56721E0BC
:102B200020680068400722D5434600224FF4800108
:102B30002046009700F05AFBC8B1216851E8000F09
:102B400020F4907041E80002002AF6D12068083095
:102B500050E8001F21F0010140E80012002AF5D1E1
:102B6000C4F8805084F878600320BDE8F883E567F6
:102B7000C4F8805044F8606F666026760020F4E761
:102B800010B5806AFFF7C1F810BD70B5846AE06FB8
:102B9000D4F8805021688968090604D5212802D11B
:102BA000204600F0A2F820688068400604D5222D57
:102BB00002D1204600F073F8D4F8840040F01000F1
:102BC000C4F884002046FFF7A0F870BD10B5014698
:102BD000806A0A68126892062BD4026852E8003FA5
:102BE00023F4807342E80034002CF6D102680832E6
:102BF00052E8003F23F0010342E80034002CF5D1F5
:102C00000268083252E8003F23F0400342E80034F3
:102C1000002CF5D12022C0F88020026E012A08D1B4
:102C2000036853E8002F22F0100243E80024002C30
:102C3000F6D100224266026E012A02D0FFF702FBA3
:102C400010BD09684968B0F8582089B28A4201D994
:102C5000A0F85A10B0F85A10511A89B2FFF732F89A
:102C600010BD10B50246806A01214166016E01293E
:102C700002D0FFF705FB10BDB0F858104B08A0F8C4
:102C80005A301268526892B2914201D3A0F85A2089
:102C9000B0F85A20891A89B2FFF714F810BD0168FC
:102CA00051E8002F22F4907241E80023002BF6D166
:102CB0000168083151E8002F22F0010241E80023A9
:102CC000002BF5D1016E012908D1026852E8001FDE
:102CD00021F0100142E80013002BF6D12021C0F8AA
:102CE00080100021016681667047026852E8001F6B
:102CF00021F0C00142E80013002BF6D12021C1676A
:102D00007047000010B5B0F85C20D0F88030016842
:102D1000222B04D0886940F00800886110BD496A00
:102D2000436D11401980416D891C4165B0F85A10FE
:102D3000491EA0F85A10B0F85A100029EED10268C6
:102D400052E8001F21F4907142E80013002BF6D1E5
:102D50000168083151E8002F22F0010241E8002308
:102D6000002BF5D12021C0F880100021816641663A
:102D7000154B02689A420BD05268120208D50368BC
:102D800053E8002F22F0806243E80024002CF6D1A3
:102D9000026E012A02D0FFF755FA10BD01660268E3
:102DA00052E8001F21F0100142E80013002BF6D179
:102DB0000168CA69D243D20601D410220A62B0F86F
:102DC0005810FEF77FFF10BD0080004010B5B0F82E
:102DD0005C20D0F880300168222B04D0886940F054
:102DE0000800886110BD496A1140426D1170416D43
:102DF000491C4165B0F85A10491EA0F85A10B0F8A5
:102E00005A100029EED1016851E8002F22F4907287
:102E100041E80023002BF6D10168083151E8002F6A
:102E200022F0010241E80023002BF5D12021C0F857
:102E30008010002181664166154B02689A420BD0D2
:102E40005268120208D5036853E8002F22F080620E
:102E500043E80024002CF6D1026E012A02D0FFF7CD
:102E6000F1F910BD0166026852E8001F21F010015F
:102E700042E80013002BF6D10168CA69D243D2069A
:102E800001D410220A62B0F85810FEF71BFF10BDE3
:102E9000008000402DE9F041044601688068226905
:102EA000E3691043626900251A431043714F0A68B1
:102EB000714B1A4002430A6020684168E26821F4BD
:102EC0004051114341602168A069B94201D0226A92
:102ED00010438A6822F4306202438A60674923689B
:102EE00067488B420DD1D0F8880010F0030006D05F
:102EF000012847D0022843D0032830D144E00121E3
:102F00002EE060498B420BD1D0F8880010F00C0005
:102F100034D0042836D0082832D00C281FD133E012
:102F200059498B420BD1D0F8880010F0300025D0E1
:102F3000102827D0202823D0302810D124E0BB42ED
:102F40000DD1D0F8880010F4406017D0B0F5806F34
:102F500018D0B0F5006F13D0B0F5406F14D0102129
:102F60004A4A00264FF40040BB422FD171B10229DA
:102F70000FD004290FD0082973D10FE00021EFE70B
:102F80000221EDE70421EBE70821E9E7FEF762F80B
:102F900003E0104602E0FEF781F8E8B3626802EB56
:102FA000420181425DD8B0EB023F5AD8010E0302C4
:102FB0005008181871410023FDF706F9344AA0F5AE
:102FC000407191424DD82168C8604BE0E3694FF6EB
:102FD000EF77834228D1092943D2DFE801F00508C1
:102FE0000B420D4242421000FEF734F806E0FEF7B5
:102FF00043F803E0104602E0FEF750F860B14100EC
:10300000606801EB5001B1FBF0F0A0F11001B94292
:1030100027D84FF6F07100E024E00140C0F34200F1
:1030200001432068C1601DE009291AD2DFE801F0E0
:1030300005080B190D1919191000FEF70BF806E019
:10304000FEF71AF803E0104602E0FEF727F848B151
:10305000616800EB5100B0FBF1F0A0F11001B94242
:1030600005D90125A6662846E666BDE8F08180B24E
:10307000A9E7000000800040F369FFEF003801403D
:103080000010024000440040004800400024F400CA
:10309000FFFC0F0070B54165A0F8582000210446E0
:1030A000C0F884102220C4F88000606FD0B11E4B9D
:1030B000C362636F1D481863636F1D485863606F78
:1030C00013468163656D21682A462431606FFDF7E0
:1030D0008BFA38B11020C4F884002020C4F8800096
:1030E000012070BD206940B1216851E8000F40F413
:1030F000807041E80002002AF6D12068083050E8CC
:10310000001F41F0010140E80012002AF5D12068BB
:10311000083050E8001F41F0400140E80012002A4A
:10312000F5D1002070BD0000CD2B0008632C0008F5
:103130008B2B000830B54165A0F85820A0F85A2024
:103140000022826681684FF48055FF23A94204D192
:10315000016969BB40F2FF1130E07F2431B3B1F166
:10316000805F28D0A0F85C20C0F884202221C0F81D
:1031700080100168083151E8002F42F0010241E857
:103180000023002BF5D18168A94201D10169D9B191
:10319000144981660169C9B1016851E8002F42F400
:1031A000907241E80023002BF6D118E0016941B983
:1031B000A0F85C30D8E7016919B13F21A0F85C1094
:1031C000D2E7A0F85C40CFE707498166026852E881
:1031D000001F41F0200142E80013002BF6D100202F
:1031E00030BD0000CD2D0008052D00082DE9F04769
:1031F000994617460D4604464FF00008089E33E0F6
:10320000701C31D0FDF71AFBA0EB0900B04218D8B2
:10321000BEB120680168490726D5802D24D0402DF5
:1032200022D0C169C94309070DD40825056220468B
:10323000FFF735FDC4F8845084F878800120BDE89C
:10324000F0870320FBE7C069C04300050CD4216868
:103250004FF4006008622046FFF721FD2020C4F8EB
:10326000840084F87880ECE72068C06935EA0000C3
:1032700004D00020B842C3D00020E0E70120F9E7E5
:10328000F0B41C4C2368D869A4F5006182061A4882
:103290004FF0010518D55A6A40F2FF77D6B242883E
:1032A000BA420FD28E54521C92B24280022A09D3E3
:1032B0000A4412F8026C0D2E04D112F8012C0A2ACD
:1032C00000D1457020221A622268D369DB060DD531
:1032D00010231362427822B9428840F2FE739A4268
:1032E00004D343880022CA5405704270F0BC0148E0
:1032F000FEF70CBDD8080020040000200148FEF7AE
:1033000005BD0000600900200148FEF7FFBC000079
:10331000E8090020FEE70907090E002804DB00F198
:10332000E02080F80014704700F00F0000F1E0206A
:1033300080F8141D704702E008C8121F08C1002A57
:10334000FAD170477047002001E001C1121F002A26
:10335000FBD17047FDF7BAFBFFF7DBFAFEF7B2FFD0
:10336000FFF736F8FFF760F8FEF78EFFFFF788F8F3
:10337000FFF7A2F8FFF7C4F8FFF7E8F8FFF704F942
:10338000FEE700000000000000000000010203044E
:1033900006070809A0860100400D0300801A0600F8
:1033A00000350C0040420F0080841E0000093D00E3
:1033B00000127A000024F40000366E010048E80193
:1033C000006CDC020000000001020304EC33000882
:1033D0000000002030000000363300081C340008D4
:1033E00030000020402300004633000800000000A9
:1033F00000000000000000000000000000000000CD
:1034000001000000100000000000000000093D0065
:0C341000000000000000000000000000B0
:040000050800018D61
:00000001FF
