:020000040800F2
:10000000381F0020A5010008874D00082946000878
:10001000514D0008291300080D6000080000000081
:100020000000000000000000000000005155000822
:100030007313000800000000894D000853550008A4
:10004000BF010008BF010008BF010008BF01000890
:10005000BF010008BF010008BF010008BF01000880
:10006000BF010008BF010008BF010008BF01000870
:100070002D13000839130008BF010008BF01000854
:10008000BF010008BF010008BF010008BF01000850
:10009000BF010008BF010008BF01000835140008B7
:1000A000BF010008BF010008BF010008BF01000830
:1000B000BF0100080000000000000000BF010008B0
:1000C000BF010008BF010008BF010008BF01000810
:1000D000BF010008815F0008F55F000801600008AB
:1000E000BF010008BF010008000000000000000080
:1000F0000000000000000000000000000000000000
:1001000000000000BF01000800000000BF0100085F
:100110000000000000000000C1560008BF010008F8
:10012000BF010008BF010008BF010008BF010008AF
:10013000BF010008000000000000000000000000F7
:10014000BF010008BF010008BF0100080000000057
:10015000BF010008BF010008BF010008BF0100087F
:10016000BF010008BF010008BF0100080000000037
:10017000BF010008BF0100080000000000000000EF
:10018000BF010008BF010008BF010008DFF810D060
:1001900000F044FC00480047D96F0008AFF300802E
:1001A000381F00200648804706480047FEE7FEE764
:1001B000FEE7FEE7FEE7FEE7FEE7FEE7FEE7FEE717
:1001C000C55500088D0100082DE9F05F05460020A7
:1001D00092469B4688460646814640241BE02846B8
:1001E00041464746224600F025FA53465A46C01A71
:1001F000914110D311461846224600F00CFA2D1AF0
:1002000067EB01084F4622460120002100F003FA67
:1002100017EB00094E41201EA4F10104DFDC484623
:1002200031462A46434600F000B830BCBDE8C09FC6
:1002300040EA01039B0703D009E008C9121F08C068
:10024000042AFAD203E011F8013B00F8013B521EE8
:10025000F9D27047D2B201E000F8012B491EFBD25F
:1002600070470022F6E710B513460A4604461946C1
:10027000FFF7F0FF204610BD30B505462A460B4675
:1002800012F8010B13F8014B08B1A042F8D01CB1D1
:10029000002802D06D1CF1E7284630BD10B5044699
:1002A00004E00B7800F8013B03B1491C521EF8D260
:1002B000204610BD421C10F8011B0029FBD1801AFA
:1002C0007047000070B50F4D00B92868002412E097
:1002D0000A4602E09E4203D0521C1378002BF9D14B
:1002E000DAB2224305D02BB124B1002100F8011B62
:1002F00004E00446401C0678002EE9D12860204620
:1003000070BD0000880000202DE9FE4F804681EA84
:100310000300C00F0C46009021F0004123F000457F
:10032000B8EB0200A94105D24046214690461C4642
:100330000B46024623F00040104347D0270DC7F379
:100340000A00C3F30A510290401A019040286BDA68
:10035000C3F3130040F4801B0098924620B10023A1
:10036000D2EB030A63EB0B0B01985946C0F1400234
:10037000504600F050F906460D4650465946019A3F
:1003800000F068F910EB08006141002487EA11527F
:1003900084EAE7731A4340D0009A62B3019A012AB3
:1003A0004FEA075215DC001B61EB02014FF00042DF
:1003B00002EA0752CDE90042001C41F580113246A5
:1003C0002B4600F0EDF903B000F045B84046214659
:1003D000F9E7001B61EB0201001C41F580130018D6
:1003E0005B412018A2F5001747EB030140EAD570E6
:1003F000B6196D4111E06D084FEA360645EAC07541
:100400004FEA0752001B61EB0201001C41F580110D
:1004100049084FEA30000019514132462B4603B0DB
:1004200000F01CB800F0ADB9009801224000002394
:10043000D0EB020263EBE073009821464FEAE074D0
:10044000B8EB000061EB0401E9E783F000435BE7F0
:1004500081F0004158E730BCBDE8C08F30BCBDE83A
:10046000C04FFFF7DFBF2DE9FE4F81EA030404F020
:10047000004421F0004100944FF0000B23F00043B2
:1004800050EA01045ED052EA03045BD0C3F30A547D
:10049000C1F30A552C44A4F2F3340194A0FB025496
:1004A000C1F3130141F48011C3F3130343F4801328
:1004B00001FB024400FB034E840A970A44EA81547C
:1004C00047EA8357A4FB076802958D0A05FB078559
:1004D0004FEA932C04FB0C542705029D4FEA065863
:1004E00047EA1637B5EB08056EEB070C870E920E40
:1004F00047EA811742EA8312A7FB0201B6EB0B0120
:1005000064EB00042B0D43EA0C335E1844EB1C50E3
:10051000DA465146E7FB0201C5F313044FEA0B33F9
:1005200043EA14534FEA0432019C43EA0603A4F160
:100530000C040294009CCDE900B400F031F903B042
:1005400000F003B800200146F9E730BCBDE8C08FD9
:100550000EB5C10F80EAE0700844CA07002140F2DE
:1005600033438DE80E000A460B4600F019F903B03C
:1005700000BD0EB540F2334102910021CDE90011DA
:100580000A460B4600F00CF903B000BD00F0004233
:1005900030F000400AD0C10D01F56071C0F31600C3
:1005A00042EA0151C208400711437047002001464A
:1005B000704701F0004330B421F0004150EA0102DD
:1005C00006D00A0DA2F56072C1F31301002A02DC05
:1005D00030BC00207047440F44EAC104C100E01859
:1005E00030BC00EBC25000F095B830B50B46014668
:1005F00000202022012409E021FA02F59D4205D3C2
:1006000003FA02F5491B04FA02F52844151EA2F16B
:100610000102F1DC30BD202A04DB203A00FA02F1AD
:10062000002070479140C2F1200320FA03F31943E0
:1006300090407047202A04DB203A21FA02F0002182
:10064000704721FA02F3D040C2F1200291400843E2
:1006500019467047202A06DBCB17203A41FA02F0F0
:1006600043EAE07306E041FA02F3D040C2F120020F
:1006700091400843194670470FB4002300B589B074
:100680000CA900910B996FF00042CB601E4B0693B2
:100690001E4B07930423CDE901321D4A08920246FE
:1006A0006B46002000F066FA09B05DF814FB70B5E7
:1006B00086B006464FF0FF300091CDE901010020E1
:1006C00015460C4604903246694604A8FFF7D4FF4D
:1006D00002460498211825B108B1084600E02046DA
:1006E0002860049800280DD0002A02DD0098884276
:1006F00008D0081B0094CDE901043246694604A8DD
:10070000FFF7BAFF06B070BDB30D0008D10D0008A9
:10071000410A00080029A8BF7047401C490008BFD3
:1007200020F00100704710B4B0FA80FC00FA0CF021
:1007300050EA010404BF10BC704749B1CCF1200459
:1007400021FA04F411FA0CF118BF012121430843E6
:10075000A3EB0C01CB1D4FEA00614FEA102042BF12
:10076000002010BC704700EBC35010440029A4BF08
:1007700010BC7047401C490008BF20F0010010BCAD
:10078000704710B5141E73F1000408DA401C41F1E3
:10079000000192185B411A4301D120F0010010BD05
:1007A0002DE9F04D92469B4611B1B1FA81F202E07B
:1007B000B0FA80F220329046FFF72DFF04460F4634
:1007C00040EA0A0041EA0B0153465A46084313D057
:1007D000114653EA010019D0C8F140025046FFF714
:1007E00029FF05460E46504659464246FFF713FF7D
:1007F000084305D0012004E020463946BDE8F08DCD
:100800000020054346EAE0762C4337430A98630507
:10081000E40AA0EB08000022FD0A44EA47540A302B
:1008200002D500200146E9E7010510196941DDE91B
:10083000084500196941BDE8F04DA2E72DE9F04DEA
:1008400081EA030404F0004B21F0004514464FF008
:10085000000A23F0004150EA050220D054EA0102C8
:100860001DD0C5F30A570246C5F31303C1F31300A5
:10087000C1F30A5640F4801543F48013A7EB060831
:10088000101BD64608F2FD3873EB050002D308F1C1
:10089000010801E092185B41B8F1000F03DA002073
:1008A0000146BDE8F08D00204FF4801106468446D5
:1008B0000EE0171B73EB050705D3121B63EB050353
:1008C00006434CEA010C49084FEA300092185B419C
:1008D00050EA0107EDD152EA030012D082EA040087
:1008E00083EA0501084305D0101BAB4106D2012263
:1008F000002306E000224FF0004302E06FF0010207
:1009000053101AEB06004CEB085110EB0A0041EBB8
:100910000B01BDE8F04DFFF734BF2DE9F04D00238A
:100920001A461B1A8A4103DB00200146BDE8F08D00
:10093000C1F30A52C1F3130141F480154FF0000BCB
:10094000D10702D100186D41521E0027044640F223
:10095000FF11384601EB620A3E46804602460020FF
:100960004FF48011FFF766FEC2197141BB1846EBC8
:100970000100B4EB030C75EB000C04D3E41A65EB37
:10098000000517460E46241908F101006D41804606
:100990003428E3DDF91946EB0600091BA84103D210
:1009A0004FF0FF32134601E0002213461BEB070015
:1009B00046EB0A51BDE8F04DFFF7E3BEC1F30A5222
:1009C000C1F3130140F2FF3341F480119A4202DA7D
:1009D00000200146704740F233439A42A2F233426C
:1009E00002DC5242FFF726BEFFF715BE30B5041EEB
:1009F00071F1000404DB4FF00044404264EB01015C
:100A0000141E73F1000405DB1C464FF000435242F4
:100A100063EB0403994208BF904230BD064C074D7A
:100A200006E0E06840F0010394E8070098471034BE
:100A3000AC42F6D3FFF7AEFB4C7300086C730008B2
:100A4000C0B24FF4F05100F0D5B900002DE9FF4FCE
:100A5000087883B09946FF2805D0491C2D2804D07A
:100A60000024002008E000200BE00124F9E700EB5F
:100A7000800003EB4000491C0B78FF2BF7D104B139
:100A8000404200230293147819461D462D2C01D0B4
:100A90002B2C04D1521C2D2C13D000240294AA46D6
:100AA0001478FF2C0FD00A25A3FB057801FB0581E4
:100AB0004FF0000C03FB0C11521CE3194AEB01012F
:100AC000EEE70124EAE7814453EA010002D019F578
:100AD000C87F06DA03980021C0E9001107B000F0D2
:100AE00065B90025AE4E2F46DFF8B882184600F0F3
:100AF00095F9CDE90001B9F1000002DAC9F100046D
:100B000000E004460023A74A1AEB030B42EB045A09
:100B100012E0E00707D02A46334638464146FFF741
:100B2000A2FC074688462A46334610461946FFF778
:100B30009AFC05460E466410002CEAD1DDE900015E
:100B4000B9F1000F5A46534606DAFFF777FE3A46E8
:100B50004346FFF773FE05E0FFF785FC3A46434640
:100B6000FFF781FC029A0AB181F00041039AC2E9C1
:100B70000001B3E72DE9FF4F1F468DB0D7E90146CD
:100B80004FF0FF382E2045464FF000090B90B96911
:100B90006D1C0E988847396A824688470028F6D12E
:100BA000BAF1FF3F0AD024F4D064002E11DDBAF16F
:100BB0002B0F08D0BAF12D0F0BD102E0404611B037
:100BC0008DE744F48064B9696D1C0E9888478246AD
:100BD000761E6946600501D52D2000E02B208DF89A
:100BE000000001F1010B0DF1200809E0B9696D1C4D
:100BF0000E98884782460F9844F40074761E05606C
:100C0000002E02DDBAF1300FF0D00B998A453ED1AB
:100C100044F0800406E00F99681CA9F1010944F42E
:100C200000740860B9696D1C761E0E98884782466C
:100C30003028F0D02BE00B998A4505D1200603D44B
:100C400044F08004761E18E0504605F020FC08B3FE
:100C50000DF11301761E44F400748B4508D2AAF1FD
:100C600030000BF8010B200607D5A9F1010003E0C5
:100C7000200602D409F101008146A00502D50F9992
:100C8000681C0860B9696D1C0E9888478246002E62
:100C9000D1DC53E0002E51DDBAF1650F02D0BAF17C
:100CA000450F4BD1A00549D5B9696D1C24F440749A
:100CB000761E0E9888478246002E0CDD2B2804D025
:100CC000BAF12D0F07D144F48074B9696D1C0E98E8
:100CD00088478246761EE00501D52D2100E02B21B4
:100CE00008F8011BCDF82C8021E00DF12901761EBA
:100CF00044F4007488450CD2AAF1300010F0FF00D3
:100D000088F8000002D10B99884509D908F101083B
:100D100006E0E00501D5244801E042F20F7081466B
:100D2000B9696D1C0E98884782460F980560002EA1
:100D300004DD504605F0ABFB0028D6D1F9690E98CA
:100D40008847FF208BF8000088F8000000200690FC
:100D500007904B466A4608A906A8FFF777FEA0054C
:100D600002D46FF001002AE714F0240F0AD0E00744
:100D700014D1DDE906123868031D3B600068C0E944
:100D800000120BE0DDE90601FFF713FC0146E00766
:100D900004D13868021D3A600068016028460EE7F9
:100DA000000014400000F03FF1D8FFFF30BCBDE868
:100DB000C08F426842B1016811F8013B23B1521E55
:100DC000C0E90012184670470121C160881E7047B3
:100DD00042685AB1C368016843B983688B4205D041
:100DE000491E521CC0E90012002070474FF0FF302E
:100DF000704700007F2801D9002208E0064A02EB74
:100E00005002C007127800D1120902F00F0201202F
:100E10009040084070470000C07200080EB540F2D4
:100E2000334202920022CDE900221346FFF7B8FCBC
:100E300003B000BD3EB505004FF0000002900090E9
:100E4000019026D0294606F03CF8002820D12946FA
:100E500002A805F0CBFE00281AD101248DF80A4023
:100E6000294602A805F0F6FF002811D18DF80040B0
:100E70008DF801408DF802408DF803402946684600
:100E800005F09AFF002803D12946032006F019F83F
:100E90003EBD4FF0FF303EBD3EB505004FF00000B7
:100EA0000C4601900290009016D0ACB129466846DD
:100EB00005F09CFE00280ED12A46694601A805F0DF
:100EC0002DFF002807D19DED010A84ED000A9DED5C
:100ED000020A84ED010A3EBD4FF0FF303EBD000026
:100EE00058B101214175064981600649C160064932
:100EF000016100214160084670474FF0FF307047A4
:100F00007D100008A11000085510000810B5044914
:100F1000044800F077F908B1002010BD012010BD91
:100F2000440000209400002010B5040017D00246B1
:100F30000E490F4800F016F998B10E492068884212
:100F400002D80D49884208DDFFF720FB41EC100B69
:100F50000AA053EC102B05F03DF9002010BD032032
:100F600010BD12A005F036F9022010BD440000208B
:100F7000940000200000CEC2000019435B543131C0
:100F8000375D2052656164205761726E3A20546566
:100F90006D70206F7574206F662072616E676520BA
:100FA00028252E3466A1E6290D0A00005B54313154
:100FB000375D2052656164204572723A2043524386
:100FC000206661696C6564206F7220493243206538
:100FD00072726F720D0A000010B500F0CBF900F0CC
:100FE00017FABDE81040002000F0CCB92DE9F0411F
:100FF000FEB01C4615000E46804604D01CB14FF4CE
:101000008077BC4203D902207EB0BDE8F081002089
:1010100000F0B8F939466846FFF723F92246294619
:101020006846FFF705F9FF2C01D90120ECE7F42110
:1010300040A8FFF716F92246694640A8FFF7F8F8DE
:10104000ADF8F04140AA3146404600F0C3F9002017
:10105000DAE7000010B54FF0E0239A690549064C25
:101060000968B1FBF4F141439869101A8842FBD337
:1010700010BD00002000002040420F000EB5642388
:1010800092B28DE80E00024601238E21034801F042
:10109000B3FC002801D06FF001000EBD94000020C9
:1010A0000EB5642392B28DE80E00024601238E2114
:1010B000034801F057FD002801D06FF001000EBD7C
:1010C0009400002010B50D48FFF70AFF010003D07F
:1010D0000BA005F07FF802E00FA005F07BF80748B1
:1010E000FFF7A8FE040004D0014611A005F072F835
:1010F00002E014A005F06EF8204610BD6018002034
:10110000424D5035383020496E6974204661696C13
:1011100065642025640D0A00424D50353830204961
:101120006E697420537563636573730D0A00000064
:10113000436F6E666967204661696C65642025644B
:101140000D0A0000424D5035383020436F6E6669FD
:101150006720537563636573730D0A00032100F004
:1011600080B800002DE9FC4115460C46A0B39CB3A5
:1011700095B3064600208DF804006427012301AAD8
:1011800080213046009701F08DFB28BB03232246C7
:1011900081213046009701F0EFFAE8B9002022469D
:1011A0005FF0010612F8013B5FF0000180EA0307DF
:1011B000FF0705D080F01800400840F0800000E0F4
:1011C0004008491C5B08C9B20829EFD3761EF6B265
:1011D000E8D2A178814202D00020BDE8FC81B4F9B8
:1011E00000009FED071A00EE100A0120F8EEC00A79
:1011F000B3EE090A00EE810A85ED000AEDE7000072
:101200000000803B38B50C46050028D03CB300F008
:1012100076F8002822D0322001F032F800208DF834
:1012200000006A4621462846FFF798FF002815D09F
:10123000C0222146284600F046F800280ED0082299
:101240002146284600F026F8002807D00122214632
:10125000284600F03BF8002800D0012038BD0020CF
:1012600038BD77B581B0154664240646012302AA2D
:101270008021009401F016FB38B901232A46812110
:101280003046009401F078FA10B1002004B070BD2F
:101290000120FBE738B50546002014468DF8000014
:1012A0006A4605212846FFF7DCFF00280AD09DF892
:1012B0000000052120F0180222438DF80020284666
:1012C00000F021F838BD042100F01DB838B50546FE
:1012D000002014468DF800006A4605212846FFF7D5
:1012E000C0FF00280AD09DF80000052120F001026F
:1012F00022438DF80020284600F005F838BD6A2208
:101300001721AFF300801CB502238DF8041064216F
:101310008DF80520009101AA802101F0C3FA08B1DF
:1013200000201CBD01201CBDFEE70000014800F0AC
:10133000A1BE00006C030020014800F09BBE00002D
:101340002403002030B590F8444004F01C0501242B
:10135000AC40056C6C60046863608368102B0368A4
:1013600003D099600068C26030BD9A600068C160B7
:1013700030BD704702480021017041708170704794
:101380002404002070B5054604F042FE104C35B12F
:10139000012D06D0022D12D0032D0CD111E0002218
:1013A00000E001220121204601F00EF90022022175
:1013B000204601F009F9BDE8704004F029BE002282
:1013C00000E001220121204601F0FEF80122EEE7B3
:1013D00000040048134610B50B4A040A14705070FC
:1013E0009170B3F8F040084822461946C01CFEF739
:1013F0001FFF04F00DFEE41CA2B2BDE8104002493C
:10140000024803F0C9B80000101700209C02002019
:1014100006484178C1EBC102C2EBC11100EB4101AA
:10142000F0220348091D02F05CBD000024040020E6
:101430009C02002070B501F0CDF81D4B40F2DE3566
:1014400020221968441A1B49AC4205D20A60086878
:1014500040F02000086070BD186008688006FAD56A
:101460000A60086840F0200008600A6003F044FF4A
:1014700011488178491CC9B281703C2912D30021DE
:1014800081704278521CD2B242703C2A0AD3417019
:101490000278521CD2B20270182A03D30170C178AC
:1014A000491CC170BDE87040034803F055BF0000FF
:1014B0000000002014040140080000202DE9FC4138
:1014C000414C01254FF000086078052879D2DFE80B
:1014D00000F0030727404F0001F07CF8206110E086
:1014E00001F078F82169401A0A280BD96846FFF7FD
:1014F0001BFD010008D0354803F092F9052000F0EB
:10150000BFFE6570BDE8FC8131A004F063FE9DED77
:10151000000A84ED0A0A01F05DF82061022016E05D
:1015200001F058F82169401A0A28EBD901A9684648
:1015300003F0CAFF38B99DED000A84ED080A9DED5D
:10154000010A84ED090A01F045F82061032060706A
:10155000D8E701F03FF82169401A0A28D2D9234977
:101560002348FFF799FC01F035F820610420EEE7ED
:1015700065712048676A87420ED81F4887420BDC96
:101580003846E762FFF702F841EC100B1BA053EC62
:10159000102B04F01FFE11E0A06AE062FEF7F6FFD8
:1015A00005460E463846FEF7F1FF41EC100BCDE93B
:1015B000005653EC102B1C4804F00CFE1BA004F04A
:1015C00009FE84F801809DE7480000209400002077
:1015D0005431313720526561642054656D7020525A
:1015E0006573756C743A2025640D0A003C00002078
:1015F00060180020000020C20000FA4255736520E8
:1016000053485434302074656D706572617475721E
:10161000652028696E2072616E6765293A20252E43
:101620003266A1E3430D0A0000730008456E766937
:10163000726F6E6D656E74204461746120436F6CCF
:101640006C656374696F6E20436F6D706C65746553
:101650000D0A000070B500252C460D4803F0E0F897
:10166000FFF754FC00B10124052000F009FE03F04F
:1016700003FF00B1641C052000F002FEFFF722FD0D
:1016800000B1641C0CB14FF0FF35284670BD00005E
:101690009400002072B6FEE72DE9F05F914D00271F
:1016A0002DED048B0126A87810B101287ED108E029
:1016B00000F090FF6861AE702F63BDEC048B00F00A
:1016C00041B900F087FF696BDFF81C82401AB0F562
:1016D000FA6F05D300F07EFF6863286B401C286317
:1016E000DFF808B29BF800009FED818B9FED829A96
:1016F000DFF80892824C00287ED0B8F800100A2942
:101700007AD9804AC24680A004F064FD8BF800704C
:10171000B846BAF800107B4800F064F9012803D1FC
:101720007E4F787C412822D084F8208084ED008B85
:1017300084ED028B84ED049A84F81A80474684ED88
:10174000079A03F0D9FD00287ED099F80010217582
:1017500099F80110617599F80210A17599F80310B4
:10176000E17599F80410217699F8050076E06B4947
:101770006A480A318B4603F025FE08B103F0BAFD32
:101780007869FEF703FFC4E90001B869FEF7FEFEC1
:101790009FED630AC4E9020184ED040A84F8206025
:1017A0005E48FEF787FD6FF02F0900E098E00628FD
:1017B00025D338787978303800EB800209EB420283
:1017C0001144BA78FB78303A02EB820209EB42020C
:1017D0001A443B7997F805C0303B03EB830309EBD0
:1017E00043006044C3B20831C8B2D2B2182801D352
:1017F0001838C0B2207500E041E06275A375584604
:10180000FEF758FD06281AD3B87AF97A303800EB7B
:10181000800209EB42021144E175397B7A7B303951
:1018200001EB810109EB410111442176B97BFA7B7F
:10183000303901EB810109EB4100104460760B2047
:10184000A07697ED080A00E002E084ED070A06E0C2
:1018500027756775A775E675267618206076444665
:10186000AAF8008050212748FEF7FBFCAE71AC704F
:101870002CA0BDEC048B00F068B804F0ABBC00F009
:10188000A9FE6969401A4EF6602188427FF615AFBD
:1018900084F8207084ED008B84ED028B84ED049A33
:1018A000A77684ED079A03F027FD88B199F8001018
:1018B000217599F80110617599F80210A17599F8D0
:1018C0000310E17599F80410217699F8050005E0F8
:1018D00027756775A775E675267618206076AE7150
:1018E000AF70EAE648000020060000200400002057
:1018F00000000000000000000000000008000020C0
:10190000181900203C010020475053CDEAD5FBCAEE
:10191000FDBEDD3A20252E2A730D0A000018002096
:1019200068B1EC43475053204461746120436F6CAD
:101930006C656374696F6E20436F6D706C65746560
:101940000D0A000030BCBDE8C09F30BCBDE8C05FE0
:10195000FFF793BF10B52C210348FEF782FC024924
:10196000002081F8280010BD00180020FFF7F2BF0A
:1019700010B504002DED028B9FED178A03D0FEF702
:1019800099FC052804D2B0EE480ABDEC028B10BDCC
:10199000204604F041FC51EC100BFEF70AFE00EE6D
:1019A000100ADFED0E0A642180EE201AFDEEC10A56
:1019B0009FED0B1A10EE900A414300EE901AF8EEDC
:1019C000E00A30EE600AC0EE010A00EE100AB8EE3E
:1019D000C00A30EE800AD8E7000000000000C842CC
:1019E0000000704230B58FB00C460546FFF7B2FFDD
:1019F00015B30A2C20D33AA12846FEF73DFC05007A
:101A00001AD03C216846FEF72CFC002436A128465B
:101A1000FEF758FC00906D465DF8240007E0641C5A
:101A2000E4B231A10020FEF74DFC45F8240008B1D6
:101A30000E2CF4D30A2C02D200200FB030BD2B4C58
:101A40000198002528B1014609222046FEF726FC10
:101A500065720298E8B30078607441283CD103981D
:101A600018B1FFF785FF84ED050A049808B10078E6
:101A7000A074059818B1FFF77BFF84ED060A06985D
:101A800008B10078E074079878B104F0C5FB51EC18
:101A9000100BFEF78EFD00EE100ADFED150A84ED47
:101AA000070A20EE200A84ED080A089830B104F0F5
:101AB000B3FB51EC100BFEF77CFD6062099830B16E
:101AC00001460A4806220A30FEF7E8FB2574012089
:101AD00000E001E084F8280094F82800ADE7000059
:101AE00024474E524D4300002C0D0A0000180020E0
:101AF000560EED3F70B5354C0125E07818B1002643
:101B0000012861D104E000F065FDA061E57070BDC1
:101B100000F060FDA169401AC828F8D92C4800F0EF
:101B2000B7F9002850D12A482A49D0F806200A607F
:101B3000D0F80A204A60D0F80E208A608269CA6014
:101B4000C2690A61026A4A61B0F93D2000EE102ABA
:101B5000F8EEC00A9FED200A60EE800AC1ED060A89
:101B6000B0F93F2000EE902AF8EEE00A60EE800A1D
:101B7000C1ED070AB0F9412000EE902AF8EEE00A24
:101B800020EE800A81ED080AD0F82A204A62D0F8B7
:101B90002E208A62D0F83220CA62D0F843200A632D
:101BA000D0F847204A63D0F84B208A63D0F84F2002
:101BB000CA63D0F839200A6490F8360081F84400EE
:101BC000E57106A004F006FBE67070BD4800002039
:101BD00078180020D01800206F12833A4759393501
:101BE00054204461746120436F6C6C656374696F49
:101BF0006E20436F6D706C6574650D0A0000000007
:101C000070B500240A2000F03BFB572000F027F8B5
:101C100078B101244FF47A7000F032FB582000F0C4
:101C20001EF870B101245521052000F0C3F92046AB
:101C300070BD02250A2000F023FB6D1E002DF9DC8B
:101C4000E8E705250A2000F01BFB6D1E002DF9DCDE
:101C5000592000F004F85A2000F001F8E3E7572873
:101C600007D0582805D0592803D05A2801D0012080
:101C700070470146052000F09DB9000030F9061BB1
:101C800000EE101AF8EEC00A9FED390A60EE800AE5
:101C900010EE901A40F80419B0F9001000EE901AF6
:101CA000F8EEE00A60EE800A10EE901A8160B0F95A
:101CB000021000EE901AF8EEE00A20EE800A10EE14
:101CC000101AC160B0F9101000EE101AB8EEC01A68
:101CD0009FED280AC1EE000A10EE901AC0F8161007
:101CE000B0F9121000EE901AB8EEE01AC1EE000A38
:101CF00010EE901AC0F81A10B0F9141000EE901AF5
:101D0000B8EEE01AC1EE000A10EE901AC0F81E10EC
:101D1000B0F9221000EE101AB8EEC01A9FED160AA4
:101D2000C1EE000A10EE901A8162B0F9241000EEA4
:101D3000901AB8EEE01AC1EE000A10EE901AC162D5
:101D4000B0F9261000EE901AB8EEE01AC1EE000AC3
:101D500010EE901A0163B0F9351000EE901AB8EE4B
:101D6000E01AC1EE000A10EE901AC0F83710704762
:101D70000000003A333383410000C84210B501200F
:101D800000F024F8032201231146104600F002F966
:101D9000002814D10321022000F00CF900280ED1F4
:101DA0000021032000F006F9040008D1FFF728FF06
:101DB00030B101245521052000F0FCF8204610BD6B
:101DC000014800F065F8F5E77818002010B50446E2
:101DD0001E2000F055FA032C00D903242146BDE84B
:101DE0001040022000F0E6B810B50446D0F84300D9
:101DF00000EE100AD4F8470020EE000A00EE900A28
:101E0000D4F84B0000EEA00A00EE900AD4F84F0080
:101E100000EEA00A00EE900A00EEA00A10EE100AF2
:101E2000FEF7B4FB41EC100B04F012FA51EC100B6E
:101E3000FEF7BFFB00EE100A144910EE100A8842AC
:101E400001DAB7EE000A54F8430F00EE900A80EE74
:101E5000801A11EE100A2060606800EE900A80EE91
:101E6000801A11EE100A6060A06800EE900A80EE01
:101E7000801A11EE100AA060E06800EE900A80EE71
:101E8000801A11EE100AE06010BD000017B7D138BB
:101E900010B58CB00446242103A8FEF7E2F96422B1
:101EA000232103A88DE8070001230822A421374835
:101EB00000F0A2FD002867D1BDF80C002080BDF81D
:101EC0000E006080BDF81000A080BDF81200608296
:101ED000BDF81400A082BDF81600E082BDF818001D
:101EE000A084BDF81A00E084BDF81C0020859DF890
:101EF0001E0084F83600BDF81F00A4F83700BDF8B6
:101F00002100A4F83D00BDF82300A4F83F00BDF86F
:101F10002500A4F84100BDF92720BDF9291000EEE5
:101F2000102ABDF92B00BDF92D30B8EEC01A9FED77
:101F3000180AC1EE000A10EE902A00EE901AC4F8BA
:101F40004320B8EEE01AC1EE000A10EE901A00EE3F
:101F5000900AC4F84710B8EEE01AC1EE000A10EE7D
:101F6000900A00EE903AC4F84B00B8EEE01AC1EEC9
:101F7000000A10EE900AC4F84F002046FFF734FF25
:101F80002046FFF77BFE00200CB010BDE8000020CB
:101F900000401C4600F0030002F0030240EA820009
:101FA00003F0010240EA821040EAC110C1B20720EA
:101FB000AFF3008003B583B06423012204A98DE848
:101FC0000E0013460246A421024800F0CBFD05B0E6
:101FD00000BD0000E800002010B540B190F82510C9
:101FE0000022022905D00421C16380F824200120A9
:101FF00010BD01680B6823F001030B6001680B68DA
:1020000023F00E030B6090F84410046C01F01C03E5
:10201000012101FA03F3636080F8251080F8242081
:10202000002010BD10B590F825100024022903D01F
:102030000421C16301241AE001680A6822F0010248
:102040000A6001680A6822F00E020A6090F84410E3
:10205000036C01F01C02012101FA02F25A6080F8BF
:102060002510002180F82410816B01B1884720469B
:1020700010BD0000F0B4016C0D6801680C6890F8A8
:10208000442002F01C06042202FA06F32B4211D06F
:1020900063070FD50B689B0603D40B6823F004037A
:1020A0000B6090F8441001F01C018A40016C4A60FA
:1020B000016B26E0022202FA06F72F424FF0000CD5
:1020C0004FF0010321D0A7071FD50C68A40605D443
:1020D0000C6824F00A040C6080F82530184B016865
:1020E000994290F8441001F01C0102FA01F202D961
:1020F00014490A6002E0124980394A6080F824C01D
:10210000C16A00291AD0F0BC08470822B2402A420E
:1021100014D0220712D50A6822F00E020A6090F845
:102120004410026C01F01C0103FA01F15160C36319
:1021300080F8253080F824C0416BE2E7F0BC70479E
:10214000800002400404024010B568B12C4C0268C3
:1021500014232C49A24209D22B4C1444B4FBF3F3B0
:102160009B00C0E910130BE0012010BD244C644219
:102170001444B4FBF3F39B004364214B083B03641A
:10218000022380F82530136847F6F074A3431360E8
:10219000D0E902231A43D0E9043423431A43836964
:1021A0001A43C3691A43036A1A4303681C6822432B
:1021B0001A608268B2F5804F19D0036C0F228B42EF
:1021C00002D151F8A83F02E00D49A0310B6890F808
:1021D000444004F01C04A24093430B6090F8443048
:1021E000426803F01C039A400B681A430A600021FE
:1021F000C163012280F8252080F82410084610BD14
:102200000804024000000240F8FFFDBF70B504461C
:1022100090F82400002501280ED0012084F8240025
:1022200094F825600020012E08D08021E16384F815
:1022300024000125284670BD022070BD022684F8C6
:102240002560E0632068066826F0010606602046E7
:10225000FFF778F8206B00282068016802D041F071
:102260000E0106E021F0040101602068016841F0E0
:102270000A0101602068016841F001010160D9E7AD
:1022800070B5044600F0A6F90546601C02D004486B
:102290000078044400F09EF9401BA042FAD370BDC0
:1022A000140000202DE9F84F00230126DFF818C1A3
:1022B0000F2782E006FA03F414EA01027CD023F02F
:1022C00003056544AA46D5F808909D074FEA157E98
:1022D00007FA0EF505EA090B0095B0F1904F05D00D
:1022E0003A4DA84205D14FF0010816E04FF0000822
:1022F00013E0374DA84202D14FF002080DE0354DF2
:10230000A84202D14FF0030807E0334DA84202D1A2
:102310004FF0040801E04FF0070808FA0EF8D8451E
:1023200026D1DFF8B880D8F8009029EA0209C8F869
:10233000009008F10408D8F8009029EA0209C8F8CA
:102340000090DFF8988008F10C08D8F8009029EA8E
:102350000209C8F80090A8F10408D8F80050954385
:10236000C8F80050009DDAF80820AA43CAF80820EF
:10237000D0F800804FEA4309032202FA09F248EA42
:102380000208C0F80080DD0800EB8505AA46D5F8F4
:1023900020804FEA43794FEAD96907FA09F528EA1C
:1023A0000508CAF820808568954385604568A5437F
:1023B0004560C4689443C4605B1C31FA03F27FF447
:1023C00079AF00F00DB800000000014000040048A3
:1023D00000080048000C00480010004800040140BC
:1023E00018BCBDE8E08F00002DE9F04FDFF8AC919C
:1023F00000230325A9F1040B85B04FF0010C0F2732
:1024000009F1040AABF1040EBFE000BF0CFA03F6B9
:10241000324075D00C7904F00304012C01D0022C59
:102420001BD1846800945C0005FA04F80494009CB5
:1024300024EA08040094D1F80C80049C08FA04F8FB
:10244000009C48EA0408C0F808804468B4430E7948
:10245000C6F300169E40264346600C79E443A40769
:102460000AD0C4684FEA430805FA08F6B4438E68F8
:1024700006FA08F62643C6600C7904F00304022C21
:1024800010D1DC0800EB84040294246A5E074FEA52
:10249000D66807FA08F6B4430E6906FA08F626432A
:1024A000029C266204684FEA430805FA08F6B44322
:1024B0000E7906F0030606FA08F6264306604C6815
:1024C00014F4403F60D0364C266E46F00106266676
:1024D000246E23F0030604F001040094314C3444CC
:1024E0000294A4689E074FEA167807FA08F6B443E8
:1024F000B0F1904F05D02C4EB04204D1012612E02D
:1025000042E000260FE0294EB04201D102260AE047
:10251000274EB04201D1032605E0264EB04201D13C
:10252000042600E0072606FA08F62643029CA66069
:10253000D9F800604C46D1F8048096435FEAC82879
:1025400000D516432660DAF800405646D1F80480DC
:1025500094435FEA882800D514433460DBF80040D8
:102560005E46D1F8048094435FEA883800D514436E
:102570003460DEF800407646D1F8048094435FEA88
:10258000C83800D5144334605B1C0A6832FA03F47F
:102590007FF43CAF05B000F00FB800000804014024
:1025A00000100240000001400004004800080048FC
:1025B000000C00480010004830BCBDE8C08F006926
:1025C000084000D0012070470AB1816170478162E4
:1025D0007047000001488068704700001400002028
:1025E00090F84120202A24D190F84020012A20D0C0
:1025F000012280F84020242280F8412002681368DC
:1026000023F0010313600268136823F480531360FE
:10261000026813680B43136001680A6842F0010204
:102620000A60202180F84110002180F840100846FF
:1026300070470220704790F84120202A22D190F85C
:102640004020012A1ED0012280F84020242280F858
:1026500041200268136823F00103136002681368C5
:1026600023F4706343EA0121116001680A6842F0B3
:1026700001020A60202180F84110002180F84010FA
:10268000084670470220704710B5040013D024207C
:1026900084F841002068016821F0010101602046B2
:1026A00000F010FB0020606484F8410044F8300F13
:1026B000A074207410BD012010BD000070B504008E
:1026C00004D094F84100002510B106E0012070BD4F
:1026D00084F84050204600F023FB242084F8410079
:1026E0002068016821F0010101606068216820F024
:1026F000706008612068816821F400418160E068B1
:102700000128A06830D040F4044021688860E06867
:102710000228206841682AD021F4006141602068C5
:102720004168144A114341602068C16821F40041A6
:10273000C160D4E904010843A16940EA012021688D
:10274000C860D4E90701084321680860206801686F
:1027500041F0010101606564202084F84100256397
:1027600084F84250002070BD40F40040CDE741F4B1
:102770000061D3E7008000022DE9F84F044690F88D
:102780004100DDF828A0984691468B4620287ED14E
:1027900094F8400001287AD0012784F84070FFF7B0
:1027A00019FF0646012200901923D103204602F0AA
:1027B0005FF8E0BB222084F84100102084F842003A
:1027C00000256564C4F82490A4F82A806563618DAF
:1027D00030484FF080784FF00079FF2903D92785E2
:1027E0003A46009039E0618D218500903AE05946E3
:1027F000204602F025F813E002F078F8B8B9206816
:10280000406A616A0870606A401C6062208D401EE8
:1028100080B22085618D491E6185618D01B168B1ED
:10282000608D3246002851462046E5D100E002E0A6
:1028300002F0B0F8D0B1012000F030B853460022C9
:1028400080212046009602F013F80028F3D1608D15
:10285000FF2804D9FF22228500954346C7E7608DF3
:102860002085009594F828204B46C0E72168202059
:10287000C86121684A68084B1A404A6084F84100E0
:1028800084F8425084F840500020D5E7FFE702204A
:10289000D2E700000024008000E800FE18BCBDE87C
:1028A000E08F00002DE9FF4F81B0044690F8410011
:1028B000DDF838B01F46904620287BD194F84000C0
:1028C000012877D0012084F84000FFF783FE0646F8
:1028D000012200901923D103204601F0C9FF0028EE
:1028E00053D1212084F84100102084F842000025B3
:1028F0006564C4F8248067856563608D3A49FF2765
:102900004FF080794FF0007AFF2802D927854B4697
:1029100005E0608D208500045346000C10D022682D
:1029200098F800009062606A401C6062608D401EF2
:102930006085208D401E2085401CC2B2009101E0C0
:10294000002200912046029901F07AFF14E000BFB6
:1029500002F04BF8C8B9606A216800788862606A42
:10296000401C6062608D401E6085208D401E80B2DC
:102970002085618D01B160B1608D324600285946D5
:102980002046E5D102F006F8E0B1012005B000F0E4
:102990002FB85B46002280212046009601F068FF98
:1029A0000028F2D1608DFF2805D927853A464B468D
:1029B0000095C7E716E0608D2085009594F82820E3
:1029C0005346BFE721682020C86121684A68074B49
:1029D0001A404A6084F8410084F8425084F840501C
:1029E0000020D3E70220D1E70020008000E800FEAD
:1029F00030BCBDE8C08F00002DE9FF4F83B0044616
:102A0000DDE9108790F84100DDF848A09B462028BA
:102A100076D15FEA080015D0A7B194F840000128EC
:102A20006ED04FF0010984F84090FFF7D3FD0646C1
:102A3000012200901923D103204601F019FF00283C
:102A400072D103E04FF4007060646DE0222084F8DE
:102A50004100402084F8420000256564C4F82480C9
:102A600067856563CDE900A6DDE904125B46204673
:102A700001F072FE10B184F8405055E0618D354888
:102A80004FF080774FF00078FF2905D9A4F82890FF
:102A90004A463B46009005E0618D2185009094F800
:102AA000282043462046049901F0CAFE53460022DE
:102AB00004212046009601F0DBFEA8BB2068406A96
:102AC000616A0870606A401C6062208D401E81B29D
:102AD0002185608D401E6085608DE0B1D9B9534677
:102AE000002280212046009601F0C2FEE0B9608DF0
:102AF000FF2806D9A4F828904A463B46009506E0F0
:102B000026E0608D2085009594F8282043462046D5
:102B1000049901F095FE608D0028C7D132465146D8
:102B2000204601F037FF18B1012007B000F016B8B9
:102B300021682020C86121684A68074B1A404A6012
:102B400084F8410084F8425084F840500020ECE7BB
:102B50000220EAE70024008000E800FE30BCBDE867
:102B6000C08F00002DE9FF4F83B00446DDE91087D8
:102B700090F84100DDF848909A469346202871D19C
:102B80005FEA080014D09FB194F84000012869D092
:102B9000012084F84000FFF71DFD06460122009049
:102BA0001923D103204601F063FE00286ED103E013
:102BB0004FF40070606469E0212084F841004020F7
:102BC00084F8420000256564C4F824806785656345
:102BD000CDE9009653465A462046049901F0EEFD91
:102BE00010B184F8405051E0608DFF274FF080789D
:102BF0004FF0007AFF2804D927853A4643460095CE
:102C000005E0608D2085009594F8282053462046E5
:102C1000049901F015FE32464946204601F0E5FED2
:102C2000A0BB606A216800788862606A401C6062AC
:102C3000608D401E6085208D401E80B22085618D94
:102C4000D9B1D0B94B46002280212046009601F030
:102C50000FFED8B9608DFF2805D927853A4643462F
:102C6000009506E026E0608D2085009594F82820E8
:102C700053462046049901F0E3FD608D0028CAD137
:102C800032464946204601F085FE18B1012007B0C2
:102C900000F014B820682021C16120684268064B0A
:102CA0001A40426084F8411084F8425084F8405041
:102CB0000020ECE70220EAE700E800FE30BCBDE8B7
:102CC000C08F000010B50068114A1249124C9042A2
:102CD0000AD1886D20F48000886509152046FFF729
:102CE000E1FA4FF400610CE00C4A90420ED1886D7D
:102CF00020F40000886580214FF09040FFF7D2FA61
:102D000010212046BDE81040FFF7CCBA10BD0000EE
:102D1000005800400010024000040048005C0040E1
:102D20002DE9F04F9DB00446142117A8FDF799FA3C
:102D30005C216846FDF795FA374920688026374CB4
:102D40001227DFF8DCB000254FF003094FF0040A2A
:102D5000884222D1684600960D9500F035F908B1F9
:102D6000FEF798FCE06C40F00200E064E06C19AA09
:102D700000F002001C904FF44060CDE9170782E894
:102D8000200617A95846FFF72FFBA06D40F48000DE
:102D9000A065A06D00F4800039E02249884237D157
:102DA000801500900E95684600F00EF908B1FEF708
:102DB00071FCE06C40F00100E064E06C00F00100A8
:102DC0001C90E06C40F00200E064E06CCDE9176715
:102DD00000F00200CDE91BA0CDE91959B8464E46D6
:102DE000574617A94FF09040FFF7FEFA1020CDE9A3
:102DF000170819AA17A982E8E0005846FFF7F4FA65
:102E0000A06D40F40000A065A06D00F400001C90CF
:102E10001DB000F009B8000000580040001002404A
:102E200000040048005C004030BCBDE8C08F0000DA
:102E300002488168027811448160704714000020C4
:102E400010B50024032000F071F80F2000F008F8FE
:102E500008B1012401E000F025F8204610BD000073
:102E600070B50E4E05460024307898B14FF47A7153
:102E7000B1FBF0F00A490968B1FBF0F000F062FF25
:102E800040B9102D06D200222946501E00F02EF81F
:102E9000756000E00124204670BD00001400002091
:102EA00020000020094808B5016E41F001010166CB
:102EB000016E01F001010091816D41F08051816549
:102EC000806D00F08050009008BD000000100240AE
:102ED000002809DB00F01F02012191404009800019
:102EE00000F1E020C0F8001170470000F0B40E4B74
:102EF0001B680C46C3F30223C3F10705042D00D958
:102F00000425191D072901D2002300E0DB1E01263C
:102F100006FA05F1491E214099409E40761E164052
:102F20003143F0BC03F066B90CED00E0064900F057
:102F3000070208684FF6FF03184040EA0220034AE0
:102F400010430860704700000CED00E00000FA0537
:102F50001649B0F5007F0868C0F3412009D0022867
:102F600005D0086820F4C06040F48060086000204C
:102F700070470128FBD0086820F4C06040F400705E
:102F800008600B483222006850430A4AB0FBF2F056
:102F9000401C00E0401E4A69520501D50028F9D1C5
:102FA00048694005E3D503207047000000700040E9
:102FB0002000002040420F000248006800F4C0607A
:102FC00070470000007000402DE9F84F04460027CC
:102FD0000088A84D3E46000515D5606C60B1B0F57F
:102FE000000F04D0B0F5400F2BD001270AE0E868AD
:102FF00040F48030E86024E00021201D02F040F819
:1030000007001ED03E46206880033AD5A86D4FF0D9
:103010000008C00009D4A86D40F08050A865A86DD4
:103020004FF0010800F080500090DFF84CA2DAF871
:10303000001041F48071CAF80010FFF7CBFA814606
:1030400010E0D5F88800616C20F440000843C5F812
:103050008800D8E7FFF7BEFAA0EB0900022801D9E3
:10306000032705E0DAF80000C005F3D5002F7DD076
:103070004FEA0706B8F1000F03D0A86D20F080508A
:10308000A8652078C00707D0D5F88800216A20F00D
:1030900003000843C5F888002078800707D5D5F8D5
:1030A0008800616A20F00C000843C5F88800207889
:1030B000400707D5D5F88800A16A20F03000084302
:1030C000C5F888002078800607D5D5F88800E16A21
:1030D00020F440600843C5F888002088800507D5A3
:1030E000D5F88800E16B20F440200843C5F888003B
:1030F0002088400507D5D5F88800216C20F44010C1
:103100000843C5F888002078400607D5D5F8880020
:10311000216B20F440500843C5F888002078000651
:1031200007D5D5F88800616B20F440400843C5F806
:1031300088002088C00507D5D5F88800A16B20F449
:1031400040300843C5F8880020684FF0006700034E
:103150004FF0806850D5D5F88800A16C20F0406011
:103160000843C5F88800A06CB84200E005E03BD1F8
:10317000E86840F48010E8603EE0D5F8900010F474
:10318000407014D0A16D814211D0D5F89000D5F8CF
:10319000901020F4407041F48031C5F89010D5F8BB
:1031A000901021F48031C5F89010C5F89000C00748
:1031B00011D0FFF70FFA074641F2883907E000BF48
:1031C000FFF708FAC11B494501D9032652E7D5F894
:1031D00090008007F4D5D5F89000A16D20F44070E0
:1031E0000843C5F8900045E7404505D10121201D61
:1031F00001F046FF00B106462068400317D5D5F818
:103200008800E16C20F040600843C5F88800E06C5D
:10321000B84204D1E86840F48010E86007E0404517
:1032200005D10121201D01F02BFF00B106462088A9
:10323000400411D5D5F88800216D20F04050084396
:10324000C5F88800206DB0F1805F05D10221201DF6
:1032500001F016FF00B106462088000406D555F897
:10326000880F616D20F0804008432860304600F0F0
:1032700005B80000001002400070004018BCBDE816
:10328000E08F00002DE9F0470F4605006BD0494E56
:10329000306800F00700B84209D2306820F007001B
:1032A00038433060306800F00700B8425BD12878BE
:1032B000414C80070AD5A868A16801F0F001884256
:1032C00004D9A16821F0F0010143A1602878C0076A
:1032D0002CD06868032811D0022812D0216898B138
:1032E000490500293FDAA16821F003010143A160EB
:1032F000FFF770F9804641F2883910E021688901B2
:10330000EFE721688903ECE78907EAE7FFF762F94D
:10331000A0EB0801494502D90320BDE8F087A06869
:10332000696800F00C00B0EB810FEFD128788007BE
:103330000AD5A868A16801F0F001884204D2A1680A
:1033400021F0F0010143A160306800F00700B842AD
:103350000BD9306820F0070038433060306800F047
:103360000700B84201D00120D7E72878400705D5EB
:10337000A068E96820F4E0600843A06028780007AE
:1033800006D5A068296920F4605040EAC100A06019
:1033900000F03EF8A168094AC1F30311515C01F045
:1033A0001F01C8400649086006480068BDE8F047AC
:1033B000FFF756BD0020024000100240787200085E
:1033C0002000002018000020054806490068896890
:1033D000054AC1F30221515C01F01F01C84070474A
:1033E0002000002000100240B8720008054806497D
:1033F00000688968054AC1F3C221515C01F01F01D0
:10340000C84070472000002000100240B872000839
:1034100070B52549002318468A68CC6812F00C0262
:1034200004F00306214C4FEA640509D00C2A05D0AC
:10343000042A32D0082A00D1284670BD012E10D1AE
:103440000B681B0704D4D1F89430C3F3032302E0C4
:103450000B68C3F30313164E56F82330DAB10C2A67
:10346000EBD1C86800F00300022818D0032818D058
:103470001846CA68CB68C2F30212C3F3062343435B
:10348000521CB3FBF2F2C868C0F34160401C40001C
:10349000B2FBF0F070BD184670BD204670BD2046EE
:1034A000E7E72846E5E70000001002400024F400AA
:1034B000887200082DE9F84304006FD0FA4DA8681F
:1034C00000F00C06E86800F003072078C00664D519
:1034D00076B10C2E01D1012F0AD0A06900282868EE
:1034E0007AD040F001002860FFF774F880465DE074
:1034F0002868800702D5A0690028DED0216A2868E4
:10350000000703D5286800F0F00004E0D5F8940027
:10351000F02202EA1010814216D9084601F046FE58
:1035200000283BD1286840F0080028602868216AFC
:1035300020F0F000084328606868E16920F47F40CB
:1035400040EA0120686016E0286840F00800286022
:103550002868216A20F0F000084328606868E16963
:1035600020F47F4040EA0120686026B9206A01F01B
:103570001DFE0028D5D1FFF74BFFA968CB4AC1F348
:103580000311515C01F01F01C840C9490860C948D6
:103590000068FFF765FC00287ED12EE0CAE000BF7E
:1035A000FFF718F8A0EB0800022876D828688007F3
:1035B000F6D5286840F0080028602868216A20F0C5
:1035C000F000084328606868E16920F47F4040EA21
:1035D0000120686011E0FFE720F001002860FEF79D
:1035E000F9FF804606E000BFFEF7F4FFA0EB0800FD
:1035F0000228DAD828688007F6D42078C00740D09F
:10360000082E18D00C2E01D1032F14D06068B0F50D
:10361000803F17D0B0F5A02F286817D020F4803055
:103620002860286820F4802028606068E0B1FEF7F8
:10363000D1FF804614E02868800322D56068002806
:1036400078D01EE0286840F48030EDE740F4802018
:103650002860F7E7FEF7BEFFA0EB08006428A4D8B7
:1036600028688003F6D50CE0FEF7B4FF804605E03D
:10367000FEF7B0FFA0EB0800642896D82868800306
:10368000F6D4207880073BD5042E11D00C2E01D122
:10369000022F0DD0E06801E0AAE1FFE000282868D1
:1036A0001ED040F480702860FEF794FF07460CE0BF
:1036B000286840050CD5E0680028C1D008E000BFAC
:1036C000FEF788FFC01B022893D828684005F7D56D
:1036D0006868217C20F0F85040EA016068600FE0E3
:1036E00020F480702860FEF775FF074605E000BFF4
:1036F000FEF770FFC01B0228B1D828684005F7D438
:103700002078000729D560690028D5F8940012D0E8
:1037100040F00100C5F89400FEF75CFF074604E0A6
:10372000FEF758FFC01B022899D8D5F894008007EF
:10373000F6D512E02BE120F00100C5F89400FEF769
:1037400049FF074605E000BFFEF744FFC01B022803
:1037500085D8D5F894008007F6D42078400766D540
:10376000A86D0027C00008D4A86D40F08050A8655F
:10377000A86D012700F0805000904F480168C905EE
:1037800012D40168814641F480710160FEF722FF86
:10379000804605E0FEF71EFFA0EB080002287DD85A
:1037A000D9F80000C005F5D5A068012816D0052875
:1037B000D5F8900017D020F00100C5F89000D5F89A
:1037C000900020F0040000BFC5F89000A06841F20E
:1037D0008839C0B1FEF7FEFE80460FE0D5F89000B4
:1037E00040F00100F0E740F00400C5F89000F5E774
:1037F000FEF7F0FEA0EB080149454FD8D5F8900040
:103800008007F5D50EE0FEF7E5FE804606E000BF36
:10381000FEF7E0FEA0EB080149453FD8D5F890003F
:103820008007F5D41FB1A86D20F08050A8652078DE
:10383000800628D5606A0028D5F8980012D040F09C
:103840000100C5F89800FEF7C5FE074605E000BF79
:10385000FEF7C0FEC01B022820D8D5F898008007CC
:10386000F6D510E020F00100C5F89800FEF7B2FE92
:10387000074604E0FEF7AEFEC01B02280ED8D5F8BE
:1038800098008007F6D4A06AF0B3022816D00C2E58
:103890007DD0286820F08070286000E0A7E0FEF767
:1038A00099FE0446A6E0000000100240787200086D
:1038B000200000201800002000700040E868E26A44
:1038C00000F00301914228D1216B00F07002090140
:1038D0001039914221D1626B00F4FE41B1EB022F0D
:1038E0001BD194F8382000F07841B1EBC26F14D1AD
:1038F000A18F00F4C00249084905A1F500119142C9
:103900000BD194F8401000E06AE04908490600F045
:10391000C060A1F1007181424BD00C2E73D0286899
:10392000400170D4286820F080702860FEF752FEB5
:10393000064604E0FEF74EFE801B022857D8286892
:103940008001F7D4F4E90B016FF00F0202EB0111D3
:103950000843218A5204490802EB4151A26841EA16
:1039600002210843217D4FF07E42490802EB41616C
:103970000843217B40EAC160E968244A11400843BA
:10398000E860286840F080702860E86800E03AE06D
:1039900040F08070E860FEF71DFE044605E000BFC1
:1039A000FEF718FE001B022821D828688001F7D5F1
:1039B00027E02868800124D4286840F080702860BF
:1039C000E86840F08070E860FEF704FE044604E01A
:1039D000FEF700FE001B022809D828688001F7D5F1
:1039E0000FE000BFFEF7F6FD001B022802D90320FE
:1039F000BDE8F88328688001F4D4E86804490840E9
:103A0000E8600020F4E70120F2E700008C809D01CF
:103A1000FCFFEEFE10B500680B4641680D48014002
:103A2000080CD870C1F304245C7001F03F049C7052
:103A3000C1F34231197052B901F0F6FBD8705878D1
:103A400001F0F2FB5870987801F0EEFB98700020BE
:103A500010BD00003FFFFF0010B50B460168896AEA
:103A6000596001680969C1F30E0199600068016835
:103A70000D480140C1F305401870C1F306245C7085
:103A800001F07F049C70890DD97052B901F0CCFB14
:103A90001870587801F0C8FB5870987801F0C4FB92
:103AA0009870002010BD00007F7F7F0010B50400DB
:103AB0004FF0010048D094F8210028B9002084F884
:103AC0002000204600F04AF8022084F821002068F7
:103AD000C168C943C90638D5CA214162216853204B
:103AE0004862204601F0B6FBB0B9206881681A4AE6
:103AF00011408160216888686268A3691043226967
:103B00001A43104388602168E068086120680169F1
:103B1000228941EA02410161204601F0BFFB0028F1
:103B20000DD12168CA6C22F00302CA646269E1699E
:103B300041EA02012268D36C41EA0301D1642268A0
:103B40004FF0FF01516202D010BD4FF000004FF066
:103B5000010184F8211010BDBFFF8FFF10B598B090
:103B600004465C216846FCF77CFB0B4920688842D0
:103B700010D14FF400300090001216906846FFF705
:103B800023FA08B1FDF786FD044850F8901F41F470
:103B90000041016018B010BD002800400010024034
:103BA00070B5044690F820000B4601281BD0012672
:103BB00084F82060022084F82100B2B19878D97886
:103BC00040EA014558781978000240EA413005433F
:103BD0002168CA204862216853204862204601F0CB
:103BE00039FBD0B120E0022070BD5878C10603D562
:103BF00000F0EF000A305870D87801F01EFB050481
:103C0000587801F01AFB45EA0025987801F015FB79
:103C10000543187845EA4035DAE70848054020684A
:103C20004560204601F03AFB2268FF21516208B945
:103C300084F82160002184F8201070BD3FFFFF0050
:103C40002DE9F041044690F8200090460D460128E9
:103C500011D0012784F82070022084F82100216807
:103C6000CA204862216853204862204601F0F2FAD7
:103C7000002618B129E00220BDE8F0812068B8F1E3
:103C8000000F80684FEA406024D0002800DBEE700F
:103C9000A8782978EA7840EA01406978090241EA7F
:103CA00082510843184908402168086020688168EB
:103CB00021F480218160D5E90301084321688A68E5
:103CC00010438860204601F0E9FA2268FF21516222
:103CD000A0B115E0002800DBEE70287801F0ADFA05
:103CE0000304687801F0A9FA43EA0023A87801F0F8
:103CF000A4FA0343E87843EA8050D3E784F82170BC
:103D000084F82060B8E700007F7F7F0070B504462C
:103D10000B482168C860FEF75DFC05464FF47A76D3
:103D200007E000BFFEF756FC401BB04201D903205C
:103D300070BD2068C0688006F4D5002070BD00000A
:103D40005FFF030010B5401EB0F1807F01D301205A
:103D500010BD4FF0E02460610F21601702F04AFAB5
:103D60000020A06107202061002010BD704770472F
:103D7000704770472DE9F04104460068C668056940
:103D80004FF00007A90713D5B10711D5F91E01613E
:103D900001202077206880698007204602D0FFF745
:103DA000E8FF04E000F08BF8204600F089F8277760
:103DB000680716D5700714D521686FF004000861F4
:103DC000022020772068806910F4407F204602D0CE
:103DD000FFF7CFFF04E000F072F8204600F070F823
:103DE0002777280715D5300713D521686FF008000D
:103DF0000861042020772068C0698007204602D02F
:103E0000FFF7B7FF04E000F05AF8204600F058F83A
:103E10002777E80616D5F00614D521686FF0100054
:103E20000861082020772068C06910F4407F204690
:103E300002D0FFF79EFF04E000F041F8204600F0BA
:103E40003FF82777E80708D0F00706D021686FF021
:103E500001000861204600F035F8280601D4A804C6
:103E600008D5300606D521686FF402500861204657
:103E7000FFF77DFFE80508D5300606D521686FF409
:103E8000807008612046FFF771FF680608D570064C
:103E900006D521686FF040000861204600F020F848
:103EA000A8060AD5B00608D521686FF02000086181
:103EB0002046BDE8F041FFF75BBFBDE8F0817047E9
:103EC0007047000000680449884203D10348016834
:103ED000491C0160704700000010004010000020E5
:103EE000704710B50446D0F88000202801D0022089
:103EF00010BD61B15AB101202066002060662046E5
:103F000001F048FF0028F3D1216E012901D00120E2
:103F100010BD226810211162226852E8001F41F092
:103F2000100142E80013002BF6D110BD0E4A0068C4
:103F30001268904216D10D484278C2EBC203C3EB1F
:103F4000C21200EB4202A2F8F4104178491CC9B237
:103F50004170142901D1002141700178491C017080
:103F6000FDF756BA704700009C0200202404002090
:103F7000704770472DE9F04102680446D069116826
:103F8000936840F60F0528424FF000054FF00206F7
:103F900005D187067ED58F067CD5A16E33E1DFF88B
:103FA00094C203F0010701EA0C0C57EA0C0C71D023
:103FB0005FEAC07C0CD05FEAC15C09D54FF0010C10
:103FC000C2F820C0D4F8842042F00102C4F8842052
:103FD000820709D5DA0707D022681662D4F8842050
:103FE00042F00402C4F8842042070AD5DA0708D058
:103FF000236804221A62D4F8842042F00202C4F832
:10400000842002070CD501F020023A4308D023682F
:1040100008221A62D4F8842042F00802C4F88420EE
:1040200002050BD54A0109D523684FF400621A62D4
:10403000D4F8842042F02002C4F88420D4F88420EC
:10404000002A36D0800605D5880603D5A16E09B1B1
:1040500020468847D4F8840021688968490602D43C
:1040600010F0280F27D0204601F09AFC20688068C5
:1040700040061BD52068083050E8001F21F04001A1
:1040800040E80012002AF5D1606F78B16A49816377
:10409000606F00E015E0FDF7C5FF002809D0606FF4
:1040A000816B00E02046BDE8F04108472046FFF75D
:1040B00060FFBDE8F0812046FFF75BFFC4F8845045
:1040C000F7E7D4F860C02027BCF1010F7ED15FEA8A
:1040D000C06C7BD55FEAC16C78D510201062206877
:1040E000806840064FD5616F0A6850680004000C74
:1040F0003DD0B4F85830834239D9A4F85A00086842
:10410000006880062BD4206850E8001F21F48071DD
:1041100040E80012002AF6D12068083050E8001F5D
:1041200021F0010140E80012002AF5D12068083092
:1041300050E8001F21F0400140E80012002AF5D1AC
:10414000C4F880702566206850E8001F21F0100137
:1041500040E80012002AF6D1606FFDF73DFF666669
:10416000B4F85800B4F85A10401A81B207E0B4F815
:10417000581081429DD1106880069AD56666204607
:10418000FFF7D4FE95E7B4F85800B4F85A10401A77
:1041900081B2B4F85A0000288BD0002989D0226857
:1041A00052E8000F20F4907042E80003002BF6D193
:1041B0002068083050E8002F22F0010240E8002378
:1041C000002BF5D1C4F88070256600E00AE0A566F2
:1041D000226852E8000F20F0100042E80003002B94
:1041E000F6D1CBE7C60209D55B0207D54FF48010A4
:1041F00010622046BDE8F041FFF7BABE020606D5C0
:104200000A0604D5E16E00297FF44CAF51E7400661
:10421000B8D54806B6D52046026852E8001F21F0FE
:10422000400142E80013002BF6D1C767C56600F0D5
:10423000F9F93EE7200100043D58000810B50400DC
:1042400002D0E06F10B107E0012010BD002084F81B
:104250007800204600F026F82420E06720680168F6
:1042600021F001010160606A10B1204601F02EFAD0
:10427000204601F08FFC0128E7D02068416821F436
:10428000904141602068816821F02A0181602068A6
:10429000016841F0010101602046BDE8104001F0D5
:1042A00079BA00002DE9F0439DB00646142117A805
:1042B000FBF7D7FF5C216846FBF7D3FF6149306805
:1042C000614C032702254FF007094FF00008884290
:1042D00029D101200090CDF820806846FEF774FEB9
:1042E00008B1FDF7D7F9206E40F480402066206EBB
:1042F00000F480401C90E06C40F00200E064E06C50
:1043000017A900F002001C90C02081E82101CDE92E
:104310001A794E48FEF768F8002202212520FEF7A0
:10432000E5FD25202BE04A4988422DD16846CDF88D
:1043300024800095FEF748FE08B1FDF7ABF9A06DAB
:1043400040F40030A065A06D00F400301C90E06CDB
:1043500040F00100E064E06C17A900F001001C903F
:104360000C2081E82101CDE91A794FF09040FEF749
:104370003BF8012203212620FEF7B8FD2620FEF798
:10438000A7FD1DB0BDE8F08332498842F9D1042071
:10439000CDF8288000906846FEF716FE08B1FDF7BC
:1043A00079F9A06D40F48020A065A06D00F4802014
:1043B0001C90E06C40F00400E064E06C19AA00F08E
:1043C00004001C903020CDE91705444682E8900295
:1043D00017A92148FEF708F8214F20484FF080091F
:1043E0003860C7E90154C7E903497C614FF480583C
:1043F000BC61C7E907483846FDF7A6FE08B1FDF7DE
:1044000049F97767BE62164F144848371438E7E811
:1044100002051020A7E81102114847F81449483056
:10442000BC61C7E90748FDF78FFE08B1FDF732F917
:104430003767002203212720BE62FEF757FD2720A1
:104440009DE70000003801400010024000040048D1
:10445000004400400048004000080048300002408E
:104460002403002030B4D0F88030202B02D002206A
:1044700030BC7047A9B1A2B1002303660A4C03689F
:10448000A3420BD05B681B0208D5046854E8003FC8
:1044900043F0806344E80035002DF6D130BC01F0D4
:1044A000C9BC0120E4E700000080004010B50068AE
:1044B0000549884207D105A001F08CFE074801217B
:1044C00041700921017010BD0044004077696E649D
:1044D0002075617274207278206F6B002C000020B0
:1044E000704700002DE9F84F0446C06F9846154606
:1044F0000E46202802D0022000F04AB886B37DB3D1
:104500000020C4F884004FF02109C4F87C90FEF725
:1045100061F8A4F850508246A4F85250A068B0F553
:10452000805F01D1206910B13546002600E00025EA
:104530005FF02007B4F8520053464FF00002CDF868
:104540000080D0B18021204601F0D0FCD0B94DB11F
:1045500015F8010B21688862E16F39EA010006D085
:104560000120C9E736F8020BC0F30800F2E7B4F8FF
:104570005200401EA4F85200DCE74021204601F022
:10458000B5FC10B1E7670320B6E7E7670020B3E7A3
:1045900018BCBDE8E08F000070B50446C06F20284D
:1045A00001D0022070BD29B322B3E164A4F85020E9
:1045B000A4F852200021C4F884102120E067206F65
:1045C000D0B1154BC362236F14481863236F14488E
:1045D0005863206F134681632068256F00F128021D
:1045E0002846E16CFDF712FE30B11020C4F88400BB
:1045F0002020E067012070BD21684020086220680B
:10460000083050E8001F41F0800140E80012002A05
:10461000F5D1002070BD00005B59000897590008D3
:104620004758000870477047FEE701688A69D2431F
:10463000920701D400228A6200688169C943C907D0
:1046400003D0816941F00101816170472DE9F04794
:104650000446006889460026816935461746C90622
:104660004FF0200841D51021C1612FE0B9F1FF3F83
:104670002CD0FDF7AFFFC11B494502D8B9F1000F9F
:1046800024D12068416894F8422001F48041836974
:10469000DB431B0415D4B1F5804F12D0202A10D073
:1046A000416841F480414160FDF794FF074608E00E
:1046B000FDF790FFC01B192803D945F020050126FE
:1046C00004E020688069C0438006F1D420688069D6
:1046D000C043800602D5002EC8D003E016B9216879
:1046E000C1F81C8045F00405012621688869C205CF
:1046F00005D54FF4807245F00105CA6101264105D8
:1047000009D522684FF4806145F00805D161012682
:10471000800502D40AE0800507D521684FF40070B7
:1047200045F00205C861012600E086B12046FFF78A
:104730007CFF54F8240B4168064A11404160206A0E
:104740002843206284F81D800020A077207730461F
:10475000BDE8F08700E800FE2DE9F8430446164660
:10476000DDE9089714489846DAB200900023204605
:1047700000F066F83A464946204600F036F9B8B9E6
:10478000F5B2B8F1010F08D02168300A88623A46C4
:104790004946204600F029F950B9206885624B4609
:1047A000002240212046009700F062F8002800D047
:1047B0000120BDE8F8830000002000802DE9F843C7
:1047C0000446164615489846DDE90897DAB2C30252
:1047D0000090204600F034F83A464946204600F062
:1047E00004F9B8B9F5B2B8F1010F08D02168300A60
:1047F00088623A464946204600F0F7F850B92068EA
:1048000085624B46002280212046009700F030F858
:10481000002800D00120BDE8F883000000200080BF
:1048200010B50446FDF730FF0520FDF729FD2046B1
:10483000FDF744FFBDE810400520FDF721BD000055
:1048400010B5C1F3090141EA02410268029C194313
:104850002143506821F000414FF4806303EA545330
:10486000024C234398430843506010BDFF63FF038D
:104870002DE9F0411D4617460E460446DDF8188026
:1048800027E0424629462046FFF7E0FE10B101200E
:10489000BDE8F081681C1CD0FDF79CFEA0EB080071
:1048A000A84200D8ADB92068806936EA00000ED071
:1048B0000020B8420DD154F8440F40F0200044F8D5
:1048C0000409202060700020A0702070DFE7012024
:1048D000EFE72068806936EA000004D00020B84283
:1048E000CFD00020D4E70120F9E700002DE9F04700
:1048F00000259146884604462E4620273DE04A463C
:1049000041462046FFF7A2FE00B1012520688169DB
:10491000C943890619D4C5B981698169C943C906E2
:1049200012D41021C161042060642068C76120682E
:104930004168174A1140416084F8417084F8426030
:1049400084F84060012500E06664FDF743FEA0EBBB
:104950000901414502D8B8F1000F0ED16DB92068A8
:104960008069C043400708D5606C40F02000606457
:1049700084F8417084F84060012520688069C04354
:10498000400701D5002DBAD02846BDE8F0870000C9
:1049900000E800FE70B516460D4604461EE032469D
:1049A00029462046FFF752FE08B1012070BDFDF7F1
:1049B00011FE801BA84200D885B920688069C043D9
:1049C00080060BD554F8440F40F0200044F8040949
:1049D000202060700020A0702070E6E720688069C9
:1049E000C0438006DBD4002070BD70B516460D466E
:1049F000044620E0324629462046FFF727FE08B14C
:104A0000012070BD681C16D0FDF7E4FD801BA84294
:104A100000D885B920688069C04380070BD554F859
:104A2000440F40F0200044F804092020607000206A
:104A3000A0702070E4E720688069C0438007D9D463
:104A4000002070BD0D4808B5816C41F00101816402
:104A5000806C002200F00100009011460C20FEF74F
:104A600045FA0C20FEF734FA002211460D20FEF71D
:104A70003DFABDE808400D20FEF72ABA00100240BA
:104A80002DE9F04186B014216846FBF7EAFB3D486A
:104A9000C16C41F08001C164C16C01F080010591DD
:104AA000C16C41F00101C164C16C01F001010591CB
:104AB000C16C41F00201C164C06C012200F002002F
:104AC0004FF09048059011464046FDF77DFD0125C9
:104AD00000240095CDE90154694640460394FDF752
:104AE00083FC2802CDE90004274F6946384602942A
:104AF000FDF77AFC68024FF48816CDE90006694696
:104B000002943846FDF770FC002203213846FDF779
:104B10005BFD03200090CDE90154694638460394BB
:104B2000FDF762FC0420CDE9000469463846029492
:104B3000FDF75AFC2020CDE900066946029438466C
:104B4000FDF752FC002201214046FDF73DFD009596
:104B5000CDE90154694640460394FDF745FCE8035E
:104B6000CDE90004694640460294FDF73DFC012270
:104B700003211720FEF7BAF91720FEF7A9F906B0AE
:104B8000BDE8F0810010024000040048134810B551
:104B9000114901601249416000210122C0E902125D
:104BA000016141618161C1610162FDF787FD08B169
:104BB000FCF770FD00210948FDF712FD08B1FCF774
:104BC00069FD00210548FDF736FD002803D0BDE84A
:104BD0001040FCF75FBD10BD00580040940000205D
:104BE000E49CD110134810B511490160124941608D
:104BF00000210122C0E90212016141618161C161AC
:104C00000162FDF75BFD08B1FCF744FD0021094896
:104C1000FDF7E6FC08B1FCF73DFD00210548FDF776
:104C20000AFD002803D0BDE81040FCF733BD10BDDD
:104C3000005C0040E8000020E49CD1100C4810B556
:104C40000A49016000217F22C0E90112FF22C0E968
:104C5000032141618161C161FEF728FF08B1FCF7C2
:104C600019FDBDE8104000F047BB000000280040DF
:104C7000B403002010B5114C0F480C2120604FF4F4
:104C8000E13060600020A060E060C4E90401A06140
:104C9000E061206260622046FFF7D0FA08B1FCF7BD
:104CA000F9FC2068016841F020010160206801687A
:104CB00041F01001016010BD003801408C0100205E
:104CC00010B5124C10480C2120604FF496506060D3
:104CD0000020A060E060C4E90401A061E0612062FE
:104CE00060622046FFF7AAFA08B1FCF7D3FC2068FF
:104CF000016841F020010160BDE81040092204492B
:104D00000248FFF7AFBB000000440040140200203F
:104D1000401800200D4810B50B4901604FF41651A2
:104D20004160002181600C22C160C0E904128161F0
:104D3000C16101624162FFF781FA002803D0BDE83A
:104D40001040FCF7A7BC10BD004800409C020020AA
:104D5000FEE770B504464FF6FF7000224AF20105E7
:104D60000EE0A35C58400023C60702D085EA50003D
:104D700000E040085B1CDBB2082BF5D3521CD2B21A
:104D80008A42EED370BDFEE7704700002DE9F04780
:104D9000784D88B02C1DF5212846FBF762FAAA2031
:104DA0002870552068700120E8707348C16A44F883
:104DB0000C1B016A44F8081C7049096844F8041C7B
:104DC000816B2160808FA080A5F17000816CC4F898
:104DD0000610C16CC4F80A10016DC4F80E10416DC4
:104DE000C4F81210816DC4F8161090F85C10A1760A
:104DF00090F85D10E17690F85E10217790F85F10E2
:104E0000617790F86010A17790F86110E177416EBA
:104E10002162016861624168A1628168E162C168E2
:104E20002163016961634169A1638169E163C169CA
:104E30002164016A6164416AA164816AE164C16AB2
:104E40002165016B6165416BA165816BE165C06B9B
:104E500020667024AC70214600202A461318401C9E
:104E60001B7980B21944C9B2A042F7D382F8F4107A
:104E70004049621D01F1F500FBF7DAF9DFF8F8A00F
:104E80003C4A631DAAF80A30F53204210320FCF7DE
:104E9000ADF8BAF80A103AA001F09CF9374800685A
:104EA000FBF774FB80468946DAF82000FBF76EFBBF
:104EB00006460F46DAF82400FBF768FB04460D4669
:104EC000DAF82800FBF762FB8DE8F00341EC100BE9
:104ED00036A053EC102B01F07DF90AF1380420685C
:104EE000FBF754FB41EC100BA179A088CDE9000140
:104EF00053EC102B3AA001F06DF91E4C283C2069B0
:104F0000FBF744FB02AEA27D637D257D86E823008E
:104F1000CDE9053294ED020B3AA08DED000B94ED36
:104F2000000B53EC102B01F055F9A4F1480ADAF804
:104F30004000FBF72BFB80468946DAF82C00FBF794
:104F400025FB06460F46DAF82800FBF71FFB044650
:104F50000D46DAF82400FBF719FB8DE8F00341EC6D
:104F6000100B37A053EC102B01F034F908B0BDE85A
:104F7000F087000040190020480000203C0000207D
:104F800050726F746F636F6C204672616D65205054
:104F900061636B6564202D204C656E6774683A20F0
:104FA00025642062797465730D0A0000543131372D
:104FB0003D252E3266432C2053485434303D252E57
:104FC0003266432F252E316625252C20424D503543
:104FD00038303D252E32666850610D0A0000000011
:104FE00057696E643A20252E31666D2F732C204749
:104FF000726164653A25642C2056616C69643A25B7
:10500000640D0A004750533A204C61743D252E36FA
:10501000662C204C6F6E3D252E36662C20416C741C
:105020003D252E31666D2C2054696D653D2530324D
:10503000643A253032643A253032640D0A000000AB
:1050400047593935543A20526F6C6C3D252E3166E4
:10505000A1E32C2050697463683D252E3166A1E3DD
:105060002C205961773D252E3166A1E32C20546513
:105070006D703D252E3166A1E3430D0A000000004E
:105080002DE9F041444C05468846E068002681073A
:1050900028680DD0E16801F00301814216D1A8B162
:1050A000E0686968C0F30210401C88420ED120E01D
:1050B000012804D0022805D0032807D108E0216880
:1050C000890701E021684905002907DB01265FE027
:1050D0002168890302D421684903F5E7E1686A6819
:1050E0006FF00F0321F0730103EB02121143014330
:1050F000E160206820F080602060FDF76BFA0746D1
:1051000005E000BFFDF766FAC01B022837D820680B
:105110000001F7D4B8F1000F18D0B8F1010F1DD07D
:10512000287D4FF07E41400801EB4060A96840EACD
:1051300001202169194A114008432061206840F08C
:1051400080602060FDF746FA07461AE0A868297BD0
:10515000000240EAC1602169114AECE7288A11493E
:10516000400801EB4050A96840EA012021690E4A3D
:10517000E1E700BFFDF72EFAC01B022801D9032684
:1051800006E020680001F5D52069A969084320617F
:105190003046BDE8F081000000100240FF80FFF9BA
:1051A000FF80FF070000E0FFFF809FFFF8B51C4D68
:1051B00006460024A86DC00002D5FDF7FDFE0DE0F7
:1051C000A86D40F08050A865A86D00F08050009058
:1051D000FDF7F2FEA96D21F08051A965B0F5007FC1
:1051E00004D0802E07D94FF003040AE0802E08D99E
:1051F000A02E01D804E001D1022402E0702E00D1DB
:1052000001240848016821F007012143016000687A
:1052100000F00700A04201D00120F8BD0020F8BD39
:105220000010024000200240010901EB810100F062
:105230000F0000EB4100C0B270470022014602E0BF
:105240000A39C9B2521C0A29FAD2100741EA106081
:10525000704700002DE9F041044600680025C16850
:10526000490617D4691EC160FDF7B4F906464FF42C
:105270007A78032708E000BFFDF7ACF9801B4045B2
:1052800002D9032584F821702068C068400601D443
:10529000032DF1D12846BDE8F08100002DE9F04151
:1052A000064613480025016821F080010160041FB3
:1052B00020684FF00307800607D43046FEF726FD2E
:1052C00090B186F8217003250EE0206820F02000C0
:1052D00020603046FEF71AFD10B186F821700325D4
:1052E000206840F0200020602846BDE8F0810000E2
:1052F0000C280040AFF3008000B587B01421684649
:10530000FAF7AFFF00200246059069461048FEF705
:10531000A3FB28B9002205A90D48FEF77BFB10B1BD
:10532000002007B000BD0B489DF8001001709DF8EB
:10533000011041709DF8021081709DF81610C17027
:105340009DF8151001719DF8171041710120E8E7D3
:10535000B40300200800002010B586B0040028D057
:1053600014216846FAF77DFF0020059021788DF81A
:10537000001061788DF80110A1788DF8021003906B
:105380000246049069460E48FEF75AFC88B901208F
:105390008DF8140020798DF81500E0788DF816004E
:1053A00060798DF81700002205A90548FEF7F8FB83
:1053B00010B1002006B010BDFFF79EFF0120F9E7F5
:1053C000B40300207CB5E0B3D9B30022009201926F
:1053D00002784378303A02EB82046FF02F0202EB3E
:1053E000440423448DF800308478C578303C04EBC5
:1053F000840402EB44042C448DF801404479007984
:10540000303800EB800002EB400020448DF80200B1
:1054100008784C78303800EB800002EB40002044E4
:10542000C4B28DF803408878CD78303800EB800026
:1054300002EB400028448DF8040008794D7930389B
:1054400000E016E000EB800002EB400028448DF8FD
:1054500005000833D8B28DF80000182805D3183895
:105460008DF80000641C8DF803406846FFF774FF58
:105470007CBD00207CBD000008B500208DF8000038
:105480000D480C4901600D4941600D4981600D498D
:10549000C160694601F0B0FE10B14FF0FF3008BDA9
:1054A0009DF80000892803D010B16FF0010008BDFD
:1054B000002008BD2F7200082C180020017200087F
:1054C000F5710008940000207CB50C4605000BD057
:1054D00054B10020009001906946184801F010FE78
:1054E00028B16FF001007CBD4FF0FF307CBD9DED19
:1054F000000AB5EEC00AF1EE10FA0BD310EE100A56
:105500000F49884206DC0F48019A824202D80E48B1
:10551000824202DD6FF002007CBD85ED000A9DED48
:10552000010A0A4884ED000A9DED000A80ED000A98
:105530009DED010A80ED010A00207CBD2C180020A1
:105540000000C842000020C20000FA4224000020EF
:105550007047FDF76DBC10B596B044216846FAF768
:1055600080FE142111A8FAF77CFE4FF40070FDF7BD
:10557000EFFC08B172B6FEE701210804CDE9001086
:10558000022003240A90CDE90B4114210D9107213B
:10559000CDE90E1010906846FDF78CFF08B172B689
:1055A000FEE70F20CDE91104002013901490159010
:1055B000042111A8FDF766FE002801D072B6FEE7AF
:1055C00016B010BD0248016841F4700101607047D7
:1055D00088ED00E010B5FCF7C9F96420FCF750FE37
:1055E000FCF738F83220FCF74BFEFCF7C7FB322003
:1055F000FCF746FE00F068FD3220FCF741FEFBF7A9
:10560000EBFC3220FCF73CFE034C00202070FCF742
:10561000E1FFE06010BD00004800002070B51F4CA5
:10562000207820B1002501280ED0257008E0FCF775
:10563000D1FFE168401AB0F57A7F04D901202070CB
:10564000FCF7C8FFE06070BDFBF738FFFCF724F8FB
:10565000FCF750FA00F0EEFC6079A1790840E1799E
:105660000840217A0842EED00DA000F0B3FDFFF70C
:105670008DFB4FF09046002201213046FCF7A4FF3D
:105680006420FCF7FDFD012211463046FCF79CFF2B
:105690006571A571E571257270BD0000480000209C
:1056A0003D3D3D20414C4C204441544120434F4C12
:1056B0004C4543544544203D3D3D0D0A000000004B
:1056C0000148FEF757BB0000D803002090F82410D3
:1056D000090706D501684A68436B22F400421A4361
:1056E0004A6090F82410C90706D001684A68836AA6
:1056F00022F400321A434A6090F82410890706D534
:1057000001684A68C36A22F480321A434A6090F8FA
:105710002410490706D501684A68036B22F48022E9
:105720001A434A6090F82410C90606D501688A68B1
:10573000836B22F480521A438A6090F82410890601
:1057400006D501688A68C36B22F400521A438A6046
:1057500090F82410490611D501684A68036C22F4B8
:1057600080121A434A60016CB1F5801F06D10168AE
:105770004A68436C22F4C0021A434A6090F824102D
:10578000090606D501684A68806C22F400220243AB
:105790004A6070472DE9F84300260446C0F884604B
:1057A000FCF718FF8046206800684FF020050007CE
:1057B0006FF07E4712D54346002229042046009709
:1057C00000F094FB50B1216851E8000F20F08000F8
:1057D00041E80002002AF6D1E56721E02068006870
:1057E000400722D5434600224FF48001204600970F
:1057F00000F07CFBC8B1216851E8000F20F49070E4
:1058000041E80002002AF6D12068083050E8001F65
:1058100021F0010140E80012002AF5D1C4F88050BF
:1058200084F878600320BDE8F883E567C4F8805009
:1058300044F8606F666026760020F4E710B5806A51
:10584000FEF797FB10BD70B5846AE06FD4F8805006
:1058500021688968090604D5212802D1204600F074
:10586000C5F820688068400604D5222D02D1204664
:1058700000F096F8D4F8840040F01000C4F88400DA
:105880002046FEF776FB70BD10B50146806A0A68B7
:10589000126892062BD4026852E8003F23F480730A
:1058A00042E80034002CF6D10268083252E8003F8A
:1058B00023F0010342E80034002CF5D102680832DD
:1058C00052E8003F23F0400342E80034002CF5D1B9
:1058D0002022C0F88020026E012A08D1036853E814
:1058E000002F22F0100243E80024002CF6D1002201
:1058F0004266026E012A02D0FEF7D8FD10BD09688B
:105900004968B0F8582089B28A4201D9A0F85A10E3
:10591000B0F85A10511A89B2FEF708FB10BD10B545
:105920000246806A01214166016E012902D0FEF71C
:10593000D7FD10BDB0F858104B08A0F85A301268C7
:10594000526892B2914201D3A0F85A20B0F85A207E
:10595000891A89B2FEF7EAFA10BD10B50146806ACD
:1059600009680968890613D40168083151E8002FD5
:1059700022F0800241E80023002BF5D1026852E8B2
:10598000001F41F0400142E80013002BF6D110BD8A
:10599000FEF748FE10BD10B5806AFEF744FE10BD4C
:1059A000016851E8002F22F4907241E80023002B97
:1059B000F6D10168083151E8002F22F0010241E8D8
:1059C0000023002BF5D1016E012908D1026852E8AD
:1059D000001F21F0100142E80013002BF6D1202116
:1059E000C0F880100021016681667047026852E8A5
:1059F000001F21F0C00142E80013002BF6D1202146
:105A0000C167704710B5B0F85C20D0F880300168ED
:105A1000222B04D0886940F00800886110BD496AD3
:105A2000436D11401980416D891C4165B0F85A10D1
:105A3000491EA0F85A10B0F85A100029EED1026899
:105A400052E8001F21F4907142E80013002BF6D1B8
:105A50000168083151E8002F22F0010241E80023DB
:105A6000002BF5D12021C0F880100021816641660D
:105A7000154B02689A420BD05268120208D503688F
:105A800053E8002F22F0806243E80024002CF6D176
:105A9000026E012A02D0FEF709FD10BD0166026800
:105AA00052E8001F21F0100142E80013002BF6D14C
:105AB0000168CA69D243D20601D410220A62B0F842
:105AC0005810FEF733FA10BD0080004010B5B0F852
:105AD0005C20D0F880300168222B04D0886940F027
