:020000040800F2
:10000000D0260020A5010008575900081D520008FD
:100010005559000869130008B96D00080000000078
:10002000000000000000000000000000ED62000879
:10003000B31300080000000059590008EF620008DF
:10004000BF010008BF010008BF010008BF01000890
:10005000BF010008BF010008BF010008BF01000880
:10006000BF010008BF010008BF010008BF01000870
:100070006D13000879130008BF010008BF010008D4
:10008000BF010008BF010008BF010008BF01000850
:10009000BF010008BF010008BF0100086514000887
:1000A000BF010008BF010008BF010008BF01000830
:1000B000BF0100080000000000000000BF010008B0
:1000C000BF010008BF010008BF010008BF01000810
:1000D000BF010008256D0008A16D0008AD6D000886
:1000E000BF010008BF010008000000000000000080
:1000F0000000000000000000000000000000000000
:1001000000000000BF01000800000000BF0100085F
:10011000000000000000000065640008BF01000846
:10012000BF010008BF010008BF010008BF010008AF
:10013000BF010008000000000000000000000000F7
:10014000BF010008BF010008BF0100080000000057
:10015000BF010008BF010008BF010008BF0100087F
:10016000BF010008BF010008BF0100080000000037
:10017000BF010008BF0100080000000000000000EF
:10018000BF010008BF010008BF010008DFF810D060
:1001900000F044FC00480047E17C0008AFF3008019
:1001A000D02600200648804706480047FEE7FEE7C5
:1001B000FEE7FEE7FEE7FEE7FEE7FEE7FEE7FEE717
:1001C000616300088D0100082DE9F05F05460020FD
:1001D00092469B4688460646814640241BE02846B8
:1001E00041464746224600F025FA53465A46C01A71
:1001F000914110D311461846224600F00CFA2D1AF0
:1002000067EB01084F4622460120002100F003FA67
:1002100017EB00094E41201EA4F10104DFDC484623
:1002200031462A46434600F000B830BCBDE8C09FC6
:1002300040EA01039B0703D009E008C9121F08C068
:10024000042AFAD203E011F8013B00F8013B521EE8
:10025000F9D27047D2B201E000F8012B491EFBD25F
:1002600070470022F6E710B513460A4604461946C1
:10027000FFF7F0FF204610BD30B505462A460B4675
:1002800012F8010B13F8014B08B1A042F8D01CB1D1
:10029000002802D06D1CF1E7284630BD10B5044699
:1002A00004E00B7800F8013B03B1491C521EF8D260
:1002B000204610BD421C10F8011B0029FBD1801AFA
:1002C0007047000070B50F4D00B92868002412E097
:1002D0000A4602E09E4203D0521C1378002BF9D14B
:1002E000DAB2224305D02BB124B1002100F8011B62
:1002F00004E00446401C0678002EE9D12860204620
:1003000070BD0000740000202DE9FE4F804681EA98
:100310000300C00F0C46009021F0004123F000457F
:10032000B8EB0200A94105D24046214690461C4642
:100330000B46024623F00040104347D0270DC7F379
:100340000A00C3F30A510290401A019040286BDA68
:10035000C3F3130040F4801B0098924620B10023A1
:10036000D2EB030A63EB0B0B01985946C0F1400234
:10037000504600F050F906460D4650465946019A3F
:1003800000F068F910EB08006141002487EA11527F
:1003900084EAE7731A4340D0009A62B3019A012AB3
:1003A0004FEA075215DC001B61EB02014FF00042DF
:1003B00002EA0752CDE90042001C41F580113246A5
:1003C0002B4600F0EDF903B000F045B84046214659
:1003D000F9E7001B61EB0201001C41F580130018D6
:1003E0005B412018A2F5001747EB030140EAD570E6
:1003F000B6196D4111E06D084FEA360645EAC07541
:100400004FEA0752001B61EB0201001C41F580110D
:1004100049084FEA30000019514132462B4603B0DB
:1004200000F01CB800F0ADB9009801224000002394
:10043000D0EB020263EBE073009821464FEAE074D0
:10044000B8EB000061EB0401E9E783F000435BE7F0
:1004500081F0004158E730BCBDE8C08F30BCBDE83A
:10046000C04FFFF7DFBF2DE9FE4F81EA030404F020
:10047000004421F0004100944FF0000B23F00043B2
:1004800050EA01045ED052EA03045BD0C3F30A547D
:10049000C1F30A552C44A4F2F3340194A0FB025496
:1004A000C1F3130141F48011C3F3130343F4801328
:1004B00001FB024400FB034E840A970A44EA81547C
:1004C00047EA8357A4FB076802958D0A05FB078559
:1004D0004FEA932C04FB0C542705029D4FEA065863
:1004E00047EA1637B5EB08056EEB070C870E920E40
:1004F00047EA811742EA8312A7FB0201B6EB0B0120
:1005000064EB00042B0D43EA0C335E1844EB1C50E3
:10051000DA465146E7FB0201C5F313044FEA0B33F9
:1005200043EA14534FEA0432019C43EA0603A4F160
:100530000C040294009CCDE900B400F031F903B042
:1005400000F003B800200146F9E730BCBDE8C08FD9
:100550000EB5C10F80EAE0700844CA07002140F2DE
:1005600033438DE80E000A460B4600F019F903B03C
:1005700000BD0EB540F2334102910021CDE90011DA
:100580000A460B4600F00CF903B000BD00F0004233
:1005900030F000400AD0C10D01F56071C0F31600C3
:1005A00042EA0151C208400711437047002001464A
:1005B000704701F0004330B421F0004150EA0102DD
:1005C00006D00A0DA2F56072C1F31301002A02DC05
:1005D00030BC00207047440F44EAC104C100E01859
:1005E00030BC00EBC25000F095B830B50B46014668
:1005F00000202022012409E021FA02F59D4205D3C2
:1006000003FA02F5491B04FA02F52844151EA2F16B
:100610000102F1DC30BD202A04DB203A00FA02F1AD
:10062000002070479140C2F1200320FA03F31943E0
:1006300090407047202A04DB203A21FA02F0002182
:10064000704721FA02F3D040C2F1200291400843E2
:1006500019467047202A06DBCB17203A41FA02F0F0
:1006600043EAE07306E041FA02F3D040C2F120020F
:1006700091400843194670470FB4002300B589B074
:100680000CA900910B996FF00042CB601E4B0693B2
:100690001E4B07930423CDE901321D4A08920246FE
:1006A0006B46002000F066FA09B05DF814FB70B5E7
:1006B00086B006464FF0FF300091CDE901010020E1
:1006C00015460C4604903246694604A8FFF7D4FF4D
:1006D00002460498211825B108B1084600E02046DA
:1006E0002860049800280DD0002A02DD0098884276
:1006F00008D0081B0094CDE901043246694604A8DD
:10070000FFF7BAFF06B070BDB30D0008D10D0008A9
:10071000410A00080029A8BF7047401C490008BFD3
:1007200020F00100704710B4B0FA80FC00FA0CF021
:1007300050EA010404BF10BC704749B1CCF1200459
:1007400021FA04F411FA0CF118BF012121430843E6
:10075000A3EB0C01CB1D4FEA00614FEA102042BF12
:10076000002010BC704700EBC35010440029A4BF08
:1007700010BC7047401C490008BF20F0010010BCAD
:10078000704710B5141E73F1000408DA401C41F1E3
:10079000000192185B411A4301D120F0010010BD05
:1007A0002DE9F04D92469B4611B1B1FA81F202E07B
:1007B000B0FA80F220329046FFF72DFF04460F4634
:1007C00040EA0A0041EA0B0153465A46084313D057
:1007D000114653EA010019D0C8F140025046FFF714
:1007E00029FF05460E46504659464246FFF713FF7D
:1007F000084305D0012004E020463946BDE8F08DCD
:100800000020054346EAE0762C4337430A98630507
:10081000E40AA0EB08000022FD0A44EA47540A302B
:1008200002D500200146E9E7010510196941DDE91B
:10083000084500196941BDE8F04DA2E72DE9F04DEA
:1008400081EA030404F0004B21F0004514464FF008
:10085000000A23F0004150EA050220D054EA0102C8
:100860001DD0C5F30A570246C5F31303C1F31300A5
:10087000C1F30A5640F4801543F48013A7EB060831
:10088000101BD64608F2FD3873EB050002D308F1C1
:10089000010801E092185B41B8F1000F03DA002073
:1008A0000146BDE8F08D00204FF4801106468446D5
:1008B0000EE0171B73EB050705D3121B63EB050353
:1008C00006434CEA010C49084FEA300092185B419C
:1008D00050EA0107EDD152EA030012D082EA040087
:1008E00083EA0501084305D0101BAB4106D2012263
:1008F000002306E000224FF0004302E06FF0010207
:1009000053101AEB06004CEB085110EB0A0041EBB8
:100910000B01BDE8F04DFFF734BF2DE9F04D00238A
:100920001A461B1A8A4103DB00200146BDE8F08D00
:10093000C1F30A52C1F3130141F480154FF0000BCB
:10094000D10702D100186D41521E0027044640F223
:10095000FF11384601EB620A3E46804602460020FF
:100960004FF48011FFF766FEC2197141BB1846EBC8
:100970000100B4EB030C75EB000C04D3E41A65EB37
:10098000000517460E46241908F101006D41804606
:100990003428E3DDF91946EB0600091BA84103D210
:1009A0004FF0FF32134601E0002213461BEB070015
:1009B00046EB0A51BDE8F04DFFF7E3BEC1F30A5222
:1009C000C1F3130140F2FF3341F480119A4202DA7D
:1009D00000200146704740F233439A42A2F233426C
:1009E00002DC5242FFF726BEFFF715BE30B5041EEB
:1009F00071F1000404DB4FF00044404264EB01015C
:100A0000141E73F1000405DB1C464FF000435242F4
:100A100063EB0403994208BF904230BD064C074D7A
:100A200006E0E06840F0010394E8070098471034BE
:100A3000AC42F6D3FFF7AEFB688000088880000860
:100A4000C0B24FF4F05100F0D5B900002DE9FF4FCE
:100A5000087883B09946FF2805D0491C2D2804D07A
:100A60000024002008E000200BE00124F9E700EB5F
:100A7000800003EB4000491C0B78FF2BF7D104B139
:100A8000404200230293147819461D462D2C01D0B4
:100A90002B2C04D1521C2D2C13D000240294AA46D6
:100AA0001478FF2C0FD00A25A3FB057801FB0581E4
:100AB0004FF0000C03FB0C11521CE3194AEB01012F
:100AC000EEE70124EAE7814453EA010002D019F578
:100AD000C87F06DA03980021C0E9001107B000F0D2
:100AE00065B90025AE4E2F46DFF8B882184600F0F3
:100AF00095F9CDE90001B9F1000002DAC9F100046D
:100B000000E004460023A74A1AEB030B42EB045A09
:100B100012E0E00707D02A46334638464146FFF741
:100B2000A2FC074688462A46334610461946FFF778
:100B30009AFC05460E466410002CEAD1DDE900015E
:100B4000B9F1000F5A46534606DAFFF777FE3A46E8
:100B50004346FFF773FE05E0FFF785FC3A46434640
:100B6000FFF781FC029A0AB181F00041039AC2E9C1
:100B70000001B3E72DE9FF4F1F468DB0D7E90146CD
:100B80004FF0FF382E2045464FF000090B90B96911
:100B90006D1C0E988847396A824688470028F6D12E
:100BA000BAF1FF3F0AD024F4D064002E11DDBAF16F
:100BB0002B0F08D0BAF12D0F0BD102E0404611B037
:100BC0008DE744F48064B9696D1C0E9888478246AD
:100BD000761E6946600501D52D2000E02B208DF89A
:100BE000000001F1010B0DF1200809E0B9696D1C4D
:100BF0000E98884782460F9844F40074761E05606C
:100C0000002E02DDBAF1300FF0D00B998A453ED1AB
:100C100044F0800406E00F99681CA9F1010944F42E
:100C200000740860B9696D1C761E0E98884782466C
:100C30003028F0D02BE00B998A4505D1200603D44B
:100C400044F08004761E18E0504606F024FA08B3FB
:100C50000DF11301761E44F400748B4508D2AAF1FD
:100C600030000BF8010B200607D5A9F1010003E0C5
:100C7000200602D409F101008146A00502D50F9992
:100C8000681C0860B9696D1C0E9888478246002E62
:100C9000D1DC53E0002E51DDBAF1650F02D0BAF17C
:100CA000450F4BD1A00549D5B9696D1C24F440749A
:100CB000761E0E9888478246002E0CDD2B2804D025
:100CC000BAF12D0F07D144F48074B9696D1C0E98E8
:100CD00088478246761EE00501D52D2100E02B21B4
:100CE00008F8011BCDF82C8021E00DF12901761EBA
:100CF00044F4007488450CD2AAF1300010F0FF00D3
:100D000088F8000002D10B99884509D908F101083B
:100D100006E0E00501D5244801E042F20F7081466B
:100D2000B9696D1C0E98884782460F980560002EA1
:100D300004DD504606F0AFF90028D6D1F9690E98C7
:100D40008847FF208BF8000088F8000000200690FC
:100D500007904B466A4608A906A8FFF777FEA0054C
:100D600002D46FF001002AE714F0240F0AD0E00744
:100D700014D1DDE906123868031D3B600068C0E944
:100D800000120BE0DDE90601FFF713FC0146E00766
:100D900004D13868021D3A600068016028460EE7F9
:100DA000000014400000F03FF1D8FFFF30BCBDE868
:100DB000C08F426842B1016811F8013B23B1521E55
:100DC000C0E90012184670470121C160881E7047B3
:100DD00042685AB1C368016843B983688B4205D041
:100DE000491E521CC0E90012002070474FF0FF302E
:100DF000704700007F2801D9002208E0064A02EB74
:100E00005002C007127800D1120902F00F0201202F
:100E10009040084070470000288000080EB540F25E
:100E2000334202920022CDE900221346FFF7B8FCBC
:100E300003B000BD3EB505004FF0000002900090E9
:100E4000019026D0294606F08FFE002820D12946A1
:100E500002A806F0D9FC00281AD101248DF80A4016
:100E6000294602A806F049FE002811D18DF800405D
:100E70008DF801408DF802408DF803402946684600
:100E800006F0EDFD002803D12946032006F06CFE94
:100E90003EBD4FF0FF303EBD3EB505004FF00000B7
:100EA0000C4601900290009016D0ACB129466846DD
:100EB00006F0AAFC00280ED12A46694601A806F0D1
:100EC0003BFD002807D19DED010A84ED000A9DED50
:100ED000020A84ED010A3EBD4FF0FF303EBD000026
:100EE00010B5040013D0012060750A48A0600A48BC
:100EF000E0600A48206100206060204606F06AFD3C
:100F0000002806D12046BDE8104006F08EBE4FF006
:100F1000FF3010BDCD100008F1100008A51000082A
:100F200010B50649064800F089F908B1002010BD47
:100F300004A005F055FF012010BD00004000002076
:100F4000800000205B543131375D20496E69742088
:100F50004572723A2042535020696E69742066616E
:100F6000696C65640D0A000010B5040017D00246D4
:100F70001049114800F00CF9B0B1104920688842BE
:100F800002D80F49884208DDFFF700FB41EC100B47
:100F90000CA053EC102B05F023FF002010BD15A072
:100FA00005F01EFF032010BD1BA005F019FF022055
:100FB00010BD000040000020800000200000CEC2D4
:100FC000000019435B543131375D20526561642064
:100FD0005761726E3A2054656D70206F7574206F82
:100FE000662072616E67652028252E3466A1E62989
:100FF0000D0A00005B543131375D20526561642079
:101000004572723A20506172616D206973204E55AD
:101010004C4C0D0A000000005B543131375D20520A
:10102000656164204572723A2043524320666169CB
:101030006C6564206F7220493243206572726F7252
:101040000D0A0000F0B5DDB01C4615000E4607463F
:1010500002D00CB1802C02D902205DB0F0BD00207E
:1010600000F0A8F980213DA8FFF7FBF822462946A9
:101070003DA8FFF7DDF8802C01D30120EDE7F42136
:101080006846FFF7EEF822463DA96846FFF7D0F81C
:10109000ADF8F0406A463146384600F0B3F900201A
:1010A000DBE7000010B54FF0E0239A690549064CD4
:1010B0000968B1FBF4F141439869101A8842FBD3E7
:1010C00010BD00002000002040420F000EB5642338
:1010D00092B28DE80E00024601238E21034802F0F1
:1010E00081FA002801D06FF001000EBD80000020C1
:1010F0000EB5642392B28DE80E00024601238E21C4
:10110000034802F025FB002801D06FF001000EBD5E
:101110008000002010B50A48FFF7E2FE09A005F0A4
:101120005FFE0748FFF786FE040003D001460BA0D0
:1011300005F056FE0EA005F053FE204610BD00003F
:10114000FC1F0020424D5035383020496E69742014
:10115000537563636573730D0A000000436F6E6619
:101160006967204661696C65642025640D0A00008A
:10117000424D5035383020436F6E66696720537595
:1011800063636573730D0A00032100F086B80000E5
:101190002DE9FC4115460C46060039D0C4B3BDB359
:1011A00000F0CDF8002834D0072001F05FFE0020C9
:1011B0008DF804006427012301AA8021304600979E
:1011C00002F066F920BB03232246812130460097B6
:1011D00002F0C8F8E0B900202246012612F8013BCF
:1011E0005FF0000180EA0307FF0705D080F01800D8
:1011F000400840F0800000E04008491C5B08C9B28C
:101200000829EFD3761EF6B2E8D2A178814202D047
:101210000020BDE8FC81B4F900009FED071A00EE44
:10122000100A0120F8EEC00AB3EE090A00EE810AA6
:1012300085ED000AEDE700000000803B38B50C4664
:10124000050028D03CB300F076F8002822D03220E8
:1012500001F00CFE00208DF800006A462146284669
:10126000FFF792FF002815D0C0222146284600F043
:1012700046F800280ED008222146284600F026F81D
:10128000002807D001222146284600F03BF800281C
:1012900000D0012038BD002038BD77B581B015469B
:1012A00064240646012302AA8021009402F0F0F88B
:1012B00038B901232A4681213046009402F052F8C1
:1012C00010B1002004B070BD0120FBE738B5054621
:1012D000002014468DF800006A4605212846FFF7D5
:1012E000DCFF00280AD09DF80000052120F018023C
:1012F00022438DF80020284600F025F838BD04214F
:1013000000F021B838B50546002014468DF80000DD
:101310006A4605212846FFF7C0FF00280AD09DF83D
:101320000000052120F0010222438DF8002028460C
:1013300000F009F838BD6A22172100F004B8C02275
:101340000421AFF300801CB502238DF80410642142
:101350008DF80520009101AA802102F099F808B1CA
:1013600000201CBD01201CBDFEE70000014801F06B
:1013700077BC0000080B0020014801F071BC0000A0
:10138000C00A002030B590F8444004F01C05012448
:10139000AC40056C6C60046863608368102B036864
:1013A00003D099600068C26030BD9A600068C16077
:1013B00030BD704770B5054605F000FD104C35B1E5
:1013C000012D06D0022D12D0032D0CD111E00022E8
:1013D00000E001220121204601F0ECFE0022022162
:1013E000204601F0E7FEBDE8704005F0E7BC0022B2
:1013F00000E001220121204601F0DCFE0122EEE79F
:1014000000040048134610B50B4A040A14705070CB
:101410009170B3F8F040084822461946C01CFEF708
:1014200007FF05F0CBFCE41CA2B2BDE81040024966
:10143000024803F0ABBE0000AC1E0020380A0020BA
:1014400006484178C1EBC102C2EBC11100EB41017A
:10145000F0220348091D03F03ABB0000C00B002036
:10146000380A002070B501F0ABFE1D4B40F2DE35AE
:1014700020221968441A1B49AC4205D20A60086848
:1014800040F02000086070BD186008688006FAD53A
:101490000A60086840F0200008600A6004F066FDF9
:1014A00011488178491CC9B281703C2912D30021AE
:1014B00081704278521CD2B242703C2A0AD34170E9
:1014C0000278521CD2B20270182A03D30170C1787C
:1014D000491CC170BDE87040034804F077BD0000AE
:1014E0000000002014040140080000207CB5284CB6
:1014F000002601256078052847D2DFE800F00308C0
:101500001A33420001F05CFE206165707CBD01F081
:1015100057FE2169401A6428F8D96846FFF724FD70
:101520009DED000A84ED090A01F04AFE20610220C7
:1015300016E001F045FE2169401A6428E6D901A9A8
:10154000684604F04DFE38B99DED000A84ED070AA7
:101550009DED010A84ED080A01F032FE20610320AE
:1015600060707CBD01F02CFE2169401A6428F8D916
:1015700008490948FFF790FC01F022FE2061042091
:10158000EEE7257105A005F02BFC66707CBD000020
:101590004400002038000020FC1F0020456E7669C2
:1015A000726F6E6D656E74204461746120436F6C60
:1015B0006C656374696F6E20436F6D706C657465E4
:1015C0000D0A000070B500252C46154803F022FFD7
:1015D000FFF7A6FC18B1012412A005F001FC0520BC
:1015E00001F044FC04F082FD18B114A0641C05F065
:1015F000F7FB052001F03AFCFFF78CFD18B115A0B0
:10160000641C05F0EDFB34B14FF0FF35214617A007
:1016100005F0E6FB02E01FA005F0E2FB284670BDE6
:10162000800000205B543131375D20496E697420A1
:101630004661696C65640D0A000000005B53485404
:1016400034305D20496E6974204661696C65640DB3
:101650000A0000005B424D503538305D20496E690C
:1016600074204661696C65640D0A0000456E76530E
:10167000656E736F7220496E6974204661696C658E
:10168000642C2045727220436F756E743A20256475
:101690000D0A0000456E7653656E736F7220496EB9
:1016A000697420537563636573730D0A000000004D
:1016B00072B6FEE72DE9F04FD24F00252DED048BD9
:1016C00085B00126B87810B101287AD109E001F07F
:1016D00077FD7861BE70CCA0BD6205F081FBD3A020
:1016E0008AE301F06DFDF96ADFF858A3401ADFF8CC
:1016F0005883B0F5FA6F53D301F062FDF862B86A0F
:10170000401CB86201F05CFD7969421ACFA0B96A49
:1017100005F066FB9AF8000008B1D6A100E0D7A159
:10172000D8A005F05DFB4446B8F80010DAA005F03B
:1017300057FB2088002866D0DCA005F051FB002470
:10174000DFF8789306E000BF19F80410DCA005F07C
:1017500047FB641CB8F80000844201DA0A2CF3DB72
:10176000D9A005F03DFBB8F800004446062803D395
:10177000D249D6A005F034FB99F80010242903D0F3
:1017800049B1FF2907D008E020880A2805D9D5A04B
:1017900005F026FB04E0D9A0FAE7E3A005F020FB62
:1017A0009AF800009FEDE99B9FEDEA8ADFF8A8B365
:1017B000DFF8A89300287CD0B8F800000A2878D970
:1017C00000E080E3E6A005F00BFB9F4CEBA0218836
:1017D00005F006FBB94A2188EEA005F001FB8AF866
:1017E0000050A8462188B54800F0E6FC04460146B2
:1017F000EDA005F0F5FAF14DF1A0697C05F0F0FAE5
:10180000012C02D004E0F2A0C2E7687C412837D066
:10181000F3A005F0E5FA6A7C2146F7A005F0E0FAAE
:10182000FCA005F0DDFA89F8208089ED009B89EDA8
:10183000029B89ED048A89F81A8045464C4689ED59
:10184000078A04F093FB00287ED09BF800102175D6
:101850009BF8012062759BF80230A3759BF803C0CA
:1018600084F817C09BF8045025769BF80500607635
:10187000CDF800C0CDE90150EEA005F0B1FAACE220
:10188000F8A005F0ADFACD49FCA005F0A9FACB49C6
:10189000FEA00A318A4605F0A3FA6869FEF776FED3
:1018A00041EC100BFCA053EC102B05F099FAA86941
:1018B00000E0A8E2FEF76AFE41EC100BFAA053EC40
:1018C000102B05F08DFA286AFEF760FE41EC100B34
:1018D000F9A053EC102B05F083FA5146B74804F0F9
:1018E000ABFB28B1F9A005F07BFA04F007FB02E09E
:1018F000FDA005F075FA6869FEF748FE4C46C4E99C
:101900000001A869FEF742FE9FEDFE0AC4E902014C
:1019100084ED040A84F82060A848FEF7CBFC6FF041
:101920002F0906282CD328786978303800EB8002FC
:1019300009EB42021144AA78C9B2303A02EB8202A2
:10194000EB7809EB420200E03DE21A442B7995F86E
:1019500005C0303B03EB830309EB43006044C3B293
:1019600001F10800C0B2D2B2182801D31838C0B2B1
:1019700020756275A3758DE80D00E3A005F030FABF
:101980005046FEF797FC06281AD3A87AE97A303831
:1019900000EB800209EB42021144E175297B6A7B6E
:1019A000303901EB810109EB410111442176A97B1A
:1019B000EA7B303901EB810109EB4100104460768C
:1019C0000B20A07695ED080ADDA084ED070A05F04E
:1019D00007FA2069FEF7DAFDCDE9020194ED020B6A
:1019E000E3A08DED000B94ED000B53EC102B05F0F4
:1019F000F7F9607EE27D217E8DE80700A37D627DA0
:101A0000217DCDE1440000203D3D3D204750532045
:101A1000436F6C6C656374696F6E2053746172748C
:101A20006564203D3D3D0D0A00000000B5C8B4FDD1
:101A3000475053CAFDBEDDBDD3CAD52E2E2E0D0A8A
:101A40000000000004000020060000202D2D2D20A5
:101A500047505320436865636B2023256C7520280D
:101A6000616674657220256C75206D7329202D2D9B
:101A70002D0D0A00CDEAB3C900000000B5C8B4FDC1
:101A8000D6D00000475053BDD3CAD5D7B4CCAC3A5A
:101A90002025730D0A000000475053BBBAB3E5C7B9
:101AA000F8B3A4B6C83A2025640D0A00475053CABB
:101AB000FDBEDDC4DAC8DD3A2000000028010020A8
:101AC00025303258200000000D0A000047505320F6
:101AD0004153434949C4DAC8DD3A20252E36730DF7
:101AE0000A000000BCECB2E2B5BD4E4D4541B8F174
:101AF000CABDCAFDBEDD210D0A000000BEAFB8E6BA
:101B00003A20475053CAFDBEDDCEAA30783030BBF4
:101B1000F230784646A3ACBFC9C4DCCAC7D3B2BC56
:101B2000FECECACCE20D0A00B7C74E4D4541B8F112
:101B3000CABDCAFDBEDDA3ACCAD7D7D6BDDA3A202E
:101B40003078253032580D0A0000000000000000F7
:101B5000000000000000000008000020B02000206D
:101B60003D3D3D20BCECB2E2B5BDCDEAD5FB4750D2
:101B700053D6A1203D3D3D0D0A000000475053D6ED
:101B8000A1B3A4B6C83A20256420D7D6BDDA0D0A81
:101B900000000000475053CDEAD5FBCAFDBEDD3A38
:101BA00020252E2A730D0A00475053BDE2CEF6BD04
:101BB000E1B9FB3A2025640D0A0000009C1F0020BB
:101BC000475053D7B4CCAC3A2025630D0A0000002F
:101BD000475053BBBAB3E5C7F8CEAABFD50D0A002C
:101BE0003D3D3D20475053CAFDBEDDCEDED0A7208F
:101BF0003D3D3D0D0A000000BDE2CEF6BDE1B9FB62
:101C00003A2025642C20D7B4CCAC3A2025630D0AA9
:101C100000000000CAB9D3C3525443B1B1BEA9CA2F
:101C2000B1BCE4D7F7CEAAB1B8D1A12E2E2E0D0AA1
:101C300000000000525443B1B1BEA9CAB1BCE43A9D
:101C400020253032643A253032643A25303264201F
:101C500020253032642D253032642D32302530324B
:101C6000640D0A003D3D3D20475053CAFDBEDDD303
:101C7000D0D0A7203D3D3D0D0A000000555443CA79
:101C8000B1BCE43A2025730D0A000000C8D5C6DABD
:101C90003A2025730D0A0000CEB3B6C83A20252E8F
:101CA00036660D0A00000000BEADB6C83A20252EEB
:101CB00036660D0A00000000CBD9B6C83A20252EA2
:101CC0003266206B6D2F680D0A0000003D3D3D20FF
:101CD000525443CAB1BCE4D2D1CDACB2BDB8FCD0F1
:101CE000C2203D3D3D0D0A003D3D3D20525443CABA
:101CF000B1BCE4CDACB2BDCAA7B0DC203D3D3D0DCA
:101D00000A00000068B1EC43555443CAB1BCE43A40
:101D100020253032643A253032643A25303264204E
:101D20002D3E20B1B1BEA9CAB1BCE43A2025303263
:101D3000643A253032643A253032640D0A000000DE
:101D40003D3D3D20475053CAFDBEDDD2D1B8B4D68B
:101D5000C6B5BDD0ADD2E9BDE1B9B9A3A8B1B1BE98
:101D6000A9CAB1BCE4A3A9203D3D3D0D0A00000075
:101D7000D0ADD2E9475053202D20CEB3B6C83A207B
:101D8000252E36662C20BEADB6C83A20252E3666E6
:101D90002C20BAA3B0CE3A20252E31666D0D0A0054
:101DA0004CA005F01DF8E069FEF7F0FB41EC100BCC
:101DB00094F82010A07ECDE9000153EC102B54A024
:101DC00005F00EF80CE025756575A575E6752676A7
:101DD000182060765AA005F003F861A005F000F81D
:101DE0006A4844464FF40061A0F800806848FEF756
:101DF00038FA7E71BC7067A005B0BDEC048B00F0B2
:101E00008DB904F0EDBF01F0DBF97969401A4EF6A7
:101E10006021884258D966A004F0E2FF4446B8F831
:101E200000209AF800106BA004F0DAFF2088401E12
:101E300009280ED872A004F0D3FF7AA004F0D0FFD6
:101E40007FA004F0CDFF84A004F0CAFF88A004F0B6
:101E5000C7FF8DA004F0C4FF89F8205089ED009BD6
:101E600089ED029B89ED048A89F81A504C4689ED68
:101E7000078A04F07BF8D8B19BF8001021759BF815
:101E8000012062759BF80230A3759BF8038084F8EB
:101E900017809BF804C084F818C09BF80500607692
:101EA000CDF80080CDE901C082A004F099FF09E0DF
:101EB00025756575A575E6752676182060768CA063
:101EC00004F08EFF7E71BD7005B0BDEC048B00F098
:101ED0002AB90000D0ADD2E9475053202D20B1B12E
:101EE000BEA9CAB1BCE43A20253032643A2530326A
:101EF000643A253032642C20C8D5C6DA3A20253021
:101F000032642D253032642D253032640D0A0000F4
:101F1000D0ADD2E9475053202D20CBD9B6C83A20B6
:101F2000252E3266206B6D2F682C20CEC0D0C73A8C
:101F30002025642C20D3D0D0A73A2025640D0A0098
:101F4000525443B6C1C8A1CAA7B0DCA3ACCAB9D326
:101F5000C3C4ACC8CFB1B1BEA9CAB1BCE40D0A00BC
:101F6000D0ADD2E9475053CAFDBEDDC9E8D6C3CED5
:101F7000AA525443B1B1BEA9CAB1BCE4A3A8475008
:101F800053CEDED0A7A3A90D0A0000000600002052
:101F9000280100203D3D3D20475053CAFDBEDDB223
:101FA000C9BCAFCDEAB3C9203D3D3D0D0A000000DC
:101FB0003D3D3D20475053CAFDBEDDB2C9BCAFB365
:101FC000ACCAB120283630C3EB29203D3D3D0D0A77
:101FD00000000000D7EED6D5D7B4CCAC202D20BD64
:101FE000D3CAD5CDEAB3C93A2025642C20BBBAB3F5
:101FF000E5C7F8B3A4B6C83A2025640D0A0000006E
:10200000CCE1CABE3A20475053D6BBBDD3CAD5B5E2
:10201000BDC9D9C1BFCAFDBEDDA3ACBCECB2E93AB3
:102020000D0A0000312E20475053C4A3BFE9CAC790
:10203000B7F1D5FDC8B7C1ACBDD30D0A0000000093
:10204000322E20475053CCECCFDFCAC7B7F1D5FDB5
:10205000B3A30D0A00000000332E20475053C4A341
:10206000BFE9CAC7B7F1C9CFB5E70D0A0000000044
:10207000342E20B4AEBFDAB2A8CCD8C2CACAC7B711
:10208000F1C6A5C5E40D0A00475053B2C9BCAFB3B1
:10209000ACCAB1A3ACCAB9D3C3525443B1B1BEA9FF
:1020A000CAB1BCE4D7F7CEAAB1B8D1A12E2E2E0D5D
:1020B0000A000000B3ACCAB1B1B8D1A1202D2052A2
:1020C0005443B1B1BEA9CAB1BCE43A202530326450
:1020D0003A253032643A253032642020253032648B
:1020E0002D253032642D3230253032640D0A000047
:1020F000B3ACCAB1B1B8D1A1202D20525443B6C15E
:10210000C8A1CAA7B0DCA3ACCAB9D3C3C4ACC8CFFA
:10211000B1B1BEA9CAB1BCE40D0A000030BCBDE833
:10212000C04FFFF76EBE30BCBDE8C08F10B52C218C
:102130000348FEF796F80249002081F8280010BDF8
:102140009C1F002010B504002DED028B9FED178A17
:1021500003D0FEF7AFF8052804D2B0EE480ABDEC74
:10216000028B10BD204604F05BFE51EC100BFEF715
:1021700020FA00EE100ADFED0E0A642180EE201A2C
:10218000FDEEC10A9FED0B1A10EE900A414300EEDE
:10219000901AF8EEE00A30EE600AC0EE010A00EE96
:1021A000100AB8EEC00A30EE800AD8E7000000003E
:1021B0000000C8420000704230B58FB00C460546A2
:1021C000FFF7B4FF15B30A2C20D33AA12846FEF737
:1021D00053F805001AD03C216846FEF742F8002467
:1021E00036A12846FEF76EF800906D465DF8240093
:1021F00007E0641CE4B231A10020FEF763F845F863
:10220000240008B10E2CF4D30A2C02D200200FB007
:1022100030BD2B4C0198002528B1014609222046EB
:10222000FEF73CF865720298E8B3007860744128C4
:102230003CD1039818B1FFF785FF84ED050A049897
:1022400008B10078A074059818B1FFF77BFF84ED02
:10225000060A069808B10078E074079878B104F08F
:10226000DFFD51EC100BFEF7A4F900EE100ADFEDD4
:10227000150A84ED070A20EE200A84ED080A089862
:1022800030B104F0CDFD51EC100BFEF792F9606215
:10229000099830B101460A4806220A30FDF7FEFFD0
:1022A0002574012000E001E084F8280094F828005B
:1022B000ADE7000024474E524D4300002C0D0A00AC
:1022C0009C1F0020560EED3F70B5354C0125E0787F
:1022D00018B10026012861D104E000F071FFA0616F
:1022E000E57070BD00F06CFFA169401AC828F8D9EC
:1022F0002C4800F0C3FB002850D12A482A49D0F8C6
:1023000006200A60D0F80A204A60D0F80E208A60C1
:102310008269CA60C2690A61026A4A61B0F93D20F5
:1023200000EE102AF8EEC00A9FED200A60EE800A47
:10233000C1ED060AB0F93F2000EE902AF8EEE00A5F
:1023400060EE800AC1ED070AB0F9412000EE902A44
:10235000F8EEE00A20EE800A81ED080AD0F82A2083
:102360004A62D0F82E208A62D0F83220CA62D0F8B1
:1023700043200A63D0F847204A63D0F84B208A6391
:10238000D0F84F20CA63D0F839200A6490F836009C
:1023900081F84400A57106A004F022FDE67070BD2E
:1023A0004400002014200020682000206F12833A8F
:1023B0004759393554204461746120436F6C6C6512
:1023C0006374696F6E20436F6D706C6574650D0A80
:1023D0000000000070B500252AA004F001FD33A024
:1023E00004F0FEFC38A004F0FBFC4FF47A76304693
:1023F00000F03CFD572000F029F900281ED03DA038
:1024000004F0EEFC012545A004F0EAFC304600F0A3
:102410002DFD582000F01AF900281ED04BA004F022
:10242000DFFC01255521052000F0BAFB50A004F087
:10243000D7FC57A004F0D4FC284670BD02242146E6
:102440005EA004F0CDFC304600F010FD641E002CB0
:10245000F5DC62A004F0C4FCD5E70524214669A0A0
:1024600004F0BEFC304600F001FD641E002CF5DCDB
:10247000592000F0EBF85A2000F0E8F86AA004F0C8
:10248000AFFCCFE73D3D3D3D3D3D3D3D3D3D3D3D0F
:102490003D3D3D3D3D3D3D3D3D3D3D3D3D3D3D3D6C
:1024A0003D3D3D3D3D3D3D3D3D0D0A004175746F57
:1024B0002043616C6962726174696F6E205374614C
:1024C0007274210D0A0000005374657020313A20A7
:1024D0004B656570206D6F64756C6520484F52497F
:1024E0005A4F4E54414C202620535441424C450DE6
:1024F0000A0000005374657020313A204163632F55
:102500004779726F2043616C6962726174696F6EA2
:10251000204661696C6564210D0A00000D0A537440
:10252000657020323A20526F74617465206D6F645B
:10253000756C6520333630A1E32061726F756E646F
:10254000203320617865730D0A00000053746570B4
:1025500020323A204D61672043616C696272617478
:10256000696F6E204661696C6564210D0A00000088
:102570000D0A416C6C2043616C6962726174696F11
:102580006E2044617461205361766564210D0A00F8
:102590003D3D3D3D3D3D3D3D3D3D3D3D3D3D3D3D6B
:1025A0003D3D3D3D3D3D3D3D3D3D3D3D3D3D3D3D5B
:1025B0003D3D3D3D3D0D0A0D0A0000004163632F86
:1025C0004779726F2043616C6962726174696E67EA
:1025D0002E2E2E202564730D0A00000053746570A2
:1025E00020313A204163632F4779726F2043616C39
:1025F0006962726174696F6E20537563636573738A
:10260000210D0A004D61672043616C69627261743B
:10261000696E672E2E2E2052656D61696E696E6738
:10262000202564730D0A00005374657020323A202F
:102630004D61672043616C6962726174696F6E20DD
:1026400053756363657373210D0A0000572807D023
:10265000582805D0592803D05A2801D001207047A6
:102660000146052000F09CBA30F9061B00EE101A56
:10267000F8EEC00A9FED390A60EE800A10EE901A5B
:1026800040F80419B0F9001000EE901AF8EEE00AD4
:1026900060EE800A10EE901A8160B0F9021000EE30
:1026A000901AF8EEE00A20EE800A10EE101AC160CF
:1026B000B0F9101000EE101AB8EEC01A9FED280AFB
:1026C000C1EE000A10EE901AC0F81610B0F9121000
:1026D00000EE901AB8EEE01AC1EE000A10EE901A61
:1026E000C0F81A10B0F9141000EE901AB8EEE01A03
:1026F000C1EE000A10EE901AC0F81E10B0F92210B8
:1027000000EE101AB8EEC01A9FED160AC1EE000ACC
:1027100010EE901A8162B0F9241000EE901AB8EE13
:10272000E01AC1EE000A10EE901AC162B0F926104C
:1027300000EE901AB8EEE01AC1EE000A10EE901A00
:102740000163B0F9351000EE901AB8EEE01AC1EE50
:10275000000A10EE901AC0F8371070470000003AD7
:10276000333383410000C84210B5012000F022F944
:1027700060B123A004F034FB03220123114610466C
:1027800000F0FEF9040003D023A008E028A0F1E740
:102790000321022000F004FA040003D02AA004F070
:1027A0001FFB1BE00021032000F0FAF9040001D018
:1027B0002BA0F4E732A004F013FB3BA004F010FBC5
:1027C000FFF708FE60B140A004F00AFB01244BA013
:1027D00004F006FB5521052000F0E2F9204610BD6B
:1027E000514800F04BF9504890F836104FA004F0D3
:1027F000F7FA5AA004F0F4FA67A004F0F1FAE6E759
:10280000475939355420496E6974204661696C65B1
:1028100064210D0A0000000052616E676520436F5D
:102820006E666967204661696C6564210D0A000067
:10283000475939355420496E69742053756363656F
:102840007373210D0A0000004672657120436F6E9C
:10285000666967204661696C6564210D0A000000A5
:102860004F7574707574204D6F646520436F6E668C
:102870006967204661696C6564210D0A00000000EB
:102880003D3D3D3D3D3D3D3D3D3D3D3D3D3D3D3D78
:102890003D3D3D3D3D3D3D3D3D3D3D3D3D3D3D3D68
:1028A0003D3D3D3D3D0D0A004759393554204472A8
:1028B0006F6E6520496E697469616C697A617469CB
:1028C0006F6E2E2E2E0D0A0043616C696272617468
:1028D000696F6E204661696C65642120436F6E7478
:1028E000696E756520776974682064656661756CCA
:1028F0007420646174610D0A000000003D3D3D3D9F
:102900003D3D3D3D3D3D3D3D3D3D3D3D3D3D3D3DF7
:102910003D3D3D3D3D3D3D3D3D3D3D3D3D3D3D3DE7
:102920003D0D0A0D0A0000001420002043616C696F
:1029300062726174696F6E20436F6D706C6574654F
:102940006421204C6576656C3A202564202831305E
:1029500030CEAAD7EEBCD1290D0A00004143432056
:1029600052616E67653A20A1C0313647207C20470E
:1029700059524F2052616E67653A20A1C032303003
:1029800030A1E32F73207C20467265713A203230EB
:1029900030487A0D0A00000053746172742044615B
:1029A0007461204163717569736974696F6E2E2E4D
:1029B0002E0D0A0010B504464FF4967000F056FA3A
:1029C000032C00D903242146BDE81040022000F06A
:1029D000E7B8000010B50446D0F8430000EE100A36
:1029E000D4F8470020EE000A00EE900AD4F84B001D
:1029F00000EEA00A00EE900AD4F84F0000EEA00A04
:102A000000EE900A00EEA00A10EE100AFDF7BEFDDF
:102A100041EC100B04F020FA51EC100BFDF7C9FD4E
:102A200000EE100A144910EE100A884201DAB7EEDF
:102A3000000A54F8430F00EE900A80EE801A11EE5F
:102A4000100A2060606800EE900A80EE801A11EE95
:102A5000100A6060A06800EE900A80EE801A11EE05
:102A6000100AA060E06800EE900A80EE801A11EE75
:102A7000100AE06010BD000017B7D13810B58CB057
:102A80000446242103A8FDF7ECFB6422232103A8BC
:102A90008DE8070001230822A421374800F0A2FD99
:102AA000002867D1BDF80C002080BDF80E006080C2
:102AB000BDF81000A080BDF812006082BDF81400BF
:102AC000A082BDF81600E082BDF81800A084BDF811
:102AD0001A00E084BDF81C0020859DF81E0084F8D3
:102AE0003600BDF81F00A4F83700BDF82100A4F897
:102AF0003D00BDF82300A4F83F00BDF82500A4F870
:102B00004100BDF92720BDF9291000EE102ABDF9BA
:102B10002B00BDF92D30B8EEC01A9FED180AC1EE9A
:102B2000000A10EE902A00EE901AC4F84320B8EE86
:102B3000E01AC1EE000A10EE901A00EE900AC4F8F6
:102B40004710B8EEE01AC1EE000A10EE900A00EE4F
:102B5000903AC4F84B00B8EEE01AC1EE000A10EE4D
:102B6000900AC4F84F002046FFF734FF2046FFF7D5
:102B70007BFD00200CB010BDD400002000401C469E
:102B800000F0030002F0030240EA820003F00102B9
:102B900040EA821040EAC110C1B20720AFF30080C2
:102BA00003B583B06423012204A98DE80E00134607
:102BB0000246A421024800F0CBFD05B000BD000094
:102BC000D400002010B540B190F825100022022951
:102BD00005D00421C16380F82420012010BD0168C4
:102BE0000B6823F001030B6001680B6823F00E03F0
:102BF0000B6090F84410046C01F01C03012101FAF1
:102C000003F3636080F8251080F82420002010BDB5
:102C100010B590F825100024022903D00421C163C7
:102C200001241AE001680A6822F001020A600168C2
:102C30000A6822F00E020A6090F84410036C01F05A
:102C40001C02012101FA02F25A6080F825100021CD
:102C500080F82410816B01B18847204610BD000028
:102C6000F0B4016C0D6801680C6890F8442002F023
:102C70001C06042202FA06F32B4211D063070FD57B
:102C80000B689B0603D40B6823F004030B6090F8D9
:102C9000441001F01C018A40016C4A60016B26E07F
:102CA000022202FA06F72F424FF0000C4FF0010308
:102CB00021D0A7071FD50C68A40605D40C6824F002
:102CC0000A040C6080F82530184B0168994290F88E
:102CD000441001F01C0102FA01F202D914490A6001
:102CE00002E0124980394A6080F824C0C16A002994
:102CF0001AD0F0BC08470822B2402A4214D022075A
:102D000012D50A6822F00E020A6090F84410026C94
:102D100001F01C0103FA01F15160C36380F8253012
:102D200080F824C0416BE2E7F0BC704780000240AD
:102D30000404024010B568B12C4C026814232C49DD
:102D4000A24209D22B4C1444B4FBF3F39B00C0E91C
:102D500010130BE0012010BD244C64421444B4FB5A
:102D6000F3F39B004364214B083B0364022380F888
:102D70002530136847F6F074A3431360D0E90223AB
:102D80001A43D0E9043423431A4383691A43C369BD
:102D90001A43036A1A4303681C6822431A60826854
:102DA000B2F5804F19D0036C0F228B4202D151F83B
:102DB000A83F02E00D49A0310B6890F8444004F0B0
:102DC0001C04A24093430B6090F84430426803F027
:102DD0001C039A400B681A430A600021C163012258
:102DE00080F8252080F82410084610BD0804024011
:102DF00000000240F8FFFDBF70B5044690F82400C3
:102E0000002501280ED0012084F8240094F82560C4
:102E10000020012E08D08021E16384F824000125E0
:102E2000284670BD022070BD022684F82560E0634C
:102E30002068066826F0010606602046FEF7A2FA22
:102E4000206B00282068016802D041F00E0106E0E6
:102E500021F0040101602068016841F00A0101606D
:102E60002068016841F001010160D9E770B50446AE
:102E700000F0A6F90546601C02D00448007804441E
:102E800000F09EF9401BA042FAD370BD1400002050
:102E90002DE9F84F00230126DFF818C10F2782E043
:102EA00006FA03F414EA01027CD023F0030565441A
:102EB000AA46D5F808909D074FEA157E07FA0EF549
:102EC00005EA090B0095B0F1904F05D03A4DA842A4
:102ED00005D14FF0010816E04FF0000813E0374D20
:102EE000A84202D14FF002080DE0354DA84202D1B0
:102EF0004FF0030807E0334DA84202D14FF0040819
:102F000001E04FF0070808FA0EF8D84526D1DFF89F
:102F1000B880D8F8009029EA0209C8F8009008F1B2
:102F20000408D8F8009029EA0209C8F80090DFF8F0
:102F3000988008F10C08D8F8009029EA0209C8F82E
:102F40000090A8F10408D8F800509543C8F8005044
:102F5000009DDAF80820AA43CAF80820D0F80080BB
:102F60004FEA4309032202FA09F248EA0208C0F8CC
:102F70000080DD0800EB8505AA46D5F820804FEAE1
:102F800043794FEAD96907FA09F528EA0508CAF82A
:102F900020808568954385604568A5434560C46881
:102FA0009443C4605B1C31FA03F27FF479AF00F004
:102FB0000DB800000000014000040048000800486F
:102FC000000C0048001000480004014018BCBDE897
:102FD000E08F00002DE9F04FDFF8AC9100230325CE
:102FE000A9F1040B85B04FF0010C0F2709F1040A79
:102FF000ABF1040EBFE000BF0CFA03F6324075D00F
:103000000C7904F00304012C01D0022C1BD184683C
:1030100000945C0005FA04F80494009C24EA080477
:103020000094D1F80C80049C08FA04F8009C48EA4B
:103030000408C0F808804468B4430E79C6F300164B
:103040009E40264346600C79E443A4070AD0C46836
:103050004FEA430805FA08F6B4438E6806FA08F604
:103060002643C6600C7904F00304022C10D1DC085E
:1030700000EB84040294246A5E074FEAD66807FADC
:1030800008F6B4430E6906FA08F62643029C266247
:1030900004684FEA430805FA08F6B4430E7906F0CF
:1030A000030606FA08F6264306604C6814F4403F0F
:1030B00060D0364C266E46F001062666246E23F05C
:1030C000030604F001040094314C34440294A468D3
:1030D0009E074FEA167807FA08F6B443B0F1904F0E
:1030E00005D02C4EB04204D1012612E042E0002669
:1030F0000FE0294EB04201D102260AE0274EB0422D
:1031000001D1032605E0264EB04201D1042600E09D
:10311000072606FA08F62643029CA660D9F8006046
:103120004C46D1F8048096435FEAC82800D5164380
:103130002660DAF800405646D1F8048094435FEAEE
:10314000882800D514433460DBF800405E46D1F88F
:10315000048094435FEA883800D514433460DEF875
:1031600000407646D1F8048094435FEAC83800D521
:10317000144334605B1C0A6832FA03F47FF43CAFFA
:1031800005B000F00FB80000080401400010024034
:10319000000001400004004800080048000C0048FE
:1031A0000010004830BCBDE8C08F0069084000D066
:1031B000012070470AB18161704781627047000049
:1031C00001488068704700001400002090F84120FA
:1031D000202A24D190F84020012A20D0012280F812
:1031E0004020242280F841200268136823F0010364
:1031F00013600268136823F4805313600268136835
:103200000B43136001680A6842F001020A60202142
:1032100080F84110002180F84010084670470220D5
:10322000704790F84120202A22D190F84020012AAE
:103230001ED0012280F84020242280F8412002681C
:10324000136823F0010313600268136823F47063AA
:1032500043EA0121116001680A6842F001020A6034
:10326000202180F84110002180F840100846704766
:103270000220704710B5040013D0242084F84100C8
:103280002068016821F001010160204600F010FB78
:103290000020606484F8410044F8300FA07420746A
:1032A00010BD012010BD000070B5040004D094F8DA
:1032B0004100002510B106E0012070BD84F84050A7
:1032C000204600F023FB242084F841002068016898
:1032D00021F0010101606068216820F070600861E0
:1032E0002068816821F400418160E0680128A068BD
:1032F00030D040F4044021688860E06802282068EB
:1033000041682AD021F40061416020684168144A74
:10331000114341602068C16821F40041C160D4E9D3
:1033200004010843A16940EA01202168C860D4E98A
:1033300007010843216808602068016841F0010125
:1033400001606564202084F84100256384F84250C0
:10335000002070BD40F40040CDE741F40061D3E7A8
:10336000008000022DE9F84F044690F84100DDF896
:1033700028A0984691468B4620287ED194F840009C
:1033800001287AD0012784F84070FFF719FF06461C
:10339000012200901923D103204602F077F8E0BB08
:1033A000222084F84100102084F842000025656442
:1033B000C4F82490A4F82A806563618D30484FF0EA
:1033C00080784FF00079FF2903D927853A4600908D
:1033D00039E0618D218500903AE05946204602F09F
:1033E0003DF813E002F090F8B8B92068406A616ACD
:1033F0000870606A401C6062208D401E80B220858B
:10340000618D491E6185618D01B168B1608D324663
:10341000002851462046E5D100E002E002F0C8F85D
:10342000D0B1012000F030B8534600228021204660
:10343000009602F02BF80028F3D1608DFF2804D904
:10344000FF22228500954346C7E7608D20850095C1
:1034500094F828204B46C0E721682020C8612168E5
:103460004A68084B1A404A6084F8410084F8425088
:1034700084F840500020D5E7FFE70220D2E70000A3
:103480000024008000E800FE18BCBDE8E08F0000CA
:103490002DE9FF4F81B0044690F84100DDF838B0C7
:1034A0001F46904620287BD194F84000012877D011
:1034B000012084F84000FFF783FE064601220090B9
:1034C0001923D103204601F0E1FF002853D1212028
:1034D00084F84100102084F8420000256564C4F897
:1034E000248067856563608D3A49FF274FF08079B6
:1034F0004FF0007AFF2802D927854B4605E0608D02
:10350000208500045346000C10D0226898F8000073
:103510009062606A401C6062608D401E6085208DF4
:10352000401E2085401CC2B2009101E000220091A3
:103530002046029901F092FF14E000BF02F063F808
:10354000C8B9606A216800788862606A401C60625D
:10355000608D401E6085208D401E80B22085618D6B
:1035600001B160B1608D3246002859462046E5D150
:1035700002F01EF8E0B1012005B000F02FB85B4664
:10358000002280212046009601F080FF0028F2D121
:10359000608DFF2805D927853A464B460095C7E739
:1035A00016E0608D2085009594F828205346BFE7EB
:1035B00021682020C86121684A68074B1A404A6088
:1035C00084F8410084F8425084F840500020D3E74A
:1035D0000220D1E70020008000E800FE30BCBDE8FA
:1035E000C08F00002DE9FF4F83B00446DDE910874E
:1035F00090F84100DDF848A09B46202876D15FEA8C
:10360000080015D0A7B194F8400001286ED04FF003
:10361000010984F84090FFF7D3FD0646012200908F
:103620001923D103204601F031FF002872D103E0B5
:103630004FF4007060646DE0222084F84100402067
:1036400084F8420000256564C4F8248067856563BA
:10365000CDE900A6DDE904125B46204601F076FEC6
:1036600010B184F8405055E0618D35484FF08077B7
:103670004FF00078FF2905D9A4F828904A463B4628
:10368000009005E0618D2185009094F82820434644
:103690002046049901F0E2FE534600220421204610
:1036A000009601F0F3FEA8BB2068406A616A0870CA
:1036B000606A401C6062208D401E81B22185608D51
:1036C000401E6085608DE0B1D9B95346002280214B
:1036D0002046009601F0DAFEE0B9608DFF2806D999
:1036E000A4F828904A463B46009506E026E0608D07
:1036F0002085009594F8282043462046049901F03F
:10370000ADFE608D0028C7D132465146204601F0FB
:103710004FFF18B1012007B000F016B82168202033
:10372000C86121684A68074B1A404A6084F8410022
:1037300084F8425084F840500020ECE70220EAE789
:103740000024008000E800FE30BCBDE8C08F00000F
:103750002DE9FF4F83B00446DDE9108790F8410062
:10376000DDF848909A469346202871D15FEA080018
:1037700014D09FB194F84000012869D0012084F84A
:103780004000FFF71DFD0646012200901923D103DA
:10379000204601F07BFE00286ED103E04FF400705C
:1037A000606469E0212084F84100402084F84200F0
:1037B00000256564C4F8248067856563CDE90096BB
:1037C00053465A462046049901F0F2FD10B184F8A0
:1037D000405051E0608DFF274FF080784FF0007A25
:1037E000FF2804D927853A464346009505E0608DB9
:1037F0002085009594F8282053462046049901F02E
:103800002DFE32464946204601F0FDFEA0BB606A0F
:10381000216800788862606A401C6062608D401E8A
:103820006085208D401E80B22085618DD9B1D0B9D0
:103830004B46002280212046009601F027FED8B991
:10384000608DFF2805D927853A464346009506E056
:1038500026E0608D2085009594F828205346204668
:10386000049901F0FBFD608D0028CAD1324649461B
:10387000204601F09DFE18B1012007B000F014B8F9
:1038800020682021C16120684268064B1A404260CE
:1038900084F8411084F8425084F840500020ECE74E
:1038A0000220EAE700E800FE30BCBDE8C08F00005F
:1038B00010B50068114A1249124C90420AD1886D25
:1038C00020F48000886509152046FFF7E1FA4FF4DF
:1038D00000610CE00C4A90420ED1886D20F400008B
:1038E000886580214FF09040FFF7D2FA10212046E2
:1038F000BDE81040FFF7CCBA10BD000000580040F2
:103900000010024000040048005C00402DE9F04F28
:103910009DB00446142117A8FCF7A3FC5C2168465F
:10392000FCF79FFC374920688026374C1227DFF8C8
:10393000DCB000254FF003094FF0040A884222D181
:10394000684600960D9500F035F908B1FDF7B0FE18
:10395000E06C40F00200E064E06C19AA00F00200A4
:103960001C904FF44060CDE9170782E8200617A9A4
:103970005846FFF72FFBA06D40F48000A065A06DB6
:1039800000F4800039E02249884237D18015009048
:103990000E95684600F00EF908B1FDF789FEE06C5F
:1039A00040F00100E064E06C00F001001C90E06C6D
:1039B00040F00200E064E06CCDE9176700F002001F
:1039C000CDE91BA0CDE91959B8464E46574617A96F
:1039D0004FF09040FFF7FEFA1020CDE9170819AA22
:1039E00017A982E8E0005846FFF7F4FAA06D40F40A
:1039F0000000A065A06D00F400001C901DB000F058
:103A000009B80000005800400010024000040048BF
:103A1000005C004030BCBDE8C08F000002488168F7
:103A200002781144816070471400002010B5002412
:103A3000032000F071F80F2000F008F808B101240D
:103A400001E000F025F8204610BD000070B50E4ED4
:103A500005460024307898B14FF47A71B1FBF0F04C
:103A60000A490968B1FBF0F000F062FF40B9102D7F
:103A700006D200222946501E00F02EF8756000E0A4
:103A80000124204670BD000014000020200000200A
:103A9000094808B5016E41F001010166016E01F0AF
:103AA00001010091816D41F080518165806D00F0D0
:103AB0008050009008BD000000100240002809DB83
:103AC00000F01F02012191404009800000F1E02038
:103AD000C0F8001170470000F0B40E4B1B680C4694
:103AE000C3F30223C3F10705042D00D90425191DD2
:103AF000072901D2002300E0DB1E012606FA05F1AA
:103B0000491E214099409E40761E16403143F0BC2C
:103B100003F076B90CED00E0064900F007020868F2
:103B20004FF6FF03184040EA0220034A10430860A2
:103B3000704700000CED00E00000FA051649B0F5F2
:103B4000007F0868C0F3412009D0022805D008682A
:103B500020F4C06040F480600860002070470128B5
:103B6000FBD0086820F4C06040F4007008600B4887
:103B70003222006850430A4AB0FBF2F0401C00E0D9
:103B8000401E4A69520501D50028F9D1486940050F
:103B9000E3D50320704700000070004020000020A3
:103BA00040420F000248006800F4C0607047000007
:103BB000007000402DE9F84F044600270088A84D0A
:103BC0003E46000515D5606C60B1B0F5000F04D01D
:103BD000B0F5400F2BD001270AE0E86840F48030B0
:103BE000E86024E00021201D02F04EF807001ED0FE
:103BF0003E46206880033AD5A86D4FF00008C0000B
:103C000009D4A86D40F08050A865A86D4FF0010858
:103C100000F080500090DFF84CA2DAF8001041F478
:103C20008071CAF80010FFF7CBFA814610E0D5F892
:103C30008800616C20F440000843C5F88800D8E78C
:103C4000FFF7BEFAA0EB0900022801D9032705E01F
:103C5000DAF80000C005F3D5002F7DD04FEA070643
:103C6000B8F1000F03D0A86D20F08050A86520782F
:103C7000C00707D0D5F88800216A20F00300084368
:103C8000C5F888002078800707D5D5F88800616AD4
:103C900020F00C000843C5F888002078400707D5BD
:103CA000D5F88800A16A20F030000843C5F88800E4
:103CB0002078800607D5D5F88800E16A20F44060B6
:103CC0000843C5F888002088800507D5D5F8880006
:103CD000E16B20F440200843C5F8880020884005A7
:103CE00007D5D5F88800216C20F440100843C5F8AA
:103CF00088002078400607D5D5F88800216B20F48D
:103D000040500843C5F888002078000607D5D5F84C
:103D10008800616B20F440400843C5F88800208883
:103D2000C00507D5D5F88800A16B20F440300843C2
:103D3000C5F8880020684FF0006700034FF08068E6
:103D400050D5D5F88800A16C20F040600843C5F834
:103D50008800A06CB84200E005E03BD1E86840F480
:103D60008010E8603EE0D5F8900010F4407014D068
:103D7000A16D814211D0D5F89000D5F8901020F4B3
:103D8000407041F48031C5F89010D5F8901021F4BE
:103D90008031C5F89010C5F89000C00711D0FFF72A
:103DA0000FFA074641F2883907E000BFFFF708FA2B
:103DB000C11B494501D9032652E7D5F89000800779
:103DC000F4D5D5F89000A16D20F440700843C5F8F3
:103DD000900045E7404505D10121201D01F054FF29
:103DE00000B106462068400317D5D5F88800E16C7D
:103DF00020F040600843C5F88800E06CB84204D168
:103E0000E86840F48010E86007E0404505D10121F2
:103E1000201D01F039FF00B106462088400411D56D
:103E2000D5F88800216D20F040500843C5F888007F
:103E3000206DB0F1805F05D10221201D01F024FF2B
:103E400000B106462088000406D555F8880F616D3C
:103E500020F0804008432860304600F005B800009C
:103E6000001002400070004018BCBDE8E08F000068
:103E70002DE9F0470F4605006BD0494E306800F041
:103E80000700B84209D2306820F00700384330609C
:103E9000306800F00700B8425BD12878414C8007B9
:103EA0000AD5A868A16801F0F001884204D9A16888
:103EB00021F0F0010143A1602878C0072CD0686888
:103EC000032811D0022812D0216898B14905002991
:103ED0003FDAA16821F003010143A160FFF770F907
:103EE000804641F2883910E021688901EFE72168B6
:103EF0008903ECE78907EAE7FFF762F9A0EB08011D
:103F0000494502D90320BDE8F087A068696800F040
:103F10000C00B0EB810FEFD1287880070AD5A86894
:103F2000A16801F0F001884204D2A16821F0F001FB
:103F30000143A160306800F00700B8420BD9306837
:103F400020F0070038433060306800F00700B842C6
:103F500001D00120D7E72878400705D5A068E96897
:103F600020F4E0600843A0602878000706D5A06828
:103F7000296920F4605040EAC100A06000F03EF8DA
:103F8000A168094AC1F30311515C01F01F01C84047
:103F90000649086006480068BDE8F047FFF756BDCF
:103FA0000020024000100240E07F000820000020B6
:103FB000180000200548064900688968054AC1F3D1
:103FC0000221515C01F01F01C84070472000002011
:103FD00000100240208000080548064900688968F2
:103FE000054AC1F3C221515C01F01F01C84070476E
:103FF00020000020001002402080000870B52549F4
:10400000002318468A68CC6812F00C0204F00306FC
:10401000214C4FEA640509D00C2A05D0042A32D07D
:10402000082A00D1284670BD012E10D10B681B074D
:1040300004D4D1F89430C3F3032302E00B68C3F334
:104040000313164E56F82330DAB10C2AEBD1C868A8
:1040500000F00300022818D0032818D01846CA68B8
:10406000CB68C2F30212C3F306234343521CB3FBD3
:10407000F2F2C868C0F34160401C4000B2FBF0F0AF
:1040800070BD184670BD204670BD2046E7E7284643
:10409000E5E70000001002400024F400F07F000873
:1040A0002DE9F84304006FD0FA4DA86800F00C0623
:1040B000E86800F003072078C00664D576B10C2EBE
:1040C00001D1012F0AD0A069002828687AD040F0D9
:1040D00001002860FFF774F880465DE028688007DB
:1040E00002D5A0690028DED0216A2868000703D520
:1040F000286800F0F00004E0D5F89400F02202EA0D
:104100001010814216D9084601F054FE00283BD118
:10411000286840F0080028602868216A20F0F00034
:10412000084328606868E16920F47F4040EA012084
:10413000686016E0286840F0080028602868216A56
:1041400020F0F000084328606868E16920F47F40AF
:1041500040EA0120686026B9206A01F02BFE0028A1
:10416000D5D1FFF74BFFA968CB4AC1F30311515CCE
:1041700001F01F01C840C9490860C9480068FFF73D
:1041800065FC00287ED12EE0CAE000BFFFF718F8DA
:10419000A0EB0800022876D828688007F6D52868A2
:1041A00040F0080028602868216A20F0F0000843E9
:1041B00028606868E16920F47F4040EA0120686077
:1041C00011E0FFE720F001002860FEF7F9FF8046CC
:1041D00006E000BFFEF7F4FFA0EB08000228DAD8E3
:1041E00028688007F6D42078C00740D0082E18D061
:1041F0000C2E01D1032F14D06068B0F5803F17D08A
:10420000B0F5A02F286817D020F4803028602868E7
:1042100020F4802028606068E0B1FEF7D1FF80467E
:1042200014E02868800322D56068002878D01EE05A
:10423000286840F48030EDE740F480202860F7E7FC
:10424000FEF7BEFFA0EB08006428A4D8286880030E
:10425000F6D50CE0FEF7B4FF804605E0FEF7B0FFB0
:10426000A0EB0800642896D828688003F6D420784C
:1042700080073BD5042E11D00C2E01D1022F0DD07A
:10428000E06801E0AAE1FFE0002828681ED040F4C1
:1042900080702860FEF794FF07460CE02868400510
:1042A0000CD5E0680028C1D008E000BFFEF788FF09
:1042B000C01B022893D828684005F7D56868217C80
:1042C00020F0F85040EA016068600FE020F4807050
:1042D0002860FEF775FF074605E000BFFEF770FF98
:1042E000C01B0228B1D828684005F7D42078000701
:1042F00029D560690028D5F8940012D040F001005B
:10430000C5F89400FEF75CFF074604E0FEF758FF8F
:10431000C01B022899D8D5F894008007F6D512E082
:104320002BE120F00100C5F89400FEF749FF074695
:1043300005E000BFFEF744FFC01B022885D8D5F872
:1043400094008007F6D42078400766D5A86D002732
:10435000C00008D4A86D40F08050A865A86D012762
:1043600000F0805000904F480168C90512D40168E0
:10437000814641F480710160FEF722FF804605E02E
:10438000FEF71EFFA0EB080002287DD8D9F8000038
:10439000C005F5D5A068012816D00528D5F89000ED
:1043A00017D020F00100C5F89000D5F8900020F05B
:1043B000040000BFC5F89000A06841F28839C0B180
:1043C000FEF7FEFE80460FE0D5F8900040F00100B9
:1043D000F0E740F00400C5F89000F5E7FEF7F0FEC6
:1043E000A0EB080149454FD8D5F890008007F5D5D6
:1043F0000EE0FEF7E5FE804606E000BFFEF7E0FEB9
:10440000A0EB080149453FD8D5F890008007F5D4C6
:104410001FB1A86D20F08050A8652078800628D5AF
:10442000606A0028D5F8980012D040F00100C5F865
:104430009800FEF7C5FE074605E000BFFEF7C0FE88
:10444000C01B022820D8D5F898008007F6D510E0C8
:1044500020F00100C5F89800FEF7B2FE074604E020
:10446000FEF7AEFEC01B02280ED8D5F898008007D4
:10447000F6D4A06AF0B3022816D00C2E7DD028689E
:1044800020F08070286000E0A7E0FEF799FE044667
:10449000A6E0000000100240E07F0008200000209D
:1044A0001800002000700040E868E26A00F0030194
:1044B000914228D1216B00F070020901103991421C
:1044C00021D1626B00F4FE41B1EB022F1BD194F8B5
:1044D000382000F07841B1EBC26F14D1A18F00F405
:1044E000C00249084905A1F5001191420BD194F889
:1044F000401000E06AE04908490600F0C060A1F100
:10450000007181424BD00C2E73D02868400170D4CA
:10451000286820F080702860FEF752FE064604E00E
:10452000FEF74EFE801B022857D828688001F7D47A
:10453000F4E90B016FF00F0202EB01110843218A2D
:104540005204490802EB4151A26841EA02210843A2
:10455000217D4FF07E42490802EB41610843217BF7
:1045600040EAC160E968244A11400843E8602868CD
:1045700040F080702860E86800E03AE040F0807029
:10458000E860FEF71DFE044605E000BFFEF718FEDA
:10459000001B022821D828688001F7D527E0286869
:1045A000800124D4286840F080702860E86840F0DA
:1045B0008070E860FEF704FE044604E0FEF700FEAB
:1045C000001B022809D828688001F7D50FE000BF3A
:1045D000FEF7F6FD001B022802D90320BDE8F88390
:1045E00028688001F4D4E86804490840E8600020A5
:1045F000F4E70120F2E700008C809D01FCFFEEFE55
:1046000010B500680B4641680D480140080CD87091
:10461000C1F304245C7001F03F049C70C1F342318B
:10462000197052B901F004FCD870587801F000FC00
:104630005870987801F0FCFB9870002010BD0000C5
:104640003FFFFF0010B50B460168896A5960016899
:104650000969C1F30E019960006801680D480140C5
:10466000C1F305401870C1F306245C7001F07F04AB
:104670009C70890DD97052B901F0DAFB1870587826
:1046800001F0D6FB5870987801F0D2FB98700020AA
:1046900010BD00007F7F7F0010B504004FF00100C7
:1046A00048D094F8210028B9002084F82000204642
:1046B00000F04AF8022084F821002068C168C9434C
:1046C000C90638D5CA214162216853204862204674
:1046D00001F0C4FBB0B9206881681A4A11408160BA
:1046E000216888686268A369104322691A431043ED
:1046F00088602168E068086120680169228941EAD0
:1047000002410161204601F0CDFB00280DD1216856
:10471000CA6C22F00302CA646269E16941EA0201DB
:104720002268D36C41EA0301D16422684FF0FF0193
:10473000516202D010BD4FF000004FF0010184F82B
:10474000211010BDBFFF8FFF10B598B004465C214B
:104750006846FBF786FD0B492068884210D14FF46C
:1047600000300090001216906846FFF723FA08B157
:10477000FCF79EFF044850F8901F41F4004101608F
:1047800018B010BD002800400010024070B504466B
:1047900090F820000B4601281BD0012684F82060E9
:1047A000022084F82100B2B19878D97840EA014516
:1047B00058781978000240EA413005432168CA2040
:1047C0004862216853204862204601F047FBD0B17F
:1047D00020E0022070BD5878C10603D500F0EF003C
:1047E0000A305870D87801F02CFB0504587801F095
:1047F00028FB45EA0025987801F023FB054318784B
:1048000045EA4035DAE7084805402068456020461B
:1048100001F048FB2268FF21516208B984F8216049
:10482000002184F8201070BD3FFFFF002DE9F0410A
:10483000044690F8200090460D46012811D001272B
:1048400084F82070022084F821002168CA20486280
:10485000216853204862204601F000FB002618B171
:1048600029E00220BDE8F0812068B8F1000F8068DF
:104870004FEA406024D0002800DBEE70A878297849
:10488000EA7840EA01406978090241EA8251084326
:1048900018490840216808602068816821F4802157
:1048A0008160D5E90301084321688A681043886064
:1048B000204601F0F7FA2268FF215162A0B115E00D
:1048C000002800DBEE70287801F0BBFA030468785A
:1048D00001F0B7FA43EA0023A87801F0B2FA0343E3
:1048E000E87843EA8050D3E784F8217084F82060A8
:1048F000B8E700007F7F7F0070B504460B48216851
:10490000C860FEF75DFC05464FF47A7607E000BF0D
:10491000FEF756FC401BB04201D9032070BD206851
:10492000C0688006F4D5002070BD00005FFF030062
:1049300010B5401EB0F1807F01D3012010BD4FF0B3
:10494000E02460610F21601702F05AFA0020A06194
:1049500007202061002010BD7047704770477047E6
:104960002DE9F04104460068C66805694FF000076C
:10497000A90713D5B10711D5F91E016101202077D0
:10498000206880698007204602D0FFF7E8FF04E036
:1049900000F08BF8204600F089F82777680716D5D5
:1049A000700714D521686FF0040008610220207799
:1049B0002068806910F4407F204602D0FFF7CFFFC7
:1049C00004E000F072F8204600F070F8277728071E
:1049D00015D5300713D521686FF008000861042051
:1049E00020772068C0698007204602D0FFF7B7FF14
:1049F00004E000F05AF8204600F058F82777E8065F
:104A000016D5F00614D521686FF010000861082053
:104A100020772068C06910F4407F204602D0FFF75D
:104A20009EFF04E000F041F8204600F03FF82777B1
:104A3000E80708D0F00706D021686FF00100086190
:104A4000204600F035F8280601D4A80408D5300621
:104A500006D521686FF4025008612046FFF77DFFFC
:104A6000E80508D5300606D521686FF48070086126
:104A70002046FFF771FF680608D5700606D5216845
:104A80006FF040000861204600F020F8A8060AD523
:104A9000B00608D521686FF0200008612046BDE807
:104AA000F041FFF75BBFBDE8F08170477047000041
:104AB00000680449884203D103480168491C016029
:104AC000704700000010004010000020704710B533
:104AD0000446D0F88000202801D0022010BD61B12A
:104AE0005AB10120206600206066204602F024F8BA
:104AF0000028F3D1216E012901D0012010BD2268C8
:104B000010211162226852E8001F41F0100142E8B2
:104B10000013002BF6D110BD0E4A006812689042B7
:104B200016D10D484278C2EBC203C3EBC21200EBB0
:104B30004202A2F8F4104178491CC9B2417014290C
:104B400001D1002141700178491C0170FCF778BC4B
:104B500070470000380A0020C00B002070477047E3
:104B60002DE9F04102680446D0691168936840F667
:104B70000F0528424FF000054FF0020605D18706C9
:104B80007ED58F067CD5A16E33E1DFF894C203F0A9
:104B9000010701EA0C0C57EA0C0C71D05FEAC07CEB
:104BA0000CD05FEAC15C09D54FF0010CC2F820C0FF
:104BB000D4F8842042F00102C4F88420820709D589
:104BC000DA0707D022681662D4F8842042F0040283
:104BD000C4F8842042070AD5DA0708D023680422E3
:104BE0001A62D4F8842042F00202C4F8842002073A
:104BF0000CD501F020023A4308D0236808221A623B
:104C0000D4F8842042F00802C4F8842002050BD5B1
:104C10004A0109D523684FF400621A62D4F884204F
:104C200042F02002C4F88420D4F88420002A36D030
:104C3000800605D5880603D5A16E09B120468847B0
:104C4000D4F8840021688968490602D410F0280F3E
:104C500027D0204601F076FD2068806840061BD5ED
:104C60002068083050E8001F21F0400140E80012A1
:104C7000002AF5D1606F78B16A498163606F00E006
:104C800015E0FDF7C5FF002809D0606F816B00E0DB
:104C90002046BDE8F04108472046FFF760FFBDE829
:104CA000F0812046FFF75BFFC4F88450F7E7D4F8A3
:104CB00060C02027BCF1010F7ED15FEAC06C7BD5BC
:104CC0005FEAC16C78D510201062206880684006C9
:104CD0004FD5616F0A6850680004000C3DD0B4F8ED
:104CE0005830834239D9A4F85A0008680068800611
:104CF0002BD4206850E8001F21F4807140E8001296
:104D0000002AF6D12068083050E8001F21F0010188
:104D100040E80012002AF5D12068083050E8001F52
:104D200021F0400140E80012002AF5D1C4F880705B
:104D30002566206850E8001F21F0100140E80012AD
:104D4000002AF6D1606FFDF73DFF6666B4F85800A3
:104D5000B4F85A10401A81B207E0B4F858108142F2
:104D60009DD1106880069AD566662046FFF7D4FE6E
:104D700095E7B4F85800B4F85A10401A81B2B4F864
:104D80005A0000288BD0002989D0226852E8000FF1
:104D900020F4907042E80003002BF6D12068083020
:104DA00050E8002F22F0010240E80023002BF5D14B
:104DB000C4F88070256600E00AE0A566226852E823
:104DC000000F20F0100042E80003002BF6D1CBE7E3
:104DD000C60209D55B0207D54FF480101062204649
:104DE000BDE8F041FFF7BABE020606D50A0604D5B3
:104DF000E16E00297FF44CAF51E74006B8D5480674
:104E0000B6D52046026852E8001F21F0400142E872
:104E10000013002BF6D1C767C56600F0FDF93EE729
:104E200020010004E165000810B5040002D0E06F25
:104E300010B107E0012010BD002084F87800204662
:104E400000F026F82420E0672068016821F00101C5
:104E50000160606A10B1204601F00AFB204601F0B3
:104E60006BFD0128E7D02068416821F49041416042
:104E70002068816821F02A0181602068016841F082
:104E8000010101602046BDE8104001F055BB000063
:104E90002DE9F0439DB00646142117A8FBF7E1F970
:104EA0005C216846FBF7DDF961493068614C0327F6
:104EB00002254FF007094FF00008884229D1012050
:104EC0000090CDF820806846FEF774FE08B1FCF72C
:104ED000EFFB206E40F480402066206E00F480409E
:104EE0001C90E06C40F00200E064E06C17A900F058
:104EF00002001C90C02081E82101CDE91A794E48BA
:104F0000FEF768F8002211462520FEF7E5FD252072
:104F10002BE04A4988422DD16846CDF8248000957F
:104F2000FEF748FE08B1FCF7C3FBA06D40F400306B
:104F3000A065A06D00F400301C90E06C40F0010012
:104F4000E064E06C17A900F001001C900C2081E8DF
:104F50002101CDE91A794FF09040FEF73BF800228D
:104F600004212620FEF7B8FD2620FEF7A7FD1DB080
:104F7000BDE8F08332498842F9D10420CDF8288079
:104F800000906846FEF716FE08B1FCF791FBA06D95
:104F900040F48020A065A06D00F480201C90E06C9F
:104FA00040F00400E064E06C19AA00F004001C90DA
:104FB0003020CDE91705444682E8900217A9214820
:104FC000FEF708F8214F20484FF080093860C7E904
:104FD0000154C7E903497C614FF48058BC61C7E9BB
:104FE00007483846FDF7A6FE08B1FCF761FB776776
:104FF000BE62164F144848371438E7E802051020FF
:10500000A7E81102114847F814494830BC61C7E9C4
:105010000748FDF78FFE08B1FCF74AFB376700220F
:1050200002212720BE62FEF757FD27209DE70000E2
:1050300000380140001002400004004800440040D5
:10504000004800400008004830000240C00A00202C
:1050500030B4D0F88030202B02D0022030BC704712
:10506000A9B1A2B1002303660A4C0368A3420BD086
:105070005B681B0208D5046854E8003F43F0806376
:1050800044E80035002DF6D130BC01F0A5BD01206B
:10509000E4E70000008000400A4A016891420FD115
:1050A000094A11781F290BD2406D037807484354F1
:1050B000491CC9B21170014401220548FFF7C8BF5D
:1050C00070470000004400402C000020DC1F00203E
:1050D000B0090020704700002DE9F84F0446C06F6A
:1050E000984615460E46202802D0022000F04AB805
:1050F00086B37DB30020C4F884004FF02109C4F8C2
:105100007C90FEF75DF8A4F850508246A4F8525007
:10511000A068B0F5805F01D1206910B13546002646
:1051200000E000255FF02007B4F8520053464FF02E
:105130000002CDF80080D0B18021204601F0A8FD0A
:10514000D0B94DB115F8010B21688862E16F39EAD9
:10515000010006D00120C9E736F8020BC0F30800B1
:10516000F2E7B4F85200401EA4F85200DCE74021F8
:10517000204601F08DFD10B1E7670320B6E7E76731
:105180000020B3E718BCBDE8E08F000070B504460E
:10519000C06F202801D0022070BD29B322B3E16482
:1051A000A4F85020A4F852200021C4F88410212033
:1051B000E067206FD0B1154BC362236F14481863AA
:1051C000236F14485863206F134681632068256F4E
:1051D00000F128022846E16CFDF70EFE30B11020E8
:1051E000C4F884002020E067012070BD21684020C1
:1051F00008622068083050E8001F41F0800140E854
:105200000012002AF5D1002070BD0000FF660008E2
:105210003B670008EB65000870477047FEE70168D0
:105220008A69D243920701D400228A6200688169A8
:10523000C943C90703D0816941F001018161704709
:105240002DE9F04704460068894600268169354605
:105250001746C9064FF0200841D51021C1612FE043
:10526000B9F1FF3F2CD0FDF7ABFFC11B494502D878
:10527000B9F1000F24D12068416894F8422001F46C
:1052800080418369DB431B0415D4B1F5804F12D0F4
:10529000202A10D0416841F480414160FDF790FF21
:1052A000074608E0FDF78CFFC01B192803D945F01D
:1052B0002005012604E020688069C0438006F1D4FF
:1052C00020688069C043800602D5002EC8D003E064
:1052D00016B92168C1F81C8045F004050126216833
:1052E0008869C20505D54FF4807245F00105CA6191
:1052F0000126410509D522684FF4806145F0080573
:10530000D1610126800502D40AE0800507D5216815
:105310004FF4007045F00205C861012600E086B137
:105320002046FFF77CFF54F8240B4168064A1140E1
:105330004160206A2843206284F81D800020A07705
:1053400020773046BDE8F08700E800FE2DE9F843FD
:1053500004461646DDE9089714489846DAB20090EC
:105360000023204600F07AF83A464946204600F0ED
:105370004AF9B8B9F5B2B8F1010F08D02168300A7E
:1053800088623A464946204600F03DF950B9206807
:1053900085624B46002240212046009700F076F8B7
:1053A000002800D00120BDE8F88300000020008024
:1053B0002DE9F8430446164615489846DDE9089756
:1053C000DAB2C3020090204600F048F83A46494657
:1053D000204600F018F9B8B9F5B2B8F1010F08D0BD
:1053E0002168300A88623A464946204600F00BF9A7
:1053F00050B9206885624B460022802120460097E4
:1054000000F044F8002800D00120BDE8F883000037
:105410000020008010B50446FDF72CFF0520FDF7A5
:1054200025FD2046FDF740FF0520FDF71FFD214625
:10543000BDE8104001A001F0D3BC00004932432078
:10544000536F66745265736574CDEAB3C9A3ACCA71
:10545000B5C0FD3A2025700D0A00000010B5C1F35B
:10546000090141EA02410268029C19432143506844
:1054700021F000414FF4806303EA5453024C23436C
:1054800098430843506010BDFF63FF032DE9F041CE
:105490001D4617460E460446DDF8188027E04246B2
:1054A00029462046FFF7CCFE10B10120BDE8F0816F
:1054B000681C1CD0FDF784FEA0EB0800A84200D8B1
:1054C000ADB92068806936EA00000ED00020B842ED
:1054D0000DD154F8440F40F0200044F80409202076
:1054E00060700020A0702070DFE70120EFE72068E7
:1054F000806936EA000004D00020B842CFD00020F6
:10550000D4E70120F9E700002DE9F0470025914696
:10551000884604462E4620273DE04A46414620461E
:10552000FFF78EFE00B1012520688169C943890615
:1055300019D4C5B981698169C943C90612D410213A
:10554000C161042060642068C76120684168174A0F
:105550001140416084F8417084F8426084F84060F2
:10556000012500E06664FDF72BFEA0EB0901414533
:1055700002D8B8F1000F0ED16DB920688069C04320
:10558000400708D5606C40F02000606484F84170EA
:1055900084F84060012520688069C043400701D538
:1055A000002DBAD02846BDE8F087000000E800FED4
:1055B00070B516460D4604461EE032462946204682
:1055C000FFF73EFE08B1012070BDFDF7F9FD801B1D
:1055D000A84200D885B920688069C04380060BD5F1
:1055E00054F8440F40F0200044F804092020607073
:1055F0000020A0702070E6E720688069C043800624
:10560000DBD4002070BD70B516460D46044620E080
:10561000324629462046FFF713FE08B1012070BD2F
:10562000681C16D0FDF7CCFD801BA84200D885B9B8
:1056300020688069C04380070BD554F8440F40F0C0
:10564000200044F80409202060700020A070207021
:10565000E4E720688069C0438007D9D4002070BD8A
:105660000D4808B5816C41F001018164806C002215
:1056700000F00100009011460C20FEF72DFA0C20DE
:10568000FEF71CFA002211460D20FEF725FABDE8B0
:1056900008400D20FEF712BA001002402DE9F0413B
:1056A00086B014216846FAF7DCFD3D48C16C41F034
:1056B0008001C164C16C01F080010591C16C41F0B1
:1056C0000101C164C16C01F001010591C16C41F09F
:1056D0000201C164C06C4FF0904800F002000590D8
:1056E000002201214046FDF765FD012500240095BB
:1056F000CDE90154694640460394FDF76BFC28024E
:10570000CDE90004274F694638460294FDF762FC54
:1057100068024FF48816CDE90006694602943846BF
:10572000FDF758FC002203213846FDF743FD032016
:105730000090CDE90154694638460394FDF74AFCD0
:105740000420CDE90004694638460294FDF742FC86
:105750002020CDE90006694602943846FDF73AFC60
:10576000002201214046FDF725FD0095CDE90154B9
:10577000694640460394FDF72DFCE803CDE900049B
:10578000694640460294FDF725FC002203211720BC
:10579000FEF7A2F91720FEF791F906B0BDE8F081F7
:1057A0000010024000040048134810B51149016080
:1057B0001249416000210122C0E9021201614161E8
:1057C0008161C1610162FDF76FFD08B1FBF770FFF8
:1057D00000210948FDF7FAFC08B1FBF769FF002139
:1057E0000548FDF71EFD002803D0BDE81040FBF77B
:1057F0005FBF10BD0058004080000020E49CD11025
:10580000134810B51149016012494160002101227D
:10581000C0E90212016141618161C1610162FDF76C
:1058200043FD08B1FBF744FF00210948FDF7CEFC1A
:1058300008B1FBF73DFF00210548FDF7F2FC002809
:1058400003D0BDE81040FBF733BF10BD005C004043
:10585000D4000020E49CD1100C4810B50A49016026
:1058600000217F22C0E90112FF22C0E9032141612A
:105870008161C161FEF710FF08B1FBF719FFBDE8B8
:10588000104000F073BB000000280040500B0020C7
:1058900010B5114C0F480C2120604FF4E1306060CE
:1058A0000020A060E060C4E90401A061E061206222
:1058B00060622046FFF7B8FA08B1FBF7F9FE2068EE
:1058C000016841F0200101602068016841F0100189
:1058D000016010BD00380140280900200D4810B5B6
:1058E0000B4901604FF4E1314160002181600C22DD
:1058F000C160C0E904128161C16101624162FFF7C8
:1059000093FA002803D0BDE81040FBF7D1BE10BDCC
:1059100000440040B00900200D4810B50B4901605B
:105920004FF416514160002181600C22C160C0E932
:1059300004128161C16101624162FFF775FA0028BA
:1059400003D0BDE81040FBF7B3BE10BD00480040D7
:10595000380A0020FEE7FEE7704700002DE9F04F0F
:105960007F4D87B02C1DF5212846FAF77AFCAA2036
:105970002870552068700120E8707A48406A44F821
:10598000100B7848006A44F80C0C7648C06944F85B
:10599000080C7548006844F8040C7348406820609F
:1059A000A5F17000816C6160C16CA160016DE16066
:1059B000416D2161816D616190F85C10217690F8F4
:1059C0005D10617690F85E10A17690F85F10E17638
:1059D00090F86010217790F86110617790F862106C
:1059E000A177416EC4F81F1090F8681084F8231056
:1059F000016861624168A1628168E162C1682163F6
:105A0000016961634169A1638169E163C1692164DD
:105A1000016A6164416AA164816AE164C16A2165C5
:105A2000016B6165416BA165816BE165C16B2166AD
:105A3000016C616690F84400792684F86800AE70C5
:105A4000314600202A461318401C1B7980B21944A5
:105A5000C9B2B042F7D382F8F4104149721D01F186
:105A6000F500FAF7E5FB3F4C3D4A731D2381F53203
:105A700004210320FBF7E6FA21893CA001F0B0F9EC
:105A80003948D0ED000A9FED441A80EE810A10EEED
:105A9000100AFAF77BFD81468A46E069FAF776FD3F
:105AA00007468846206AFAF771FD05460E46606A89
:105AB000FAF76CFD8DE8E00741EC100B37A053ECD2
:105AC000102B01F08DF9264D283D2869FAF75EFD6F
:105AD00002AFAA7D6B7D2E7D87E84300CDE90532BC
