:020000040800F2
:1000000008240020A50100080F3D00086534000801
:100010000D3D00086B0B0008FD4C000800000000BF
:10002000000000000000000000000000494100083E
:10003000B30B000800000000113D00085542000805
:10004000BF010008BF010008BF010008BF01000890
:10005000BF010008BF010008BF010008BF01000880
:10006000BF010008BF010008BF010008BF01000870
:100070006D0B0008790B0008BF010008BF010008E4
:10008000BF010008BF010008BF010008BF01000850
:10009000BF010008BF010008BF010008D90B00081C
:1000A000BF010008BF010008BF010008BF01000830
:1000B000BF0100080000000000000000BF010008B0
:1000C000BF010008BF010008BF010008BF01000810
:1000D000BF010008694C0008E54C0008F14C00081D
:1000E000BF010008BF010008000000000000000080
:1000F0000000000000000000000000000000000000
:1001000000000000BF01000800000000BF0100085F
:100110000000000000000000D9420008BF010008F4
:10012000BF010008BF010008BF010008BF010008AF
:10013000BF010008000000000000000000000000F7
:10014000BF010008BF010008BF0100080000000057
:10015000BF010008BF010008BF010008BF0100087F
:10016000BF010008BF010008BF0100080000000037
:10017000BF010008BF0100080000000000000000EF
:10018000BF010008BF010008BF010008DFF810D060
:1001900000F038FB00480047F15A0008AFF3008038
:1001A000082400200648804706480047FEE7FEE78F
:1001B000FEE7FEE7FEE7FEE7FEE7FEE7FEE7FEE717
:1001C000C94200088D0100082DE9F05F05460020B6
:1001D00092469B4688460646814640241BE02846B8
:1001E00041464746224600F0B8F953465A46C01ADF
:1001F000914110D311461846224600F09FF92D1A5E
:1002000067EB01084F4622460120002100F096F9D5
:1002100017EB00094E41201EA4F10104DFDC484623
:1002200031462A46434600F000B830BCBDE8C09FC6
:10023000D2B201E000F8012B491EFBD27047002228
:10024000F6E710B513460A4604461946FFF7F0FFD5
:10025000204610BD2DE9FE4F804681EA0300C00F05
:100260000C46009021F0004123F00045B8EB02005D
:10027000A94105D24046214690461C460B460246FF
:1002800023F00040104347D0270DC7F30A00C3F303
:100290000A510290401A019040286BDAC3F3130010
:1002A00040F4801B0098924620B10023D2EB030A51
:1002B00063EB0B0B01985946C0F14002504600F029
:1002C0003DF906460D4650465946019A00F055F94B
:1002D00010EB08006141002487EA115284EAE773B9
:1002E0001A4340D0009A62B3019A012A4FEA07529A
:1002F00015DC001B61EB02014FF0004202EA0752DD
:10030000CDE90042001C41F5801132462B4600F039
:100310008CF903B000F045B840462146F9E7001BD0
:1003200061EB0201001C41F5801300185B412018AD
:10033000A2F5001747EB030140EAD570B6196D41ED
:1003400011E06D084FEA360645EAC0754FEA0752DC
:10035000001B61EB0201001C41F5801149084FEAC6
:1003600030000019514132462B4603B000F01CB852
:1003700000F04CB90098012240000023D0EB0202AB
:1003800063EBE073009821464FEAE074B8EB00009D
:1003900061EB0401E9E783F000435BE781F0004192
:1003A00058E730BCBDE8C08F30BCBDE8C04FFFF798
:1003B000DFBF2DE9FE4F81EA030404F0004421F081
:1003C000004100944FF0000B23F0004350EA010479
:1003D0005ED052EA03045BD0C3F30A54C1F30A555A
:1003E0002C44A4F2F3340194A0FB0254C1F3130192
:1003F00041F48011C3F3130343F4801301FB02445F
:1004000000FB034E840A970A44EA815447EA835763
:10041000A4FB076802958D0A05FB07854FEA932C1C
:1004200004FB0C542705029D4FEA065847EA16378D
:10043000B5EB08056EEB070C870E920E47EA8117A5
:1004400042EA8312A7FB0201B6EB0B0164EB000446
:100450002B0D43EA0C335E1844EB1C50DA46514630
:10046000E7FB0201C5F313044FEA0B3343EA1453CD
:100470004FEA0432019C43EA0603A4F10C040294FF
:10048000009CCDE900B400F0D0F803B000F003B850
:1004900000200146F9E730BCBDE8C08F0EB5C10FA2
:1004A00080EAE0700844CA07002140F233438DE837
:1004B0000E000A460B4600F0B8F803B000BD0EB5BA
:1004C00040F2334102910021CDE900110A460B466A
:1004D00000F0ABF803B000BD01F0004330B421F0F0
:1004E000004150EA010206D00A0DA2F56072C1F384
:1004F0001301002A02DC30BC00207047440F44EA9C
:10050000C104C100E01830BC00EBC25000F047B895
:1005100030B50B46014600202022012409E021FAD3
:1005200002F59D4205D303FA02F5491B04FA02F5D0
:100530002844151EA2F10102F1DC30BD202A04DBA3
:10054000203A00FA02F1002070479140C2F12003E6
:1005500020FA03F3194390407047202A04DB203A25
:1005600021FA02F00021704721FA02F3D040C2F1D3
:1005700020029140084319467047202A06DBCB171A
:10058000203A41FA02F043EAE07306E041FA02F34E
:10059000D040C2F12002914008431946704700291B
:1005A000A8BF7047401C490008BF20F001007047F9
:1005B00010B4B0FA80FC00FA0CF050EA010404BF59
:1005C00010BC704749B1CCF1200421FA04F411FAAF
:1005D0000CF118BF012121430843A3EB0C01CB1DF3
:1005E0004FEA00614FEA102042BF002010BC704764
:1005F00000EBC35010440029A4BF10BC7047401C3E
:10060000490008BF20F0010010BC704710B5141E4F
:1006100073F1000408DA401C41F1000192185B41BB
:100620001A4301D120F0010010BD2DE9F04D924692
:100630009B4611B1B1FA81F202E0B0FA80F22032A9
:100640009046FFF77BFF04460F4640EA0A0041EA66
:100650000B0153465A46084313D0114653EA010092
:1006600019D0C8F140025046FFF777FF05460E4605
:10067000504659464246FFF761FF084305D0012026
:1006800004E020463946BDE8F08D0020054346EAE7
:10069000E0762C4337430A986305E40AA0EB080090
:1006A0000022FD0A44EA47540A3002D500200146E0
:1006B000E9E7010510196941DDE9084500196941BB
:1006C000BDE8F04DA2E72DE9F04D81EA030404F006
:1006D000004B21F0004514464FF0000A23F0004182
:1006E00050EA050220D054EA01021DD0C5F30A5792
:1006F0000246C5F31303C1F31300C1F30A5640F4D5
:10070000801543F48013A7EB0608101BD64608F2A9
:10071000FD3873EB050002D308F1010801E09218DF
:100720005B41B8F1000F03DA00200146BDE8F08D0F
:1007300000204FF48011064684460EE0171B73EB31
:10074000050705D3121B63EB050306434CEA010CB6
:1007500049084FEA300092185B4150EA0107EDD199
:1007600052EA030012D082EA040083EA050108433A
:1007700005D0101BAB4106D20122002306E0002267
:100780004FF0004302E06FF0010253101AEB060035
:100790004CEB085110EB0A0041EB0B01BDE8F04DAA
:1007A000FFF734BFC1F30A52C1F3130140F2FF3324
:1007B00041F480119A4202DA00200146704740F26B
:1007C00033439A42A2F2334202DC5242FFF7C5BEE3
:1007D000FFF7B4BE30B5041E71F1000404DB4FF026
:1007E0000044404264EB0101141E73F1000405DB78
:1007F0001C464FF00043524263EB0403994208BF8A
:10080000904230BD064C074D06E0E06840F0010321
:1008100094E8070098471034AC42F6D3FFF7BAFCCF
:10082000045D0008245D00083EB505004FF000009F
:1008300002900090019026D0294605F0B9F80028D2
:1008400020D1294602A804F003FF00281AD1012470
:100850008DF80A40294602A805F073F8002811D146
:100860008DF800408DF801408DF802408DF803406E
:100870002946684605F017F8002803D129460320C9
:1008800005F096F83EBD4FF0FF303EBD3EB5050089
:100890004FF000000C4601900290009016D0ACB1D1
:1008A0002946684604F0D4FE00280ED12A4669463F
:1008B00001A804F065FF002807D19DED010A84ED31
:1008C000000A9DED020A84ED010A3EBD4FF0FF30A3
:1008D0003EBD000010B5040013D0012060750A4829
:1008E000A0600A48E0600A4820610020606020465D
:1008F00004F094FF002806D12046BDE8104005F022
:10090000B8B84FF0FF3010BD85090008A9090008EC
:100910005D09000810B50649064800F094F808B1D2
:10092000002010BD04A004F0EBF9012010BD000070
:1009300038000020480000205B543131375D2049E9
:100940006E6974204572723A2042535020696E6974
:1009500074206661696C65640D0A000010B54FF083
:10096000E0239A690549064C0968B1FBF4F141435B
:100970009869101A8842FBD310BD000020000020A7
:1009800040420F000EB5642392B28DE80E0002467D
:1009900001238E21034800F00BFF002801D06FF0E7
:1009A00001000EBD480000200EB5642392B28DE810
:1009B0000E00024601238E21034800F0AFFF0028FD
:1009C00001D06FF001000EBD4800002010B50A48AC
:1009D000FFF780FF09A004F093F90748FFF724FF11
:1009E000040003D001460BA004F08AF90EA004F025
:1009F00087F9204610BD0000C41F0020424D50352D
:100A0000383020496E697420537563636573730DC4
:100A10000A000000436F6E666967204661696C6575
:100A2000642025640D0A0000424D503538302043C3
:100A30006F6E66696720537563636573730D0A0093
:100A4000032100F02FB838B50C46050028D03CB380
:100A500000F076F8002822D0322000F065FA00205D
:100A60008DF800006A4621462846FFF7E9FF002876
:100A700015D0C0222146284600F046F800280ED0A6
:100A800008222146284600F026F8002807D0012237
:100A90002146284600F03BF8002800D0012038BD50
:100AA000002038BD77B581B0154664240646012381
:100AB00002AA8021009400F0D1FD38B901232A4612
:100AC00081213046009400F033FD10B1002004B0C5
:100AD00070BD0120FBE738B50546002014468DF8AF
:100AE00000006A4605212846FFF7DCFF00280AD0EF
:100AF0009DF80000052120F0180222438DF8002007
:100B0000284600F021F838BD042100F01DB838B5A2
:100B10000546002014468DF800006A460521284647
:100B2000FFF7C0FF00280AD09DF80000052120F043
:100B3000010222438DF80020284600F005F838BD58
:100B40006A221721AFF300801CB502238DF8041030
:100B500064218DF80520009101AA802100F07EFD1E
:100B600008B100201CBD01201CBDFEE7014800F0BB
:100B7000D5B80000D00A0020014800F0CFB800002E
:100B8000880A002030B590F8444004F01C05012488
:100B9000AC40056C6C60046863608368102B03686C
:100BA00003D099600068C26030BD9A600068C1607F
:100BB00030BD704706484178C1EBC102C2EBC1119C
:100BC00000EB4101F0220348091D02F0ECB80000DF
:100BD000880B0020000A002070B500F049FB1D4B77
:100BE00040F2DE3520221968441A1B49AC4205D276
:100BF0000A60086840F02000086070BD186008684E
:100C00008006FAD50A60086840F0200008600A6093
:100C100003F0BAF911488178491CC9B281703C29A6
:100C200012D3002181704278521CD2B242703C2A09
:100C30000AD341700278521CD2B20270182A03D330
:100C40000170C178491CC170BDE87040034803F0D1
:100C5000CBB900000000002014040140080000206F
:100C600072B6FEE710B52C210348FFF7E8FA0249F7
:100C7000002081F8280010BD641F0020FFF7F2BF9C
:100C800010B540B190F825100022022905D00421AA
:100C9000C16380F82420012010BD01680B6823F097
:100CA00001030B6001680B6823F00E030B6090F8E2
:100CB0004410046C01F01C03012101FA03F363608A
:100CC00080F8251080F82420002010BD10B590F881
:100CD00025100024022903D00421C16301241AE055
:100CE00001680A6822F001020A6001680A6822F0BD
:100CF0000E020A6090F84410036C01F01C020121FE
:100D000001FA02F25A6080F82510002180F82410C0
:100D1000816B01B18847204610BD0000F0B4016C22
:100D20000D6801680C6890F8442002F01C0604224B
:100D300002FA06F32B4211D063070FD50B689B060E
:100D400003D40B6823F004030B6090F8441001F007
:100D50001C018A40016C4A60016B26E0022202FA03
:100D600006F72F424FF0000C4FF0010321D0A707E8
:100D70001FD50C68A40605D40C6824F00A040C6086
:100D800080F82530184B0168994290F8441001F022
:100D90001C0102FA01F202D914490A6002E0124968
:100DA00080394A6080F824C0C16A00291AD0F0BC9A
:100DB00008470822B2402A4214D0220712D50A68F6
:100DC00022F00E020A6090F84410026C01F01C013F
:100DD00003FA01F15160C36380F8253080F824C024
:100DE000416BE2E7F0BC704780000240040402401F
:100DF00010B568B12C4C026814232C49A24209D2C8
:100E00002B4C1444B4FBF3F39B00C0E910130BE02C
:100E1000012010BD244C64421444B4FBF3F39B0046
:100E20004364214B083B0364022380F82530136898
:100E300047F6F074A3431360D0E902231A43D0E9C4
:100E4000043423431A4383691A43C3691A43036A68
:100E50001A4303681C6822431A608268B2F5804F07
:100E600019D0036C0F228B4202D151F8A83F02E047
:100E70000D49A0310B6890F8444004F01C04A240D6
:100E800093430B6090F84430426803F01C039A408F
:100E90000B681A430A600021C163012280F82520F3
:100EA00080F82410084610BD0804024000000240EB
:100EB000F8FFFDBF70B5044690F824000025012816
:100EC0000ED0012084F8240094F825600020012E23
:100ED00008D08021E16384F824000125284670BDF4
:100EE000022070BD022684F82560E0632068066851
:100EF00026F0010606602046FFF744FE206B00281E
:100F00002068016802D041F00E0106E021F00401E2
:100F100001602068016841F00A01016020680168F1
:100F200041F001010160D9E770B5044600F0A0F975
:100F30000546601C02D004480078044400F098F98B
:100F4000401BA042FAD370BD140000202DE9F84FD9
:100F500000230126DFF818C10F2782E006FA03F408
:100F600014EA01027CD023F003056544AA46D5F8B3
:100F700008909D074FEA157E07FA0EF505EA090B62
:100F80000095B0F1904F05D03A4DA84205D14FF0F1
:100F9000010816E04FF0000813E0374DA84202D1D7
:100FA0004FF002080DE0354DA84202D14FF0030882
:100FB00007E0334DA84202D14FF0040801E04FF0A2
:100FC000070808FA0EF8D84526D1DFF8B880D8F817
:100FD000009029EA0209C8F8009008F10408D8F83E
:100FE000009029EA0209C8F80090DFF8988008F11B
:100FF0000C08D8F8009029EA0209C8F80090A8F176
:101000000408D8F800509543C8F80050009DDAF85D
:101010000820AA43CAF80820D0F800804FEA430904
:10102000032202FA09F248EA0208C0F80080DD084B
:1010300000EB8505AA46D5F820804FEA43794FEAB0
:10104000D96907FA09F528EA0508CAF820808568F1
:10105000954385604568A5434560C4689443C46072
:101060005B1C31FA03F27FF479AF00F00DB8000099
:10107000000001400004004800080048000C00483F
:10108000001000480004014018BCBDE8E08F0000DB
:101090002DE9F04FDFF8AC9100230325A9F1040BF3
:1010A00085B04FF0010C0F2709F1040AABF1040ED3
:1010B000BFE000BF0CFA03F6324075D00C7904F0A3
:1010C0000304012C01D0022C1BD1846800945C0025
:1010D00005FA04F80494009C24EA08040094D1F86A
:1010E0000C80049C08FA04F8009C48EA0408C0F844
:1010F00008804468B4430E79C6F300169E40264328
:1011000046600C79E443A4070AD0C4684FEA430858
:1011100005FA08F6B4438E6806FA08F62643C66058
:101120000C7904F00304022C10D1DC0800EB8404D9
:101130000294246A5E074FEAD66807FA08F6B443B9
:101140000E6906FA08F62643029C266204684FEAF6
:10115000430805FA08F6B4430E7906F0030606FACA
:1011600008F6264306604C6814F4403F60D0364CC5
:10117000266E46F001062666246E23F0030604F070
:1011800001040094314C34440294A4689E074FEA51
:10119000167807FA08F6B443B0F1904F05D02C4EFC
:1011A000B04204D1012612E042E000260FE0294EB1
:1011B000B04201D102260AE0274EB04201D10326F7
:1011C00005E0264EB04201D1042600E0072606FACB
:1011D00008F62643029CA660D9F800604C46D1F878
:1011E000048096435FEAC82800D516432660DAF8E3
:1011F00000405646D1F8048094435FEA882800D521
:1012000014433460DBF800405E46D1F80480944318
:101210005FEA883800D514433460DEF80040764633
:10122000D1F8048094435FEAC83800D51443346091
:101230005B1C0A6832FA03F47FF43CAF05B000F09F
:101240000FB80000080401400010024000000140F7
:101250000004004800080048000C00480010004846
:1012600030BCBDE8C08F0AB18161704781627047B0
:1012700001488068704700001400002090F8412069
:10128000202A24D190F84020012A20D0012280F881
:101290004020242280F841200268136823F00103D3
:1012A00013600268136823F48053136002681368A4
:1012B0000B43136001680A6842F001020A602021B2
:1012C00080F84110002180F8401008467047022045
:1012D000704790F84120202A22D190F84020012A1E
:1012E0001ED0012280F84020242280F8412002688C
:1012F000136823F0010313600268136823F470631A
:1013000043EA0121116001680A6842F001020A60A3
:10131000202180F84110002180F8401008467047D5
:101320000220704710B5040013D0242084F8410037
:101330002068016821F001010160204600F09EFB59
:101340000020606484F8410044F8300FA0742074D9
:1013500010BD012010BD000070B5040004D094F849
:101360004100002510B106E0012070BD84F8405016
:10137000204600F0B1FB242084F841002068016879
:1013800021F0010101606068216820F0706008614F
:101390002068816821F400418160E0680128A0682C
:1013A00030D040F4044021688860E068022820685A
:1013B00041682AD021F40061416020684168144AE4
:1013C000114341602068C16821F40041C160D4E943
:1013D00004010843A16940EA01202168C860D4E9FA
:1013E00007010843216808602068016841F0010195
:1013F00001606564202084F84100256384F8425030
:10140000002070BD40F40040CDE741F40061D3E717
:10141000008000022DE9FC4700250446019590F864
:1014200041001E4692468946202872D12068806974
:10143000C04300046DD594F84000012869D0012014
:1014400084F84000242084F8410065644FF02008AF
:10145000E06801280AD0304949EA01002F490840D4
:1014600021684860FFF704FF07460CE02C4949EA71
:1014700001002C49F3E7701C05D0FFF7F9FEC01BF3
:10148000B0423AD8CEB3216888698969C0F3401068
:10149000C1F300110843EED020688169C943C90631
:1014A00019D53346002220212046009702F0AEF9DC
:1014B00038B1606C04281BD12168C1F81C806564B8
:1014C00016E02168C1F81C8084F8418084F84050FF
:1014D000002000F029B81021C161334600222021EC
:1014E0002046009702F092F910B92168C1F81C80DB
:1014F0000198401C01905045AAD384F8418054F8CB
:10150000440F40F0200044F8040901202570E0E772
:10151000FFE70220DDE7000000280002FF2B0002A9
:1015200000200002FF2300020CBCBDE8F087000091
:101530002DE9F84F044690F84100DDF828A09846C0
:1015400091468B4620287ED194F8400001287AD01D
:10155000012784F84070FFF78BFE064601220090B9
:101560001923D103204602F051F9E0BB222084F870
:101570004100102084F8420000256564C4F82490DE
:10158000A4F82A806563618D30484FF080784FF071
:101590000079FF2903D927853A46009039E0618D0B
:1015A000218500903AE05946204602F017F913E0F1
:1015B00002F06AF9B8B92068406A616A0870606A26
:1015C000401C6062208D401E80B22085618D491EC6
:1015D0006185618D01B168B1608D32460028514648
:1015E0002046E5D100E002E002F0A2F9D0B10120EE
:1015F00000F030B85346002280212046009602F0C9
:1016000005F90028F3D1608DFF2804D9FF22228537
:1016100000954346C7E7608D2085009594F8282003
:101620004B46C0E721682020C86121684A68084B02
:101630001A404A6084F8410084F8425084F84050CF
:101640000020D5E7FFE70220D2E700000024008059
:1016500000E800FE18BCBDE8E08F00002DE9FF4F58
:1016600081B0044690F84100DDF838B01F4690463E
:1016700020287BD194F84000012877D0012084F8FD
:101680004000FFF7F5FD0646012200901923D10323
:10169000204602F0BBF8002853D1212084F84100F5
:1016A000102084F8420000256564C4F82480678512
:1016B0006563608D3A49FF274FF080794FF0007ADB
:1016C000FF2802D927854B4605E0608D2085000460
:1016D0005346000C10D0226898F800009062606AAF
:1016E000401C6062608D401E6085208D401E2085FC
:1016F000401CC2B2009101E00022009120460299F4
:1017000002F06CF814E000BF02F03DF9C8B9606A5D
:10171000216800788862606A401C6062608D401EAB
:101720006085208D401E80B22085618D01B160B141
:10173000608D3246002859462046E5D102F0F8F87F
:10174000E0B1012005B000F02FB85B4600228021F7
:101750002046009602F05AF80028F2D1608DFF284A
:1017600005D927853A464B460095C7E716E0608DB8
:101770002085009594F828205346BFE72168202053
:10178000C86121684A68074B1A404A6084F84100E2
:1017900084F8425084F840500020D3E70220D1E77B
:1017A0000020008000E800FE30BCBDE8C08F0000D3
:1017B0002DE9FF4F83B00446DDE9108790F8410022
:1017C000DDF848A09B46202876D15FEA080015D0B6
:1017D000A7B194F8400001286ED04FF0010984F8B9
:1017E0004090FFF745FD0646012200901923D103E2
:1017F000204602F00BF8002872D103E04FF400708D
:1018000060646DE0222084F84100402084F84200AA
:1018100000256564C4F8248067856563CDE900A66A
:10182000DDE904125B46204601F074FF10B184F834
:10183000405055E0618D35484FF080774FF000788B
:10184000FF2905D9A4F828904A463B46009005E0B8
:10185000618D2185009094F8282043462046049904
:1018600001F0BCFF5346002204212046009601F0FF
:10187000CDFFA8BB2068406A616A0870606A401C9E
:101880006062208D401E81B22185608D401E608582
:10189000608DE0B1D9B953460022802120460096E0
:1018A00001F0B4FFE0B9608DFF2806D9A4F82890B4
:1018B0004A463B46009506E026E0608D208500956F
:1018C00094F8282043462046049901F087FF608D54
:1018D0000028C7D132465146204602F029F818B1F7
:1018E000012007B000F016B821682020C8612168E7
:1018F0004A68074B1A404A6084F8410084F8425015
:1019000084F840500020ECE70220EAE70024008041
:1019100000E800FE30BCBDE8C08F00002DE9FF4F9D
:1019200083B00446DDE9108790F84100DDF8489067
:101930009A469346202871D15FEA080014D09FB1DF
:1019400094F84000012869D0012084F84000FFF796
:101950008FFC0646012200901923D103204601F096
:1019600055FF00286ED103E04FF40070606469E019
:10197000212084F84100402084F84200002565645D
:10198000C4F8248067856563CDE9009653465A46BE
:101990002046049901F0F0FE10B184F8405051E067
:1019A000608DFF274FF080784FF0007AFF2804D930
:1019B00027853A464346009505E0608D20850095D1
:1019C00094F8282053462046049901F007FF324638
:1019D0004946204601F0D7FFA0BB606A2168007825
:1019E0008862606A401C6062608D401E6085208D48
:1019F000401E80B22085618DD9B1D0B94B460022FE
:101A000080212046009601F001FFD8B9608DFF28A3
:101A100005D927853A464346009506E026E0608DC5
:101A20002085009594F8282053462046049901F01B
:101A3000D5FE608D0028CAD132464946204601F0C5
:101A400077FF18B1012007B000F014B820682021FA
:101A5000C16120684268064B1A40426084F8411018
:101A600084F8425084F840500020ECE70220EAE776
:101A700000E800FE30BCBDE8C08F000010B5006873
:101A8000114A1249124C90420AD1886D20F480000C
:101A9000886509152046FFF759FA4FF400610CE0FC
:101AA0000C4A90420ED1886D20F400008865802198
:101AB0004FF09040FFF74AFA10212046BDE8104051
:101AC000FFF744BA10BD000000580040001002406B
:101AD00000040048005C00402DE9F04F9DB0044632
:101AE000142117A8FEF7ABFB5C216846FEF7A7FBA5
:101AF000374920688026374C1227DFF8DCB00025F4
:101B00004FF003094FF0040A884222D1684600963C
:101B10000D9500F035F908B1FFF7A2F8E06C40F040
:101B20000200E064E06C19AA00F002001C904FF47F
:101B30004060CDE9170782E8200617A95846FFF74D
:101B4000A7FAA06D40F48000A065A06D00F48000AD
:101B500039E02249884237D1801500900E956846B9
:101B600000F00EF908B1FFF77BF8E06C40F00100DF
:101B7000E064E06C00F001001C90E06C40F00200BA
:101B8000E064E06CCDE9176700F00200CDE91BA02E
:101B9000CDE91959B8464E46574617A94FF090401F
:101BA000FFF776FA1020CDE9170819AA17A982E8DD
:101BB000E0005846FFF76CFAA06D40F40000A06505
:101BC000A06D00F400001C901DB000F009B80000EA
:101BD000005800400010024000040048005C004033
:101BE00030BCBDE8C08F0000024881680278114413
:101BF000816070471400002010B50024032000F01D
:101C000071F80F2000F008F808B1012401E000F09D
:101C100025F8204610BD000070B50E4E0546002484
:101C2000307898B14FF47A71B1FBF0F00A49096845
:101C3000B1FBF0F000F062FF40B9102D06D2002297
:101C40002946501E00F02EF8756000E00124204661
:101C500070BD00001400002020000020094808B5D5
:101C6000016E41F001010166016E01F00101009178
:101C7000816D41F080518165806D00F08050009051
:101C800008BD000000100240002809DB00F01F0220
:101C9000012191404009800000F1E020C0F80011CE
:101CA00070470000F0B40E4B1B680C46C3F30223D0
:101CB000C3F10705042D00D90425191D072901D2F8
:101CC000002300E0DB1E012606FA05F1491E214033
:101CD00099409E40761E16403143F0BC03F020B878
:101CE0000CED00E0064900F0070208684FF6FF031C
:101CF000184040EA0220034A104308607047000081
:101D00000CED00E00000FA051649B0F5007F086808
:101D1000C0F3412009D0022805D0086820F4C06033
:101D200040F480600860002070470128FBD00868FC
:101D300020F4C06040F4007008600B483222006854
:101D400050430A4AB0FBF2F0401C00E0401E4A69D2
:101D5000520501D50028F9D148694005E3D5032093
:101D600070470000007000402000002040420F003B
:101D70000248006800F4C060704700000070004036
:101D80002DE9F84F044600270088A84D3E4600057F
:101D900015D5606C60B1B0F5000F04D0B0F5400F00
:101DA0002BD001270AE0E86840F48030E86024E0A6
:101DB0000021201D01F0AEFF07001ED03E46206826
:101DC00080033AD5A86D4FF00008C00009D4A86D73
:101DD00040F08050A865A86D4FF0010800F08050D9
:101DE0000090DFF84CA2DAF8001041F48071CAF8D4
:101DF0000010FFF73DFA814610E0D5F88800616CCD
:101E000020F440000843C5F88800D8E7FFF730FA0F
:101E1000A0EB0900022801D9032705E0DAF8000049
:101E2000C005F3D5002F7DD04FEA0706B8F1000FAB
:101E300003D0A86D20F08050A8652078C00707D097
:101E4000D5F88800216A20F003000843C5F888000F
:101E50002078800707D5D5F88800616A20F00C004B
:101E60000843C5F888002078400707D5D5F88800D2
:101E7000A16A20F030000843C5F888002078800669
:101E800007D5D5F88800E16A20F440600843C5F81A
:101E900088002088800507D5D5F88800E16B20F4FC
:101EA00040200843C5F888002088400507D5D5F8AC
:101EB0008800216C20F440100843C5F88800207881
:101EC000400607D5D5F88800216B20F44050084320
:101ED000C5F888002078000607D5D5F88800616B22
:101EE00020F440400843C5F888002088C00507D585
:101EF000D5F88800A16B20F440300843C5F888006D
:101F000020684FF0006700034FF0806850D5D5F887
:101F10008800A16C20F040600843C5F88800A06CE0
:101F2000B84200E005E03BD1E86840F48010E8608A
:101F30003EE0D5F8900010F4407014D0A16D8142BD
:101F400011D0D5F89000D5F8901020F4407041F4ED
:101F50008031C5F89010D5F8901021F48031C5F883
:101F60009010C5F89000C00711D0FFF781F907461F
:101F700041F2883907E000BFFFF77AF9C11B4945F4
:101F800001D9032652E7D5F890008007F4D5D5F89B
:101F90009000A16D20F440700843C5F8900045E71B
:101FA000404505D10121201D01F0B4FE00B10646D7
:101FB0002068400317D5D5F88800E16C20F0406018
:101FC0000843C5F88800E06CB84204D1E86840F4E2
:101FD0008010E86007E0404505D10121201D01F097
:101FE00099FE00B106462088400411D5D5F8880036
:101FF000216D20F040500843C5F88800206DB0F1F5
:10200000805F05D10221201D01F084FE00B106464B
:102010002088000406D555F8880F616D20F08040B7
:1020200008432860304600F005B800000010024068
:102030000070004018BCBDE8E08F00002DE9F047BB
:102040000F4605006BD0494E306800F00700B842DB
:1020500009D2306820F0070038433060306800F063
:102060000700B8425BD12878414C80070AD5A868A0
:10207000A16801F0F001884204D9A16821F0F001C3
:102080000143A1602878C0072CD06868032811D0CC
:10209000022812D0216898B1490500293FDAA168C9
:1020A00021F003010143A160FFF7E2F8804641F20D
:1020B000883910E021688901EFE721688903ECE79E
:1020C0008907EAE7FFF7D4F8A0EB0801494502D9F0
:1020D0000320BDE8F087A068696800F00C00B0EB51
:1020E000810FEFD1287880070AD5A868A16801F090
:1020F000F001884204D2A16821F0F0010143A160FF
:10210000306800F00700B8420BD9306820F00700B3
:1021100038433060306800F00700B84201D0012039
:10212000D7E72878400705D5A068E96820F4E06083
:102130000843A0602878000706D5A068296920F424
:10214000605040EAC100A06000F03EF8A168094A72
:10215000C1F30311515C01F01F01C840064908603A
:1021600006480068BDE8F047FFF756BD0020024072
:1021700000100240BC5C0008200000201800002075
:102180000548064900688968054AC1F30221515C87
:1021900001F01F01C84070472000002000100240DD
:1021A000FC5C00080548064900688968054AC1F3D7
:1021B000C221515C01F01F01C8407047200000207F
:1021C00000100240FC5C000870B525490023184649
:1021D0008A68CC6812F00C0204F00306214C4FEA26
:1021E000640509D00C2A05D0042A32D0082A00D16F
:1021F000284670BD012E10D10B681B0704D4D1F8FE
:102200009430C3F3032302E00B68C3F30313164EA9
:1022100056F82330DAB10C2AEBD1C86800F003007D
:10222000022818D0032818D01846CA68CB68C2F311
:102230000212C3F306234343521CB3FBF2F2C868F5
:10224000C0F34160401C4000B2FBF0F070BD184686
:1022500070BD204670BD2046E7E72846E5E7000050
:10226000001002400024F400CC5C00082DE9F84383
:1022700004006FD0FA4DA86800F00C06E86800F082
:1022800003072078C00664D576B10C2E01D1012F4A
:102290000AD0A069002828687AD040F001002860A0
:1022A000FEF7E6FF80465DE02868800702D5A0695A
:1022B0000028DED0216A2868000703D5286800F0CE
:1022C000F00004E0D5F89400F02202EA10108142F8
:1022D00016D9084601F0B4FD00283BD1286840F02B
:1022E000080028602868216A20F0F0000843286070
:1022F0006868E16920F47F4040EA0120686016E0E8
:10230000286840F0080028602868216A20F0F00062
:10231000084328606868E16920F47F4040EA0120B2
:10232000686026B9206A01F08BFD0028D5D1FFF73F
:102330004BFFA968CB4AC1F30311515C01F01F01A7
:10234000C840C9490860C9480068FFF765FC002813
:102350007ED12EE0CAE000BFFEF78AFFA0EB0800A6
:10236000022876D828688007F6D5286840F008004B
:1023700028602868216A20F0F00008432860686817
:10238000E16920F47F4040EA0120686011E0FFE746
:1023900020F001002860FEF76BFF804606E000BFDA
:1023A000FEF766FFA0EB08000228DAD8286880074D
:1023B000F6D42078C00740D0082E18D00C2E01D1BA
:1023C000032F14D06068B0F5803F17D0B0F5A02F70
:1023D000286817D020F480302860286820F48020F6
:1023E00028606068E0B1FEF743FF804614E028688B
:1023F000800322D56068002878D01EE0286840F469
:102400008030EDE740F480202860F7E7FEF730FFEA
:10241000A0EB08006428A4D828688003F6D50CE057
:10242000FEF726FF804605E0FEF722FFA0EB08003E
:10243000642896D828688003F6D4207880073BD596
:10244000042E11D00C2E01D1022F0DD0E06801E036
:10245000AAE1FFE0002828681ED040F480702860C0
:10246000FEF706FF07460CE0286840050CD5E0683B
:102470000028C1D008E000BFFEF7FAFEC01B02280A
:1024800093D828684005F7D56868217C20F0F8507B
:1024900040EA016068600FE020F480702860FEF779
:1024A000E7FE074605E000BFFEF7E2FEC01B02287C
:1024B000B1D828684005F7D42078000729D560698D
:1024C0000028D5F8940012D040F00100C5F894001F
:1024D000FEF7CEFE074604E0FEF7CAFEC01B022848
:1024E00099D8D5F894008007F6D512E02BE120F0BA
:1024F0000100C5F89400FEF7BBFE074605E000BFEB
:10250000FEF7B6FEC01B022885D8D5F894008007D8
:10251000F6D42078400766D5A86D0027C00008D4FF
:10252000A86D40F08050A865A86D012700F080508C
:1025300000904F480168C90512D40168814641F4F2
:1025400080710160FEF794FE804605E0FEF790FE84
:10255000A0EB080002287DD8D9F80000C005F5D509
:10256000A068012816D00528D5F8900017D020F0D3
:102570000100C5F89000D5F8900020F0040000BFDD
:10258000C5F89000A06841F28839C0B1FEF770FE2E
:1025900080460FE0D5F8900040F00100F0E740F0F1
:1025A0000400C5F89000F5E7FEF762FEA0EB080115
:1025B00049454FD8D5F890008007F5D50EE0FEF7D5
:1025C00057FE804606E000BFFEF752FEA0EB080172
:1025D00049453FD8D5F890008007F5D41FB1A86DC4
:1025E00020F08050A8652078800628D5606A0028F1
:1025F000D5F8980012D040F00100C5F89800FEF719
:1026000037FE074605E000BFFEF732FEC01B02287A
:1026100020D8D5F898008007F6D510E020F001000A
:10262000C5F89800FEF724FE074604E0FEF720FEFA
:10263000C01B02280ED8D5F898008007F6D4A06AEF
:10264000F0B3022816D00C2E7DD0286820F08070C0
:10265000286000E0A7E0FEF70BFE0446A6E00000BD
:1026600000100240BC5C0008200000201800002080
:1026700000700040E868E26A00F00301914228D14E
:10268000216B00F0700209011039914221D1626B77
:1026900000F4FE41B1EB022F1BD194F8382000F07A
:1026A0007841B1EBC26F14D1A18F00F4C002490888
:1026B0004905A1F5001191420BD194F8401000E0BA
:1026C0006AE04908490600F0C060A1F1007181424A
:1026D0004BD00C2E73D02868400170D4286820F0AD
:1026E00080702860FEF7C4FD064604E0FEF7C0FDDA
:1026F000801B022857D828688001F7D4F4E90B0121
:102700006FF00F0202EB01110843218A52044908BD
:1027100002EB4151A26841EA02210843217D4FF0BA
:102720007E42490802EB41610843217B40EAC160D7
:10273000E968244A11400843E860286840F0807046
:102740002860E86800E03AE040F08070E860FEF75A
:102750008FFD044605E000BFFEF78AFD001B02283E
:1027600021D828688001F7D527E02868800124D483
:10277000286840F080702860E86840F08070E86069
:10278000FEF776FD044604E0FEF772FD001B02280A
:1027900009D828688001F7D50FE000BFFEF768FD73
:1027A000001B022802D90320BDE8F88328688001B5
:1027B000F4D4E86804490840E8600020F4E7012008
:1027C000F2E700008C809D01FCFFEEFE10B5006872
:1027D0000B4641680D480140080CD870C1F3042431
:1027E0005C7001F03F049C70C1F34231197052B922
:1027F00001F064FBD870587801F060FB587098784D
:1028000001F05CFB9870002010BD00003FFFFF004E
:1028100010B50B460168896A596001680969C1F3FE
:102820000E019960006801680D480140C1F3054040
:102830001870C1F306245C7001F07F049C70890D50
:10284000D97052B901F03AFB1870587801F036FB94
:102850005870987801F032FB9870002010BD00008D
:102860007F7F7F0010B504004FF0010048D094F83E
:10287000210028B9002084F82000204600F04AF802
:10288000022084F821002068C168C943C90638D5F0
:10289000CA214162216853204862204601F024FB8E
:1028A000B0B9206881681A4A11408160216888683F
:1028B0006268A369104322691A4310438860216843
:1028C000E068086120680169228941EA02410161EA
:1028D000204601F02DFB00280DD12168CA6C22F0A2
:1028E0000302CA646269E16941EA02012268D36CA9
:1028F00041EA0301D16422684FF0FF01516202D026
:1029000010BD4FF000004FF0010184F8211010BD00
:10291000BFFF8FFF10B598B004465C216846FDF7F5
:102920008EFC0B492068884210D14FF40030009093
:10293000001216906846FFF723FA08B1FEF790F9E7
:10294000044850F8901F41F40041016018B010BDD8
:10295000002800400010024070B5044690F82000A6
:102960000B4601281BD0012684F82060022084F841
:102970002100B2B19878D97840EA014558781978A1
:10298000000240EA413005432168CA2048622168BC
:1029900053204862204601F0A7FAD0B120E002207F
:1029A00070BD5878C10603D500F0EF000A305870AA
:1029B000D87801F08CFA0504587801F088FA45EAD5
:1029C0000025987801F083FA0543187845EA4035E8
:1029D000DAE70848054020684560204601F0A8FA7B
:1029E0002268FF21516208B984F82160002184F82F
:1029F000201070BD3FFFFF002DE9F041044690F824
:102A0000200090460D46012811D0012784F820703F
:102A1000022084F821002168CA20486221685320DE
:102A20004862204601F060FA002618B129E0022031
:102A3000BDE8F0812068B8F1000F80684FEA40607F
:102A400024D0002800DBEE70A8782978EA7840EAE4
:102A500001406978090241EA825108431849084057
:102A6000216808602068816821F480218160D5E9AF
:102A70000301084321688A6810438860204601F0FA
:102A800057FA2268FF215162A0B115E0002800DB4F
:102A9000EE70287801F01BFA0304687801F017FA49
:102AA00043EA0023A87801F012FA0343E87843EAE6
:102AB0008050D3E784F8217084F82060B8E70000E4
:102AC0007F7F7F0070B504460B482168C860FEF721
:102AD000CFFB05464FF47A7607E000BFFEF7C8FB50
:102AE000401BB04201D9032070BD2068C068800639
:102AF000F4D5002070BD00005FFF030010B5401E3C
:102B0000B0F1807F01D3012010BD4FF0E02460615F
:102B10000F21601702F004F90020A0610720206156
:102B2000002010BD7047704770470000F0B590F866
:102B30003C20012A29D0012480F83C40022280F860
:102B40003D2003685A689D68114EB34203D122F4B8
:102B500070074A683A4322F070070A683A435A609D
:102B60000268B24205D0B2F1804F02D0094B9A42BE
:102B700004D1896825F080031943916080F83D40B5
:102B8000002180F83C100846F0BD0220F0BD000096
:102B9000002C01400040014010B5040003D094F81F
:102BA0003D0010B107E0012010BD002084F83C007A
:102BB000204600F023F8022084F83D00211D206803
:102BC00001F090FB012084F8480084F83E0084F86E
:102BD0003F0084F8400084F8410084F8420084F803
:102BE000430084F8440084F8450084F8460084F8E3
:102BF000470084F83D00002010BD000008B50068C3
:102C00000B49884212D10B48816D41F0100181655A
:102C1000806D002200F01000009011463620FFF772
:102C200041F8BDE808403620FFF72EB808BD000087
:102C3000001000400010024070472DE9F0410446AA
:102C40000068C66805694FF00007A90713D5B107EA
:102C500011D5F91E01610120207720688069800765
:102C6000204602D0FFF7E8FF04E000F08BF8204692
:102C700000F089F82777680716D5700714D5216802
:102C80006FF004000861022020772068806910F44A
:102C9000407F204602D0FFF7CFFF04E000F072F83B
:102CA000204600F070F82777280715D5300713D590
:102CB00021686FF008000861042020772068C0694F
:102CC0008007204602D0FFF7B7FF04E000F05AF873
:102CD000204600F058F82777E80616D5F00614D5F8
:102CE00021686FF010000861082020772068C06913
:102CF00010F4407F204602D0FFF79EFF04E000F072
:102D000041F8204600F03FF82777E80708D0F007A1
:102D100006D021686FF001000861204600F034F809
:102D2000280601D4A80408D5300606D521686FF41A
:102D3000025008612046FFF7F6FEE80508D5300688
:102D400006D521686FF4807008612046FFF7EAFE1F
:102D5000680608D5700606D521686FF04000086146
:102D6000204600F01FF8A8060AD5B00608D521684D
:102D70006FF0200008612046BDE8F041FFF7D4BEA7
:102D8000BDE8F0817047704700680449884203D16C
:102D900003480168491C01607047000000100040B2
:102DA00010000020704710B50446D0F8800020289D
:102DB00001D0022010BD61B15AB10120206600206F
:102DC0006066204601F05AFE0028F3D1216E0129E9
:102DD00001D0012010BD226810211162226852E842
:102DE000001F41F0100142E80013002BF6D110BD86
:102DF0000E4A00681268904216D10D484278C2EB24
:102E0000C203C3EBC21200EB4202A2F8F4104178F5
:102E1000491CC9B24170142901D1002141700178C7
:102E2000491C0170FDF7C6BE70470000000A002073
:102E3000880B0020704770472DE9F0410268044676
:102E4000D0691168936840F60F0528424FF00005DD
:102E50004FF0020605D187067ED58F067CD5A16E80
:102E600033E1DFF894C203F0010701EA0C0C57EAE2
:102E70000C0C71D05FEAC07C0CD05FEAC15C09D554
:102E80004FF0010CC2F820C0D4F8842042F00102B7
:102E9000C4F88420820709D5DA0707D022681662B1
:102EA000D4F8842042F00402C4F8842042070AD5F2
:102EB000DA0708D0236804221A62D4F8842042F08A
:102EC0000202C4F8842002070CD501F020023A4324
:102ED00008D0236808221A62D4F8842042F008023D
:102EE000C4F8842002050BD54A0109D523684FF4A4
:102EF00000621A62D4F8842042F02002C4F88420D0
:102F0000D4F88420002A36D0800605D5880603D55B
:102F1000A16E09B120468847D4F8840021688968E9
:102F2000490602D410F0280F27D0204601F0ABFB51
:102F30002068806840061BD52068083050E8001FD4
:102F400021F0400140E80012002AF5D1606F78B10D
:102F50006A498163606F00E015E0FDF7B7FE002865
:102F600009D0606F816B00E02046BDE8F041084762
:102F70002046FFF760FFBDE8F0812046FFF75BFFCA
:102F8000C4F88450F7E7D4F860C02027BCF1010FE3
:102F90007ED15FEAC06C7BD55FEAC16C78D510202A
:102FA00010622068806840064FD5616F0A685068DB
:102FB0000004000C3DD0B4F85830834239D9A4F84D
:102FC0005A000868006880062BD4206850E8001F6B
:102FD00021F4807140E80012002AF6D12068083000
:102FE00050E8001F21F0010140E80012002AF5D14D
:102FF0002068083050E8001F21F0400140E800122E
:10300000002AF5D1C4F880702566206850E8001FBA
:1030100021F0100140E80012002AF6D1606FFDF7A0
:103020002FFE6666B4F85800B4F85A10401A81B200
:1030300007E0B4F8581081429DD1106880069AD5F7
:1030400066662046FFF7D4FE95E7B4F85800B4F85A
:103050005A10401A81B2B4F85A0000288BD00029C7
:1030600089D0226852E8000F20F4907042E80003F3
:10307000002BF6D12068083050E8002F22F0010222
:1030800040E80023002BF5D1C4F88070256600E0ED
:103090000AE0A566226852E8000F20F0100042E81E
:1030A0000003002BF6D1CBE7C60209D55B0207D59A
:1030B0004FF4801010622046BDE8F041FFF7BABE21
:1030C000020606D50A0604D5E16E00297FF44CAF4E
:1030D00051E74006B8D54806B6D52046026852E802
:1030E000001F21F0400142E80013002BF6D1C76712
:1030F000C56600F0B6F93EE7200100046945000806
:1031000010B5040002D0E06F10B107E0012010BD3F
:10311000002084F87800204600F026F82420E0679C
:103120002068016821F001010160606A10B1204649
:1031300001F062F9204601F0A1FB0128E7D02068E8
:10314000416821F4904141602068816821F02A01A2
:1031500081602068016841F0010101602046BDE8FE
:10316000104001F0ADB900002DE9F0439DB00646D6
:10317000142117A8FDF763F85C216846FDF75FF896
:1031800061493068614C032702254FF007094FF071
:103190000008884229D101200090CDF8208068469F
:1031A000FEF7EEFD08B1FDF75BFD206E40F48040B8
:1031B0002066206E00F480401C90E06C40F002001D
:1031C000E064E06C17A900F002001C90C02081E8C8
:1031D0002101CDE91A794E48FDF75AFF0022114628
:1031E0002520FEF75FFD25202BE04A4988422DD19E
:1031F0006846CDF824800095FEF7C2FD08B1FDF7C2
:103200002FFDA06D40F40030A065A06D00F40030EB
:103210001C90E06C40F00100E064E06C17A900F045
:1032200001001C900C2081E82101CDE91A794FF0B2
:103230009040FDF72DFF002203212620FEF732FDEE
:103240002620FEF721FD1DB0BDE8F08332498842FB
:10325000F9D10420CDF8288000906846FEF790FD53
:1032600008B1FDF7FDFCA06D40F48020A065A06DC5
:1032700000F480201C90E06C40F00400E064E06CFE
:1032800019AA00F004001C903020CDE9170544462F
:1032900082E8900217A92148FDF7FAFE214F204845
:1032A0004FF080093860C7E90154C7E903497C61E0
:1032B0004FF48058BC61C7E907483846FDF798FDD0
:1032C00008B1FDF7CDFC7767BE62164F144848374A
:1032D0001438E7E802051020A7E81102114847F862
:1032E00014494830BC61C7E90748FDF781FD08B1C2
:1032F000FDF7B6FC3767002202212720BE62FEF7E9
:10330000D1FC27209DE7000000380140001002405A
:103310000004004800440040004800400008004805
:1033200030000240880A002030B4D0F88030202BD2
:1033300002D0022030BC7047A9B1A2B100230366BD
:103340000A4C0368A3420BD05B681B0208D50468D3
:1033500054E8003F43F0806344E80035002DF6D187
:1033600030BC01F0DBBB0120E4E70000008000403E
:103370000A4A016891420FD1094A11781F290BD2DC
:10338000406D037807484354491CC9B21170014489
:1033900001220548FFF7C8BF704700000044004005
:1033A00024000020A41F002078090020704700009E
:1033B0002DE9F84F0446C06F984615460E46202862
:1033C00002D0022000F04AB886B37DB30020C4F8D2
:1033D00084004FF02109C4F87C90FDF749FFA4F860
:1033E00050508246A4F85250A068B0F5805F01D1D9
:1033F000206910B13546002600E000255FF0200767
:10340000B4F8520053464FF00002CDF80080D0B11E
:103410008021204601F0DEFBD0B94DB115F8010B3B
:1034200021688862E16F39EA010006D00120C9E70E
:1034300036F8020BC0F30800F2E7B4F85200401E61
:10344000A4F85200DCE74021204601F0C3FB10B194
:10345000E7670320B6E7E7670020B3E718BCBDE8DD
:10346000E08F7047FEE700002DE9F04186B03FA0F5
:1034700001F046FC434C206881694FF00008C943C5
:10348000090442D4416841F4804141600520FDF7C0
:103490004BFD20688069C043000436D4142168467F
:1034A000FCF7CDFE3848C16C41F00201C164C06C2C
:1034B0004FF4806600F0020005901120CDE9006015
:1034C000324FCDF8088069463846CDF80C80FDF7BC
:1034D000DFFD0025002231463846FDF7C4FE0120FD
:1034E000FDF722FD012231463846FDF7BCFE0120E2
:1034F000FDF71AFD6D1C092DECDB01223146384623
:10350000FDF7B1FE0120FDF70FFD1E48FDF70AFF94
:103510000A20FDF709FD1E4820601E486060012159
:10352000C4E90281C4F81080C4F81480C4F818807B
:10353000C4F81C801348C4F82080FDF70DFF10B1BB
:1035400015A001F0DDFB4FF480510E48FDF796FE0B
:103550000F210C48FDF7BDFE0520FDF7E5FC06B088
:1035600013A0BDE8F04101F0CBBB00005B49324342
:103570005D20427573207265636F766572792E2EB9
:103580002E0D0A00480000200010024000040048F0
:1035900000580040130F42305B4932435D205265B2
:1035A0002D696E6974206661696C6564210D0A007D
:1035B0005B4932435D205265636F766572792064A2
:1035C0006F6E650D0A0000000B4610B54100012228
:1035D0000348FDF71FFF08B1002010BD012010BDFA
:1035E0004800002001688A69D243920701D4002272
:1035F0008A6200688169C943C90703D0816941F0C3
:1036000001018161704700002DE9F0470446006820
:1036100089460026816935461746C9064FF02008BD
:1036200041D51021C1612FE0B9F1FF3F2CD0FDF74A
:103630001FFEC11B494502D8B9F1000F24D12068F3
:10364000416894F8422001F480418369DB431B0404
:1036500015D4B1F5804F12D0202A10D0416841F422
:1036600080414160FDF704FE074608E0FDF700FEDB
:10367000C01B192803D945F02005012604E0206865
:103680008069C0438006F1D420688069C043800609
:1036900002D5002EC8D003E016B92168C1F81C80FD
:1036A00045F00405012621688869C20505D54FF457
:1036B000807245F00105CA610126410509D52268DD
:1036C0004FF4806145F00805D1610126800502D4E0
:1036D0000AE0800507D521684FF4007045F0020527
:1036E000C861012600E086B12046FFF77BFF54F851
:1036F000240B4168064A11404160206A2843206239
:1037000084F81D800020A07720773046BDE8F08740
:1037100000E800FE2DE9F84304461646DDE9089767
:1037200014489846DAB200900023204600F056F87C
:103730003A464946204600F026F9B8B9F5B2B8F144
:10374000010F08D02168300A88623A46494620466F
:1037500000F019F950B9206885624B4600224021DB
:103760002046009700F052F8002800D00120BDE864
:10377000F8830000002000802DE9F8430446164637
:1037800015489846DDE90897DAB2C3020090204652
:1037900000F024F83A464946204600F0F4F8B8B95B
:1037A000F5B2B8F1010F08D02168300A88623A46B4
:1037B0004946204600F0E7F850B9206885624B463C
:1037C000002280212046009700F020F8002800D039
:1037D0000120BDE8F88300000020008010B5C1F38F
:1037E000090141EA02410268029C194321435068E1
:1037F00021F000414FF4806303EA5453024C234309
:1038000098430843506010BDFF63FF032DE9F0416A
:103810001D4617460E460446DDF8188027E042464E
:1038200029462046FFF7F0FE10B10120BDE8F081E7
:10383000681C1CD0FDF71CFDA0EB0800A84200D8B6
:10384000ADB92068806936EA00000ED00020B84289
:103850000DD154F8440F40F0200044F80409202012
:1038600060700020A0702070DFE70120EFE7206883
:10387000806936EA000004D00020B842CFD0002092
:10388000D4E70120F9E700002DE9F0470025914633
:10389000884604462E4620273DE04A4641462046BB
:1038A000FFF7B2FE00B1012520688169C94389068E
:1038B00019D4C5B981698169C943C90612D41021D7
:1038C000C161042060642068C76120684168174AAC
:1038D0001140416084F8417084F8426084F840608F
:1038E000012500E06664FDF7C3FCA0EB090141453A
:1038F00002D8B8F1000F0ED16DB920688069C043BD
:10390000400708D5606C40F02000606484F8417086
:1039100084F84060012520688069C043400701D5D4
:10392000002DBAD02846BDE8F087000000E800FE70
:1039300070B516460D4604461EE03246294620461E
:10394000FFF762FE08B1012070BDFDF791FC801BFE
:10395000A84200D885B920688069C04380060BD58D
:1039600054F8440F40F0200044F80409202060700F
:103970000020A0702070E6E720688069C0438006C0
:10398000DBD4002070BD70B516460D46044620E01D
:10399000324629462046FFF737FE08B1012070BDA8
:1039A000681C16D0FDF764FC801BA84200D885B9BE
:1039B00020688069C04380070BD554F8440F40F05D
:1039C000200044F80409202060700020A0702070BE
:1039D000E4E720688069C0438007D9D4002070BD27
:1039E0000D4808B5816C41F001018164806C0022B2
:1039F00000F00100009011460C20FEF753F90C2056
:103A0000FEF742F9002211460D20FEF74BF9BDE802
:103A100008400D20FEF738B9001002402DE9F041B2
:103A200086B014216846FCF70AFC3948C16C41F0A5
:103A30008001C164C16C01F080010591C16C41F04D
:103A40000101C164C16C01F001010591C16C41F03B
:103A50000201C164C06C4FF0904800F00200059074
:103A6000002201214046FDF7FEFB012500240095C0
:103A7000CDE90154694640460394FDF709FB28024D
:103A8000CDE90004234F694638460294FDF700FB58
:103A900068024FF48816CDE900066946029438465C
:103AA000FDF7F6FA002203213846FDF7DCFB032080
:103AB0000090CDE90154694638460394FDF7E8FAD1
:103AC0000420CDE90004694638460294FDF7E0FA87
:103AD0002020CDE90006694602943846FDF7D8FA61
:103AE000002201214046FDF7BEFB0095CDE90154BF
:103AF000694640460394FDF7CBFAE803CDE900049C
:103B0000694640460294FDF7C3FA06B0BDE8F0816D
:103B10000010024000040048134810B5114901602C
:103B20001249416000210122C0E902120161416194
:103B30008161C1610162FDF70FFC08B1FDF790F8EA
:103B400000210948FDF79AFB08B1FDF789F800212B
:103B50000548FDF7BEFB002803D0BDE81040FDF787
:103B60007FB810BD0058004048000020E49CD110F0
:103B7000134810B51149016012494160002101222A
:103B8000C0E90212016141618161C1610162FDF719
:103B9000E3FB08B1FDF764F800210948FDF76EFB6F
:103BA00008B1FDF75DF800210548FDF792FB0028FC
:103BB00003D0BDE81040FDF753B810BD005C0040D5
:103BC0009C000020E49CD1100C4810B50A4901600B
:103BD00000217F22C0E90112FF22C0E903214161D7
:103BE0008161C161FEF73EFE08B1FDF739F8BDE81D
:103BF000104000F0C9B9000000280040180B002058
:103C00003EB500240F48009401940D4902940160D0
:103C10004F21C0E9011440F2E7318461C160FEF731
:103C2000BBFF08B1FDF71CF80094694605480294F3
:103C3000FEF77CFF002801D0FDF712F83EBD000022
:103C4000001000403C0B002010B5114C0F480C2117
:103C500020604FF4E13060600020A060E060C4E9C3
:103C60000401A061E061206260622046FFF748FA2B
:103C700008B1FCF7F5FF2068016841F02001016000
:103C80002068016841F01001016010BD003801405A
:103C9000F00800200D4810B50B4901604FF4E131E8
:103CA0004160002181600C22C160C0E90412816181
:103CB000C16101624162FFF723FA002803D0BDE829
:103CC0001040FCF7CDBF10BD004400407809002033
:103CD0000D4810B50B4901604FF4165141600021A9
:103CE00081600C22C160C0E904128161C16101627E
:103CF0004162FFF705FA002803D0BDE81040FCF749
:103D0000AFBF10BD00480040000A0020FEE7FEE7FC
:103D1000704700002DE9F041444C05468846E068B4
:103D20000026810728680DD0E16801F00301814277
:103D300016D1A8B1E0686968C0F30210401C88423F
:103D40000ED120E0012804D0022805D0032807D195
:103D500008E02168890701E021684905002907DB9F
:103D600001265FE02168890302D421684903F5E751
:103D7000E1686A686FF00F0321F0730103EB021230
:103D800011430143E160206820F080602060FDF76E
:103D90006FFA074605E000BFFDF76AFAC01B02286C
:103DA00037D820680001F7D4B8F1000F18D0B8F167
:103DB000010F1DD0287D4FF07E41400801EB40608F
:103DC000A96840EA01202169194A1140084320618D
:103DD000206840F080602060FDF74AFA07461AE04C
:103DE000A868297B000240EAC1602169114AECE71A
:103DF000288A1149400801EB4050A96840EA012097
:103E000021690E4AE1E700BFFDF732FAC01B022824
:103E100001D9032606E020680001F5D52069A969CB
:103E2000084320613046BDE8F081000000100240E8
:103E3000FF80FFF9FF80FF070000E0FFFF809FFF8A
:103E4000F8B51C4D06460024A86DC00002D5FDF74C
:103E50008FFF0DE0A86D40F08050A865A86D00F0C0
:103E600080500090FDF784FFA96D21F08051A96575
:103E7000B0F5007F04D0802E07D94FF003040AE08C
:103E8000802E08D9A02E01D804E001D1022402E03E
:103E9000702E00D101240848016821F00701214358
:103EA0000160006800F00700A04201D00120F8BDC9
:103EB0000020F8BD0010024000200240010901EB83
:103EC000810100F00F0000EB4100C0B270470022FA
:103ED000014602E00A39C9B2521C0A29FAD2100777
:103EE00041EA1060704700002DE9F0410446006887
:103EF0000025C168490617D4691EC160FDF7B8F9ED
:103F000006464FF47A78032708E000BFFDF7B0F9C2
:103F1000801B404502D9032584F821702068C068C1
:103F2000400601D4032DF1D12846BDE8F081000000
:103F30002DE9F041064613480025016821F0800173
:103F40000160041F20684FF00307800607D4304645
:103F5000FEF7B8FD90B186F8217003250EE02068C9
:103F600020F0200020603046FEF7ACFD10B186F84E
:103F700021700325206840F0200020602846BDE81D
:103F8000F08100000C28004000B587B0142168467D
:103F9000FCF755F900200246059069461048FEF7E7
:103FA00037FC28B9002205A90D48FEF70FFC10B117
:103FB000002007B000BD0B489DF8001001709DF86F
:103FC000011041709DF8021081709DF81610C170AB
:103FD0009DF8151001719DF8171041710120E8E757
:103FE000180B00200800002010B586B0040028D06F
:103FF00014216846FCF723F90020059021788DF8FC
:10400000001061788DF80110A1788DF802100390EE
:104010000246049069460E48FEF7EEFC88B901207E
:104020008DF8140020798DF81500E0788DF81600D1
:1040300060798DF81700002205A90548FEF78CFC71
:1040400010B1002006B010BDFFF79EFF0120F9E778
:10405000180B002008B500208DF800001548144901
:10406000016015494160154981601549C160694683
:1040700001F0F1FD010005D012A000F041FE4FF06B
:10408000FF3008BD9DF8001017A000F039FE9DF824
:104090000010892906D029B11BA000F031FE6FF075
:1040A000010008BD21A000F02BFE002008BD00008B
:1040B0008D5C0008901F00205F5C0008535C0008C6
:1040C0004800002053485434304144314220526566
:1040D0006164204944204661696C65642120526511
:1040E000743A2025640D0A00534854343041443159
:1040F00042204465766963652049443A203078253A
:104100003032580D0A0000005348543430414431D5
:104110004220494420496E76616C696421204944FB
:104120003A203078253032580D0A00005348543474
:10413000304144314220496E697420537563636590
:104140007373210D0A0000007047000001480068E9
:10415000704700001000002010B500F043F838B19F
:10416000FCF734FC30B107A000F0CAFD012010BDFF
:104170000BA0F9E7FCF782FD12A000F0C1FD0020C2
:1041800010BD00005B53656E736F725D20424D5031
:10419000353830B3F5CABCBBAFCAA7B0DC0D0A00D6
:1041A0005B53656E736F725D20CEC2CAAAB6C8B487
:1041B000ABB8D0C6F7B3F5CABCBBAFCAA7B0DC0D6D
:1041C0000A0000005B53656E736F725D20CBF9D3FC
:1041D000D0B4ABB8D0C6F7B3F5CABCBBAFB3C9B99E
:1041E000A60D0A0010B5FFF735FF20B10AA000F0B8
:1041F00087FD002010BDFCF78DFB0E4C30B10EA0EA
:1042000000F07EFD01206072012010BD0020607270
:104210003220FCF789FEF7E75B53485434785D2081
:10422000496E697420636D64206661696C65640D14
:104230000A000000DC1F00205B543131375D20494B
:104240006E697420636D64206661696C65640D0A33
:1042500000000000FDF7C8BC10B596B044216846C8
:10426000FBF7EDFF142111A8FBF7E9FF4FF40070F5
:10427000FDF74AFD08B172B6FEE701210804CDE959
:104280000010022003240A90CDE90B4114210D9166
:104290000721CDE90E1010906846FDF7E7FF08B141
:1042A00072B6FEE70F20CDE91104002013901490A0
:1042B0001590042111A8FDF7C1FE002801D072B6A7
:1042C000FEE716B010BD00000248016841F470011D
:1042D0000160704788ED00E00148FEF7AEBC0000C9
:1042E0003C0B002070B50268184B4FF08046984296
:1042F00001D0B04203D122F070044A682243144C2A
:10430000144D984205D0B04203D0A04201D0A8423B
:1043100003D122F44076CA6832434E6922F080020B
:1043200032438E68C6620E688662984203D0A0420D
:1043300001D0A84201D109690163016841F004017B
:10434000016001214161026070BD0000002C01404C
:10435000004001400044014010B52DED028BFFF7F5
:10436000F5FE154C6168401AB0F57A7F15D3FFF75A
:10437000EDFE606064218E20FFF726F99FED0F8A25
:104380000F4C68B121460F48FCF780FA010004D0B9
:104390000DA000F0B5FC84ED008ABDEC028B10BDD1
:1043A00010A000F0ADFC84ED008ABDEC028BBDE8EE
:1043B0001040FFF759B800003C000020000000004A
:1043C00030000020C41F00205B424D503538305D66
:1043D0002052656164206661696C20282564290D7E
:1043E0000A0000005B424D503538305D204E6F2092
:1043F00041434B0D0A00000090F82410090706D530
:1044000001684A68436B22F400421A434A6090F8FC
:104410002410C90706D001684A68836A22F4003272
:104420001A434A6090F82410890706D501684A6843
:10443000C36A22F480321A434A6090F82410490774
:1044400006D501684A68036B22F480221A434A6049
:1044500090F82410C90606D501688A68836B22F497
:1044600080521A438A6090F82410890606D50168A4
:104470008A68C36B22F400521A438A6090F82410B1
:10448000490611D501684A68036C22F480121A4368
:104490004A60016CB1F5801F06D101684A68436C1F
:1044A00022F4C0021A434A6090F82410090606D587
:1044B00001684A68806C22F4002202434A60704717
:1044C0002DE9F84300260446C0F88460FCF7D0FECE
:1044D0008046206800684FF0200500076FF07E4797
:1044E00012D54346002229042046009700F072FBB3
:1044F00050B1216851E8000F20F0800041E800022F
:10450000002AF6D1E56721E020680068400722D53F
:10451000434600224FF480012046009700F05AFBEA
:10452000C8B1216851E8000F20F4907041E8000202
:10453000002AF6D12068083050E8001F21F0010160
:1045400040E80012002AF5D1C4F8805084F8786061
:104550000320BDE8F883E567C4F8805044F8606F35
:10456000666026760020F4E710B5806AFEF763FCEB
:1045700010BD70B5846AE06FD4F8805021688968F6
:10458000090604D5212802D1204600F0A2F82068AF
:104590008068400604D5222D02D1204600F073F831
:1045A000D4F8840040F01000C4F884002046FEF7E0
:1045B00042FC70BD10B50146806A0A681268920616
:1045C0002BD4026852E8003F23F4807342E80034A1
:1045D000002CF6D10268083252E8003F23F00103B4
:1045E00042E80034002CF5D10268083252E8003F5E
:1045F00023F0400342E80034002CF5D12022C0F81B
:104600008020026E012A08D1036853E8002F22F0AF
:10461000100243E80024002CF6D100224266026E0C
:10462000012A02D0FEF7A4FE10BD09684968B0F85F
:10463000582089B28A4201D9A0F85A10B0F85A100D
:10464000511A89B2FEF7D4FB10BD10B50246806A3C
:1046500001214166016E012902D0FEF7A7FE10BDBF
:10466000B0F858104B08A0F85A301268526892B24D
:10467000914201D3A0F85A20B0F85A20891A89B281
:10468000FEF7B6FB10BD016851E8002F22F49072CE
:1046900041E80023002BF6D10168083151E8002FD2
:1046A00022F0010241E80023002BF5D1016E01291F
:1046B00008D1026852E8001F21F0100142E80013FF
:1046C000002BF6D12021C0F8801000210166816600
:1046D0007047026852E8001F21F0C00142E8001351
:1046E000002BF6D12021C1677047000010B5B0F84B
:1046F0005C20D0F880300168222B04D0886940F01B
:104700000800886110BD496A436D11401980416DF0
:10471000891C4165B0F85A10491EA0F85A10B0F82B
:104720005A100029EED1026852E8001F21F490715E
:1047300042E80013002BF6D10168083151E8002F40
:1047400022F0010241E80023002BF5D12021C0F81E
:104750008010002181664166154B02689A420BD099
:104760005268120208D5036853E8002F22F08062D5
:1047700043E80024002CF6D1026E012A02D0FEF795
:10478000F7FD10BD0166026852E8001F21F010011C
:1047900042E80013002BF6D10168CA69D243D20661
:1047A00001D410220A62B0F85810FEF721FB10BDA8
:1047B0000080004010B5B0F85C20D0F8803001686F
:1047C000222B04D0886940F00800886110BD496A36
:1047D0001140426D1170416D491C4165B0F85A108D
:1047E000491EA0F85A10B0F85A100029EED10168FD
:1047F00051E8002F22F4907241E80023002BF6D1FB
:104800000168083151E8002F22F0010241E800233D
:10481000002BF5D12021C0F880100021816641666F
:10482000154B02689A420BD05268120208D50368F1
:1048300053E8002F22F0806243E80024002CF6D1D8
:10484000026E012A02D0FEF793FD10BD01660268D8
:1048500052E8001F21F0100142E80013002BF6D1AE
:104860000168CA69D243D20601D410220A62B0F8A4
:104870005810FEF7BDFA10BD008000402DE9F04150
:104880000446016880682269E36910436269002573
:104890001A431043714F0A68714B1A4002430A6071
:1048A00020684168E26821F4405111434160216869
:1048B000A069B94201D0226A10438A6822F43062AA
:1048C00002438A606749236867488B420DD1D0F85C
:1048D000880010F0030006D0012847D0022843D0FA
:1048E000032830D144E001212EE060498B420BD1F6
:1048F000D0F8880010F00C0034D0042836D00828F6
:1049000032D00C281FD133E059498B420BD1D0F85B
:10491000880010F0300025D0102827D0202823D080
:10492000302810D124E0BB420DD1D0F8880010F41B
:10493000406017D0B0F5806F18D0B0F5006F13D07D
:10494000B0F5406F14D010214A4A00264FF40040C1
:10495000BB422FD171B102290FD004290FD00829F1
:1049600073D10FE00021EFE70221EDE70421EBE72F
:104970000821E9E7FDF704FC03E0104602E0FDF73B
:1049800023FCE8B3626802EB420181425DD8B0EBE0
:10499000023F5AD8010E0302500818187141002333
:1049A000FBF712FC344AA0F5407191424DD82168C2
:1049B000C8604BE0E3694FF6EF77834228D10929BD
:1049C00043D2DFE801F005080B420D4242421000DD
:1049D000FDF7D6FB06E0FDF7E5FB03E0104602E03D
:1049E000FDF7F2FB60B14100606801EB5001B1FBE3
:1049F000F0F0A0F11001B94227D84FF6F07100E0B5
:104A000024E00140C0F3420001432068C1601DE082
:104A100009291AD2DFE801F005080B190D19191937
:104A20001000FDF7ADFB06E0FDF7BCFB03E0104610
:104A300002E0FDF7C9FB48B1616800EB5100B0FB33
:104A4000F1F0A0F11001B94205D90125A66628466A
:104A5000E666BDE8F08180B2A9E700000080004072
:104A6000F369FFEF003801400010024000440040AD
:104A7000004800400024F400FFFC0F0070B54165C1
:104A8000A0F8582000210446C0F884102220C4F861
:104A90008000606FD0B11E4BC362636F1D48186306
:104AA000636F1D485863606F13468163656D2168AD
:104AB0002A462431606FFCF7FDF938B11020C4F8A4
:104AC00084002020C4F88000012070BD206940B11E
:104AD000216851E8000F40F4807041E80002002A8C
:104AE000F6D12068083050E8001F41F0010140E88D
:104AF0000012002AF5D12068083050E8001F41F06C
:104B0000400140E80012002AF5D1002070BD0000ED
:104B1000B54500084B4600087345000830B54165AF
:104B2000A0F85820A0F85A200022826681684FF42D
:104B30008055FF23A94204D1016969BB40F2FF11EE
:104B400030E07F2431B3B1F1805F28D0A0F85C2041
:104B5000C0F884202221C0F880100168083151E893
:104B6000002F42F0010241E80023002BF5D18168BB
:104B7000A94201D10169D9B1144981660169C9B15C
:104B8000016851E8002F42F4907241E80023002BA5
:104B9000F6D118E0016941B9A0F85C30D8E70169A5
:104BA00019B13F21A0F85C10D2E7A0F85C40CFE734
:104BB00007498166026852E8001F41F0200142E87F
:104BC0000013002BF6D1002030BD0000B5470008CF
:104BD000ED4600082DE9F047994617460D46044674
:104BE0004FF00008089E33E0701C31D0FCF740FB0A
:104BF000A0EB0900B04218D8BEB12068016849078F
:104C000026D5802D24D0402D22D0C169C943090763
:104C10000DD4082505622046FFF735FDC4F8845001
:104C200084F878800120BDE8F0870320FBE7C069A5
:104C3000C04300050CD421684FF400600862204690
:104C4000FFF721FD2020C4F8840084F87880ECE789
:104C50002068C06935EA000004D00020B842C3D003
:104C60000020E0E70120F9E7F0B41C4C2368D86984
:104C7000A4F5006182061A484FF0010518D55A6A5A
:104C800040F2FF77D6B24288BA420FD28E54521CFD
:104C900092B24280022A09D30A4412F8026C0D2E05
:104CA00004D112F8012C0A2A00D1457020221A6280
:104CB0002268D369DB060DD510231362427822B92E
:104CC000428840F2FE739A4204D343880022CA54B9
:104CD00005704270F0BC0148FEF7AEB8F008002045
:104CE000040000200148FEF7A7B800007809002062
:104CF0000148FEF7A1B80000000A0020FEE700000E
:104D00000FB4054B10B503A9044A029800F0EEF861
:104D100010BC5DF814FB0000C55A000844000020D8
:104D20000907090E002804DB00F1E02080F80014D8
:104D3000704700F00F0000F1E02080F8141D70476C
:104D400002E008C8121F08C1002AFAD17047704754
:104D5000002001E001C1121F002AFBD170470000B2
:104D60002DE9FF5F82B00021DDE90430020DDDF89E
:104D700040B0034318D044F61050A2F2FF32424331
:104D80001514119801281FD0A5EB0B00401C5FEAF9
:104D9000000A4FF000064E4FDFF83891B0465046FB
:104DA00015D5CAF1000413E0119801244AA3012883
:104DB00001D16FEA0B010298119AC0E90031C0E9F4
:104DC000024206B000F08EB8CBF10000DFE70446E7
:104DD0000021404A491842EB0450CDE9001012E08E
:104DE000E00707D032463B4640464946FBF7E1FA2A
:104DF0008046894632463B4610461946FBF7D9FAAB
:104E000006460F466410002CEAD1DDE90401DDE915
:104E10000023BAF1000F06DAFBF7CBFA42464B4605
:104E2000FBF7C7FA05E0FBF74EFC42464B46FBF7A3
:104E30004AFC04460E460022284BFBF7CBFC03D865
:104E40004FF0FF30014607E00022254B2046314657
:104E5000FBF700FAFBF7A6FC102409E0002C0ADBA4
:104E60000A220023FBF7B0F9039B30321A55641E67
:104E700050EA0102F2D1641C039AC4F111031444F4
:104E8000119A012A03D0012208430DD10AE00843F8
:104E900004D000204FF0110B119072E7A3EB0B052B
:104EA0006D1E0DE05B4504DD4FF0000205F10105CC
:104EB00004E003DA4FF00002A5F10105002AECD06E
:104EC00002981199C0E90231C0E9004579E7000074
:104ED000000014400000F03F300000000000F043EC
:104EE0000000E03F30BCBDE8C09F00002DE9FF4F4F
:104EF00095B09A46884606460025EEE1252877D1EA
:104F000000242746F94A0121039400E0044316F8DF
:104F1000013F203B01FA03F01042F7D130782A28F4
:104F200011D06FF02F033078A0F13002092A16D883
:104F3000039A44F0020402EB820203EB42021044A3
:104F4000761C0390EFE758F8042B0392002A03DA4B
:104F5000504244F40054039044F00204761C30782C
:104F60002E2816D116F8010F44F004042A280DD07B
:104F70006FF02F023078A0F13003092B09D807EB2E
:104F8000870302EB4303C718761CF3E758F8047B4A
:104F9000761C30786C280FD006DC4C2817D0682897
:104FA0000DD06A2814D104E0742810D07A280FD1CB
:104FB0000DE044F400140AE044F4801401E044F4E9
:104FC00040147278824202D104F58014761C761C5B
:104FD000307866280BD013DC582877D009DC0028FD
:104FE00075D04528F6D04628F4D047281AD193E149
:104FF00018E0632835D0642879D0652812D18BE178
:10500000702873D008DC6728F1D069286FD06E282B
:105010000DD06F2806D1ACE073282CD0752874D041
:10502000782853D05246179990476D1C54E1C4F329
:105030000250022809D003280DD0D8F80010042807
:105040000DD00D6008F1040846E1D8F80010EA1709
:10505000C1E90052F6E7D8F800100D80F2E70D70B4
:10506000F0E718F8041B8DF8001000208DF80100FF
:10507000EB46012003E058F804BB4FF0FF30610716
:105080004FF0000102D40DE009F101018946B94257
:105090000FDA8145F8DB1BF809100029F4D108E08C
:1050A00009F1010189468142FADB1BF80910002948
:1050B000F6D103985346A0EB090721463846179AC4
:1050C00000F083FA284400EB090507E044E008E11A
:1050D0000DE01BF8010B524617999047B9F10109F1
:1050E000F7D2534621463846179AF2E039E00A21B2
:1050F000C4F302524FF0000B0091022A06D058F878
:10510000040BC117032A09D00AE023E008F10700C5
:1051100020F00702F2E80201904605E000B2C11754
:10512000042A01D140B2C117002906DA0A4600213B
:10513000404261EB02012D2202E0220504D52B2220
:105140008DF80420012203E0E20701D02022F7E7D6
:10515000914657E00A2100E010214FF0000B00912A
:105160000BE010214FF0000B44F0040408270091DD
:1051700003E008204FF0000B0090C4F30252022A13
:1051800005D058F8040B0021032A08D008E008F1E4
:10519000070020F00702F2E80201904603E080B227
:1051A000042A00D1C0B24FF0000922072AD5327874
:1051B000702A07D0DDF800C08CF0100C5CEA0B0CF4
:1051C00005D00EE040228DF80420012208E050EACC
:1051D000010306D030238DF804308DF8052002221B
:1051E0009146009B83F0080353EA0B030AD150EA6F
:1051F000010201D1620705D530228DF804204FF05D
:1052000001097F1E3278582A04D039A20C920CAAC8
:1052100002920BE03BA2F9E75B46009AFAF7D4FF53
:105220000C9B9B5C029A521E0292137050EA010280
:10523000F2D1029804A9081A00F1200B600702D5E8
:1052400024F4803400E001275F4502DDA7EB0B006A
:1052500000E0002000EB0B01009003984944401A45
:105260000390E00306D453462146179A039800F0B2
:10527000ACF90544002706E001A85246C05D179925
:1052800090476D1C7F1C4F45F6DBE0030CD5534661
:105290002146179A039800F098F9054404E030205D
:1052A0005246179990476D1C0099481E009000299E
:1052B000F5DC08E00298029952460078491C0291F8
:1052C000179990476D1CBBF10001ABF1010BF1DCAC
:1052D0005BE100F068F90544761C307800287FF423
:1052E0000DAE19B0284600F05BB900000928010096
:1052F000303132333435363738396162636465664C
:10530000000000003031323334353637383941420D
:105310004344454600000000600700D4062708F11A
:10532000070020F00700F0E80223804603F0004C5D
:105330005FEA0C0001D097A009E0200501D596A0F6
:1053400005E0E00701D095A001E0AFF24C0013901A
:10535000307823F0004365280CD006DC452809D0BE
:1053600046281DD047287FD13BE0662818D0672803
:105370007AD136E00021112F01DB112000E0781CEA
:10538000CDE9000104A90CA8FFF7EAFCDDE90D0155
:105390000C9A4FF0000B07F10109109200914EE0BA
:1053A0004FF000400097CDE9011004A90CA8FFF7C9
:1053B000D7FCDDE90D020C9B0F994FF0000B9146D5
:1053C0001093009211B9791C00EB0109B7EB0900A9
:1053D00003D4C0F1FF3B07F10109A9EB07000190DD
:1053E00042E0012F00DA01270021112F01DD1120F9
:1053F00000E03846CDE9000104A90CA8FFF7B0FC95
:10540000DDE90D010C9A00914FF0000BB9461092A6
:1054100021070FD4009A4A4503DA914601E0A9F129
:105420000109B9F1010F05DD109AA9F10101515CE3
:105430003029F4D0B84202DA10F1040F03DA012166
:10544000CDE9011010E0002803DC8344A9EB000142
:1054500002E0411C494500DD8946A0EB0B00401CE1
:1054600001904FF000400290200705D40198484574
:1054700002DB4FF0FF30019000208DF84B000298C6
:105480000DF14B07B0F1004F25D002200C902B20DE
:105490000D90029800280CDA404202902D200D90C9
:1054A00007E00A210298FBF733F83031029007F841
:1054B000011D0C99481E0C900029F2DC029800286E
:1054C000EFD1791E0D980870307800F0200040F080
:1054D000450007F8020D11A8C01BC01D02901398CB
:1054E000007800B1012000EB0901019801EBE071A7
:1054F000029801440398401A401E0390E00306D42A
:1055000053462146179A039800F05FF80544139814
:10551000007818B15246179990476D1CE00323D5C7
:1055200053462146179A039800F04FF805441BE0B4
:10553000BBF1000F07DB0098584504DD1098179960
:1055400010F80B0001E0179930205246904701985F
:105550000BF1010B401E05F10105019004D12E2035
:105560005246179990476D1CB9F10001A9F1010944
:10557000DEDC05E017F8010B5246179990476D1CC9
:105580000299481E02900029F4DC53462146179ADE
:1055900003989EE62D0000002B0000002000000074
:1055A00030BCBDE8C08F2DE9F041044600251E4601
:1055B0001746880404D405E039462020B0476D1C06
:1055C000641EF9D52846BDE8F0812DE9F041044676
:1055D00000251E469046C80301D5302700E020274D
:1055E000880404D505E041463846B0476D1C641E6A
:1055F000F9D52846BDE8F08138B504001BD00B462C
:1056000002226946302000F09AF89DF80010C1F39C
:10561000C002A270C1F34012E270C1F38001217197
:105620009DF8011001F0070121709DF80110C1F3F0
:10563000C201617038BD4FF0FF3038BD28B10B4654
:1056400001220146272000F07AB84FF0FF30704762
:1056500038B504001CD00B4602226946362000F003
:105660006EF8002813D19DF8001001F00701217099
:105670009DF80010C1F3C20161709DF80010C1F3E4
:105680008011A1709DF80110C1F38401E17038BD53
:105690004FF0FF3038BD30B587B004000D464BD019
:1056A0000B46012206A9372000F049F800280BD14B
:1056B0009DF8181011F0030208D0012A36D0022AF2
:1056C00036D0032A36D0C01F07B030BDCA094FF00C
:1056D000000129D10091019105912B46012202A9D7
:1056E000182000F02CF89DF8081001F003018DF847
:1056F000081040B9294605A8FFF7AAFF18B929469E
:105700006846FFF779FF9DF817101829DCD99DF836
:1057100008100029D8D19DF800100029D4D19DF897
:1057200001100029D0D104212170CDE70121FBE730
:105730000221F9E70321F7E74FF0FF30C4E72DE935
:10574000F041064690460F461C46184600F006FA01
:1057500005000FD177B1607D08B946F08006D4E925
:10576000013C424639463046E047207520B16FF093
:10577000010501E04FF0FF352846BDE8F08100004B
:105780007CB5044600200E46009013460190062288
:1057900069461D20FFF7D3FF05001DD19DF80200CB
:1057A0009DF80110000440EA01209DF80010084314
:1057B00040F31700FAF772FE9FED131B53EC112B09
:1057C000FAF7F7FDFAF788FE6060B078012805D097
:1057D0009FED0F0A84ED000A28467CBD9DF8050068
:1057E0009DF80410000440EA01209DF803100843CE
:1057F000FAF765FE9FED071B53EC112BFAF7D9FD65
:10580000FAF76AFE2060E7E7000000000000F03EC3
:1058100000000000000000000000903F7FB504463B
:1058200000F09CF9002834D12070607D38B9012245
:10583000234603A91046FFF782FF002829D1012241
:10584000234669461046FFF77AFF002821D19DF8CC
:10585000000010B3214601A800F040F9002818D13B
:105860009DF804006FF00405810714D5400712D499
:10587000214602A8FFF7E2FE00280AD19DF80800A1
:10588000C00608D59DF80000502809D0512807D03F
:10589000681004B070BD2846FBE76FF00300F8E71E
:1058A00020700020F5E77CB504000D4646D0207836
:1058B00008B9607820B1084600F0BBF900283CD157
:1058C000294601A8FFF7E7FE002836D19DF804001D
:1058D00028B12946002000F06BF800282DD12B4676
:1058E000022269463020FFF72AFFD0B9A1789DF83F
:1058F00000002B4661F3C300E178022261F34510FA
:10590000217961F382008DF8000020788DF8010084
:10591000617861F3C5008DF801006946302000F020
:1059200072F8002809D19DF80420002A05D0042A25
:1059300003D02946104600F03BF87CBD4FF0FF3005
:105940007CBD38B504004FF000000D4600902CD00F
:10595000E078182804D2084600F06BF9002823D11B
:105960002B46022269463620FFF7E9FE00281BD1AC
:1059700021789DF800002B4661F302008DF80000AD
:105980006178022261F3C500A17861F386108DF879
:105990000000E1789DF8010061F386008DF80100B8
:1059A0006946362000F02FF838BD4FF0FF3038BD83
:1059B000F8B506460D466846FFF76DFE040020D197
:1059C0009DF8000050B12946002000F018F90400AD
:1059D00017D12A6940F6C41069689047052E0ED287
:1059E000DFE806F00F0707070300284600F0C2F8BB
:1059F00003E02946304600F002F9044601E06FF06A
:105A000006042046F8BD2DE9F047814690460F4632
:105A10001C460025184600F0A1F8060024D11FB34B
:105A2000607D20B1012813D0022811D017E0791928
:105A300009EB0500D4F80CC0C0B201226368E0474E
:105A40006D1CEDB22075454509D20028EFD008E065
:105A5000E5684246394648466368A8472075207D78
:105A600020B16FF0010601E04FF0FF363046BDE88F
:105A7000F0873EB50446B6208DF804002346012287
:105A800001A97E20FFF7BFFF002819D122694FF43A
:105A9000FA6061689047607D38B90122234602A907
:105AA0001046FFF74CFE00280AD121466846FFF752
:105AB000C5FD002804D19DF80010C90600D4801F40
:105AC0003EBD000013B54FF6FF7301226946024840
:105AD000FDF76EFC00981CBD7809002028B10B462C
